
USB_keyborad.elf:     file format elf32-littlearm

Sections:
Idx Name          Size      VMA       LMA       File off  Algn
  0 .isr_vector   000001e4  08000000  08000000  00010000  2**0
                  CONTENTS, ALLOC, LOAD, READONLY, DATA
  1 .text         00002df0  080001e4  080001e4  000101e4  2**2
                  CONTENTS, ALLOC, LOAD, READONLY, CODE
  2 .rodata       00000628  08002fd4  08002fd4  00012fd4  2**2
                  CONTENTS, ALLOC, LOAD, READONLY, DATA
  3 .ARM.extab    00000000  080035fc  080035fc  0002000c  2**0
                  CONTENTS
  4 .ARM          00000000  080035fc  080035fc  0002000c  2**0
                  CONTENTS
  5 .preinit_array 00000000  080035fc  080035fc  0002000c  2**0
                  CONTENTS, ALLOC, LOAD, DATA
  6 .init_array   00000004  080035fc  080035fc  000135fc  2**2
                  CONTENTS, ALLOC, LOAD, DATA
  7 .fini_array   00000004  08003600  08003600  00013600  2**2
                  CONTENTS, ALLOC, LOAD, DATA
  8 .data         0000000c  20000000  08003604  00020000  2**2
                  CONTENTS, ALLOC, LOAD, DATA
  9 .bss          00000088  2000000c  08003610  0002000c  2**2
                  ALLOC
 10 ._user_heap_stack 00000604  20000094  08003610  00020094  2**0
                  ALLOC
 11 .ARM.attributes 00000029  00000000  00000000  0002000c  2**0
                  CONTENTS, READONLY
 12 .debug_info   0000939c  00000000  00000000  00020035  2**0
                  CONTENTS, READONLY, DEBUGGING, OCTETS
 13 .debug_abbrev 00001f19  00000000  00000000  000293d1  2**0
                  CONTENTS, READONLY, DEBUGGING, OCTETS
 14 .debug_aranges 000009c0  00000000  00000000  0002b2f0  2**3
                  CONTENTS, READONLY, DEBUGGING, OCTETS
 15 .debug_ranges 000008d0  00000000  00000000  0002bcb0  2**3
                  CONTENTS, READONLY, DEBUGGING, OCTETS
 16 .debug_macro  00018f93  00000000  00000000  0002c580  2**0
                  CONTENTS, READONLY, DEBUGGING, OCTETS
 17 .debug_line   0000ce83  00000000  00000000  00045513  2**0
                  CONTENTS, READONLY, DEBUGGING, OCTETS
 18 .debug_str    0008f1aa  00000000  00000000  00052396  2**0
                  CONTENTS, READONLY, DEBUGGING, OCTETS
 19 .comment      00000050  00000000  00000000  000e1540  2**0
                  CONTENTS, READONLY
 20 .debug_frame  000025d4  00000000  00000000  000e1590  2**2
                  CONTENTS, READONLY, DEBUGGING, OCTETS

Disassembly of section .text:

080001e4 <__do_global_dtors_aux>:
 80001e4:	b510      	push	{r4, lr}
 80001e6:	4c05      	ldr	r4, [pc, #20]	; (80001fc <__do_global_dtors_aux+0x18>)
 80001e8:	7823      	ldrb	r3, [r4, #0]
 80001ea:	b933      	cbnz	r3, 80001fa <__do_global_dtors_aux+0x16>
 80001ec:	4b04      	ldr	r3, [pc, #16]	; (8000200 <__do_global_dtors_aux+0x1c>)
 80001ee:	b113      	cbz	r3, 80001f6 <__do_global_dtors_aux+0x12>
 80001f0:	4804      	ldr	r0, [pc, #16]	; (8000204 <__do_global_dtors_aux+0x20>)
 80001f2:	f3af 8000 	nop.w
 80001f6:	2301      	movs	r3, #1
 80001f8:	7023      	strb	r3, [r4, #0]
 80001fa:	bd10      	pop	{r4, pc}
 80001fc:	2000000c 	.word	0x2000000c
 8000200:	00000000 	.word	0x00000000
 8000204:	08002fbc 	.word	0x08002fbc

08000208 <frame_dummy>:
 8000208:	b508      	push	{r3, lr}
 800020a:	4b03      	ldr	r3, [pc, #12]	; (8000218 <frame_dummy+0x10>)
 800020c:	b11b      	cbz	r3, 8000216 <frame_dummy+0xe>
 800020e:	4903      	ldr	r1, [pc, #12]	; (800021c <frame_dummy+0x14>)
 8000210:	4803      	ldr	r0, [pc, #12]	; (8000220 <frame_dummy+0x18>)
 8000212:	f3af 8000 	nop.w
 8000216:	bd08      	pop	{r3, pc}
 8000218:	00000000 	.word	0x00000000
 800021c:	20000010 	.word	0x20000010
 8000220:	08002fbc 	.word	0x08002fbc

08000224 <MX_GPIO_Init>:
        * Output
        * EVENT_OUT
        * EXTI
*/
void MX_GPIO_Init(void)
{
 8000224:	b480      	push	{r7}
 8000226:	b085      	sub	sp, #20
 8000228:	af00      	add	r7, sp, #0

  /* GPIO Ports Clock Enable */
  __HAL_RCC_GPIOD_CLK_ENABLE();
 800022a:	4b14      	ldr	r3, [pc, #80]	; (800027c <MX_GPIO_Init+0x58>)
 800022c:	699b      	ldr	r3, [r3, #24]
 800022e:	4a13      	ldr	r2, [pc, #76]	; (800027c <MX_GPIO_Init+0x58>)
 8000230:	f043 0320 	orr.w	r3, r3, #32
 8000234:	6193      	str	r3, [r2, #24]
 8000236:	4b11      	ldr	r3, [pc, #68]	; (800027c <MX_GPIO_Init+0x58>)
 8000238:	699b      	ldr	r3, [r3, #24]
 800023a:	f003 0320 	and.w	r3, r3, #32
 800023e:	60fb      	str	r3, [r7, #12]
 8000240:	68fb      	ldr	r3, [r7, #12]
  __HAL_RCC_GPIOA_CLK_ENABLE();
 8000242:	4b0e      	ldr	r3, [pc, #56]	; (800027c <MX_GPIO_Init+0x58>)
 8000244:	699b      	ldr	r3, [r3, #24]
 8000246:	4a0d      	ldr	r2, [pc, #52]	; (800027c <MX_GPIO_Init+0x58>)
 8000248:	f043 0304 	orr.w	r3, r3, #4
 800024c:	6193      	str	r3, [r2, #24]
 800024e:	4b0b      	ldr	r3, [pc, #44]	; (800027c <MX_GPIO_Init+0x58>)
 8000250:	699b      	ldr	r3, [r3, #24]
 8000252:	f003 0304 	and.w	r3, r3, #4
 8000256:	60bb      	str	r3, [r7, #8]
 8000258:	68bb      	ldr	r3, [r7, #8]
  __HAL_RCC_GPIOB_CLK_ENABLE();
 800025a:	4b08      	ldr	r3, [pc, #32]	; (800027c <MX_GPIO_Init+0x58>)
 800025c:	699b      	ldr	r3, [r3, #24]
 800025e:	4a07      	ldr	r2, [pc, #28]	; (800027c <MX_GPIO_Init+0x58>)
 8000260:	f043 0308 	orr.w	r3, r3, #8
 8000264:	6193      	str	r3, [r2, #24]
 8000266:	4b05      	ldr	r3, [pc, #20]	; (800027c <MX_GPIO_Init+0x58>)
 8000268:	699b      	ldr	r3, [r3, #24]
 800026a:	f003 0308 	and.w	r3, r3, #8
 800026e:	607b      	str	r3, [r7, #4]
 8000270:	687b      	ldr	r3, [r7, #4]

}
 8000272:	bf00      	nop
 8000274:	3714      	adds	r7, #20
 8000276:	46bd      	mov	sp, r7
 8000278:	bc80      	pop	{r7}
 800027a:	4770      	bx	lr
 800027c:	40021000 	.word	0x40021000

08000280 <MX_I2C1_Init>:

I2C_HandleTypeDef hi2c1;

/* I2C1 init function */
void MX_I2C1_Init(void)
{
 8000280:	b580      	push	{r7, lr}
 8000282:	af00      	add	r7, sp, #0
  /* USER CODE END I2C1_Init 0 */

  /* USER CODE BEGIN I2C1_Init 1 */

  /* USER CODE END I2C1_Init 1 */
  hi2c1.Instance = I2C1;
 8000284:	4b12      	ldr	r3, [pc, #72]	; (80002d0 <MX_I2C1_Init+0x50>)
 8000286:	4a13      	ldr	r2, [pc, #76]	; (80002d4 <MX_I2C1_Init+0x54>)
 8000288:	601a      	str	r2, [r3, #0]
  hi2c1.Init.ClockSpeed = 100000;
 800028a:	4b11      	ldr	r3, [pc, #68]	; (80002d0 <MX_I2C1_Init+0x50>)
 800028c:	4a12      	ldr	r2, [pc, #72]	; (80002d8 <MX_I2C1_Init+0x58>)
 800028e:	605a      	str	r2, [r3, #4]
  hi2c1.Init.DutyCycle = I2C_DUTYCYCLE_2;
 8000290:	4b0f      	ldr	r3, [pc, #60]	; (80002d0 <MX_I2C1_Init+0x50>)
 8000292:	2200      	movs	r2, #0
 8000294:	609a      	str	r2, [r3, #8]
  hi2c1.Init.OwnAddress1 = 0;
 8000296:	4b0e      	ldr	r3, [pc, #56]	; (80002d0 <MX_I2C1_Init+0x50>)
 8000298:	2200      	movs	r2, #0
 800029a:	60da      	str	r2, [r3, #12]
  hi2c1.Init.AddressingMode = I2C_ADDRESSINGMODE_7BIT;
 800029c:	4b0c      	ldr	r3, [pc, #48]	; (80002d0 <MX_I2C1_Init+0x50>)
 800029e:	f44f 4280 	mov.w	r2, #16384	; 0x4000
 80002a2:	611a      	str	r2, [r3, #16]
  hi2c1.Init.DualAddressMode = I2C_DUALADDRESS_DISABLE;
 80002a4:	4b0a      	ldr	r3, [pc, #40]	; (80002d0 <MX_I2C1_Init+0x50>)
 80002a6:	2200      	movs	r2, #0
 80002a8:	615a      	str	r2, [r3, #20]
  hi2c1.Init.OwnAddress2 = 0;
 80002aa:	4b09      	ldr	r3, [pc, #36]	; (80002d0 <MX_I2C1_Init+0x50>)
 80002ac:	2200      	movs	r2, #0
 80002ae:	619a      	str	r2, [r3, #24]
  hi2c1.Init.GeneralCallMode = I2C_GENERALCALL_DISABLE;
 80002b0:	4b07      	ldr	r3, [pc, #28]	; (80002d0 <MX_I2C1_Init+0x50>)
 80002b2:	2200      	movs	r2, #0
 80002b4:	61da      	str	r2, [r3, #28]
  hi2c1.Init.NoStretchMode = I2C_NOSTRETCH_DISABLE;
 80002b6:	4b06      	ldr	r3, [pc, #24]	; (80002d0 <MX_I2C1_Init+0x50>)
 80002b8:	2200      	movs	r2, #0
 80002ba:	621a      	str	r2, [r3, #32]
  if (HAL_I2C_Init(&hi2c1) != HAL_OK)
 80002bc:	4804      	ldr	r0, [pc, #16]	; (80002d0 <MX_I2C1_Init+0x50>)
 80002be:	f000 fe8f 	bl	8000fe0 <HAL_I2C_Init>
 80002c2:	4603      	mov	r3, r0
 80002c4:	2b00      	cmp	r3, #0
 80002c6:	d001      	beq.n	80002cc <MX_I2C1_Init+0x4c>
  {
    Error_Handler();
 80002c8:	f000 f8d9 	bl	800047e <Error_Handler>
  }
  /* USER CODE BEGIN I2C1_Init 2 */

  /* USER CODE END I2C1_Init 2 */

}
 80002cc:	bf00      	nop
 80002ce:	bd80      	pop	{r7, pc}
 80002d0:	20000028 	.word	0x20000028
 80002d4:	40005400 	.word	0x40005400
 80002d8:	000186a0 	.word	0x000186a0

080002dc <HAL_I2C_MspInit>:

void HAL_I2C_MspInit(I2C_HandleTypeDef* i2cHandle)
{
 80002dc:	b580      	push	{r7, lr}
 80002de:	b088      	sub	sp, #32
 80002e0:	af00      	add	r7, sp, #0
 80002e2:	6078      	str	r0, [r7, #4]

  GPIO_InitTypeDef GPIO_InitStruct = {0};
 80002e4:	f107 0310 	add.w	r3, r7, #16
 80002e8:	2200      	movs	r2, #0
 80002ea:	601a      	str	r2, [r3, #0]
 80002ec:	605a      	str	r2, [r3, #4]
 80002ee:	609a      	str	r2, [r3, #8]
 80002f0:	60da      	str	r2, [r3, #12]
  if(i2cHandle->Instance==I2C1)
 80002f2:	687b      	ldr	r3, [r7, #4]
 80002f4:	681b      	ldr	r3, [r3, #0]
 80002f6:	4a15      	ldr	r2, [pc, #84]	; (800034c <HAL_I2C_MspInit+0x70>)
 80002f8:	4293      	cmp	r3, r2
 80002fa:	d123      	bne.n	8000344 <HAL_I2C_MspInit+0x68>
  {
  /* USER CODE BEGIN I2C1_MspInit 0 */

  /* USER CODE END I2C1_MspInit 0 */

    __HAL_RCC_GPIOB_CLK_ENABLE();
 80002fc:	4b14      	ldr	r3, [pc, #80]	; (8000350 <HAL_I2C_MspInit+0x74>)
 80002fe:	699b      	ldr	r3, [r3, #24]
 8000300:	4a13      	ldr	r2, [pc, #76]	; (8000350 <HAL_I2C_MspInit+0x74>)
 8000302:	f043 0308 	orr.w	r3, r3, #8
 8000306:	6193      	str	r3, [r2, #24]
 8000308:	4b11      	ldr	r3, [pc, #68]	; (8000350 <HAL_I2C_MspInit+0x74>)
 800030a:	699b      	ldr	r3, [r3, #24]
 800030c:	f003 0308 	and.w	r3, r3, #8
 8000310:	60fb      	str	r3, [r7, #12]
 8000312:	68fb      	ldr	r3, [r7, #12]
    /**I2C1 GPIO Configuration
    PB6     ------> I2C1_SCL
    PB7     ------> I2C1_SDA
    */
    GPIO_InitStruct.Pin = GPIO_PIN_6|GPIO_PIN_7;
 8000314:	23c0      	movs	r3, #192	; 0xc0
 8000316:	613b      	str	r3, [r7, #16]
    GPIO_InitStruct.Mode = GPIO_MODE_AF_OD;
 8000318:	2312      	movs	r3, #18
 800031a:	617b      	str	r3, [r7, #20]
    GPIO_InitStruct.Speed = GPIO_SPEED_FREQ_HIGH;
 800031c:	2303      	movs	r3, #3
 800031e:	61fb      	str	r3, [r7, #28]
    HAL_GPIO_Init(GPIOB, &GPIO_InitStruct);
 8000320:	f107 0310 	add.w	r3, r7, #16
 8000324:	4619      	mov	r1, r3
 8000326:	480b      	ldr	r0, [pc, #44]	; (8000354 <HAL_I2C_MspInit+0x78>)
 8000328:	f000 fcc6 	bl	8000cb8 <HAL_GPIO_Init>

    /* I2C1 clock enable */
    __HAL_RCC_I2C1_CLK_ENABLE();
 800032c:	4b08      	ldr	r3, [pc, #32]	; (8000350 <HAL_I2C_MspInit+0x74>)
 800032e:	69db      	ldr	r3, [r3, #28]
 8000330:	4a07      	ldr	r2, [pc, #28]	; (8000350 <HAL_I2C_MspInit+0x74>)
 8000332:	f443 1300 	orr.w	r3, r3, #2097152	; 0x200000
 8000336:	61d3      	str	r3, [r2, #28]
 8000338:	4b05      	ldr	r3, [pc, #20]	; (8000350 <HAL_I2C_MspInit+0x74>)
 800033a:	69db      	ldr	r3, [r3, #28]
 800033c:	f403 1300 	and.w	r3, r3, #2097152	; 0x200000
 8000340:	60bb      	str	r3, [r7, #8]
 8000342:	68bb      	ldr	r3, [r7, #8]
  /* USER CODE BEGIN I2C1_MspInit 1 */

  /* USER CODE END I2C1_MspInit 1 */
  }
}
 8000344:	bf00      	nop
 8000346:	3720      	adds	r7, #32
 8000348:	46bd      	mov	sp, r7
 800034a:	bd80      	pop	{r7, pc}
 800034c:	40005400 	.word	0x40005400
 8000350:	40021000 	.word	0x40021000
 8000354:	40010c00 	.word	0x40010c00

08000358 <main>:
/**
  * @brief  The application entry point.
  * @retval int
  */
int main(void)
{
 8000358:	b580      	push	{r7, lr}
 800035a:	b082      	sub	sp, #8
 800035c:	af00      	add	r7, sp, #0
  /* USER CODE END 1 */

  /* MCU Configuration--------------------------------------------------------*/

  /* Reset of all peripherals, Initializes the Flash interface and the Systick. */
  HAL_Init();
 800035e:	f000 fb17 	bl	8000990 <HAL_Init>
  /* USER CODE BEGIN Init */

  /* USER CODE END Init */

  /* Configure the system clock */
  SystemClock_Config();
 8000362:	f000 f82d 	bl	80003c0 <SystemClock_Config>
  /* USER CODE BEGIN SysInit */

  /* USER CODE END SysInit */

  /* Initialize all configured peripherals */
  MX_GPIO_Init();
 8000366:	f7ff ff5d 	bl	8000224 <MX_GPIO_Init>
  MX_I2C1_Init();
 800036a:	f7ff ff89 	bl	8000280 <MX_I2C1_Init>
  MX_RTC_Init();
 800036e:	f000 fa09 	bl	8000784 <MX_RTC_Init>
  /* USER CODE BEGIN 2 */
  OLED_Init();
 8000372:	f000 f9b9 	bl	80006e8 <OLED_Init>
  RTC_TimeTypeDef My_Time={0};
 8000376:	1d3b      	adds	r3, r7, #4
 8000378:	2100      	movs	r1, #0
 800037a:	460a      	mov	r2, r1
 800037c:	801a      	strh	r2, [r3, #0]
 800037e:	460a      	mov	r2, r1
 8000380:	709a      	strb	r2, [r3, #2]

  /* Infinite loop */
  /* USER CODE BEGIN WHILE */
  while (1)
  {
	  HAL_RTC_GetTime(&hrtc, &My_Time, FORMAT_BCD);
 8000382:	1d3b      	adds	r3, r7, #4
 8000384:	2201      	movs	r2, #1
 8000386:	4619      	mov	r1, r3
 8000388:	480c      	ldr	r0, [pc, #48]	; (80003bc <main+0x64>)
 800038a:	f002 f971 	bl	8002670 <HAL_RTC_GetTime>
	  OLED_ShowHexNum(1,1,My_Time.Hours,4);
 800038e:	793b      	ldrb	r3, [r7, #4]
 8000390:	461a      	mov	r2, r3
 8000392:	2304      	movs	r3, #4
 8000394:	2101      	movs	r1, #1
 8000396:	2001      	movs	r0, #1
 8000398:	f000 f962 	bl	8000660 <OLED_ShowHexNum>
	  OLED_ShowHexNum(2,1,My_Time.Minutes,4);
 800039c:	797b      	ldrb	r3, [r7, #5]
 800039e:	461a      	mov	r2, r3
 80003a0:	2304      	movs	r3, #4
 80003a2:	2101      	movs	r1, #1
 80003a4:	2002      	movs	r0, #2
 80003a6:	f000 f95b 	bl	8000660 <OLED_ShowHexNum>
	  OLED_ShowHexNum(3,1,My_Time.Seconds,4);
 80003aa:	79bb      	ldrb	r3, [r7, #6]
 80003ac:	461a      	mov	r2, r3
 80003ae:	2304      	movs	r3, #4
 80003b0:	2101      	movs	r1, #1
 80003b2:	2003      	movs	r0, #3
 80003b4:	f000 f954 	bl	8000660 <OLED_ShowHexNum>
	  HAL_RTC_GetTime(&hrtc, &My_Time, FORMAT_BCD);
 80003b8:	e7e3      	b.n	8000382 <main+0x2a>
 80003ba:	bf00      	nop
 80003bc:	2000007c 	.word	0x2000007c

080003c0 <SystemClock_Config>:
/**
  * @brief System Clock Configuration
  * @retval None
  */
void SystemClock_Config(void)
{
 80003c0:	b580      	push	{r7, lr}
 80003c2:	b096      	sub	sp, #88	; 0x58
 80003c4:	af00      	add	r7, sp, #0
  RCC_OscInitTypeDef RCC_OscInitStruct = {0};
 80003c6:	f107 0330 	add.w	r3, r7, #48	; 0x30
 80003ca:	2228      	movs	r2, #40	; 0x28
 80003cc:	2100      	movs	r1, #0
 80003ce:	4618      	mov	r0, r3
 80003d0:	f002 fdec 	bl	8002fac <memset>
  RCC_ClkInitTypeDef RCC_ClkInitStruct = {0};
 80003d4:	f107 031c 	add.w	r3, r7, #28
 80003d8:	2200      	movs	r2, #0
 80003da:	601a      	str	r2, [r3, #0]
 80003dc:	605a      	str	r2, [r3, #4]
 80003de:	609a      	str	r2, [r3, #8]
 80003e0:	60da      	str	r2, [r3, #12]
 80003e2:	611a      	str	r2, [r3, #16]
  RCC_PeriphCLKInitTypeDef PeriphClkInit = {0};
 80003e4:	1d3b      	adds	r3, r7, #4
 80003e6:	2200      	movs	r2, #0
 80003e8:	601a      	str	r2, [r3, #0]
 80003ea:	605a      	str	r2, [r3, #4]
 80003ec:	609a      	str	r2, [r3, #8]
 80003ee:	60da      	str	r2, [r3, #12]
 80003f0:	611a      	str	r2, [r3, #16]
 80003f2:	615a      	str	r2, [r3, #20]

  /** Initializes the RCC Oscillators according to the specified parameters
  * in the RCC_OscInitTypeDef structure.
  */
  RCC_OscInitStruct.OscillatorType = RCC_OSCILLATORTYPE_LSI|RCC_OSCILLATORTYPE_HSE;
 80003f4:	2309      	movs	r3, #9
 80003f6:	633b      	str	r3, [r7, #48]	; 0x30
  RCC_OscInitStruct.HSEState = RCC_HSE_ON;
 80003f8:	f44f 3380 	mov.w	r3, #65536	; 0x10000
 80003fc:	637b      	str	r3, [r7, #52]	; 0x34
  RCC_OscInitStruct.HSEPredivValue = RCC_HSE_PREDIV_DIV1;
 80003fe:	2300      	movs	r3, #0
 8000400:	63bb      	str	r3, [r7, #56]	; 0x38
  RCC_OscInitStruct.HSIState = RCC_HSI_ON;
 8000402:	2301      	movs	r3, #1
 8000404:	643b      	str	r3, [r7, #64]	; 0x40
  RCC_OscInitStruct.LSIState = RCC_LSI_ON;
 8000406:	2301      	movs	r3, #1
 8000408:	64bb      	str	r3, [r7, #72]	; 0x48
  RCC_OscInitStruct.PLL.PLLState = RCC_PLL_ON;
 800040a:	2302      	movs	r3, #2
 800040c:	64fb      	str	r3, [r7, #76]	; 0x4c
  RCC_OscInitStruct.PLL.PLLSource = RCC_PLLSOURCE_HSE;
 800040e:	f44f 3380 	mov.w	r3, #65536	; 0x10000
 8000412:	653b      	str	r3, [r7, #80]	; 0x50
  RCC_OscInitStruct.PLL.PLLMUL = RCC_PLL_MUL9;
 8000414:	f44f 13e0 	mov.w	r3, #1835008	; 0x1c0000
 8000418:	657b      	str	r3, [r7, #84]	; 0x54
  if (HAL_RCC_OscConfig(&RCC_OscInitStruct) != HAL_OK)
 800041a:	f107 0330 	add.w	r3, r7, #48	; 0x30
 800041e:	4618      	mov	r0, r3
 8000420:	f001 fa44 	bl	80018ac <HAL_RCC_OscConfig>
 8000424:	4603      	mov	r3, r0
 8000426:	2b00      	cmp	r3, #0
 8000428:	d001      	beq.n	800042e <SystemClock_Config+0x6e>
  {
    Error_Handler();
 800042a:	f000 f828 	bl	800047e <Error_Handler>
  }

  /** Initializes the CPU, AHB and APB buses clocks
  */
  RCC_ClkInitStruct.ClockType = RCC_CLOCKTYPE_HCLK|RCC_CLOCKTYPE_SYSCLK
 800042e:	230f      	movs	r3, #15
 8000430:	61fb      	str	r3, [r7, #28]
                              |RCC_CLOCKTYPE_PCLK1|RCC_CLOCKTYPE_PCLK2;
  RCC_ClkInitStruct.SYSCLKSource = RCC_SYSCLKSOURCE_PLLCLK;
 8000432:	2302      	movs	r3, #2
 8000434:	623b      	str	r3, [r7, #32]
  RCC_ClkInitStruct.AHBCLKDivider = RCC_SYSCLK_DIV1;
 8000436:	2300      	movs	r3, #0
 8000438:	627b      	str	r3, [r7, #36]	; 0x24
  RCC_ClkInitStruct.APB1CLKDivider = RCC_HCLK_DIV2;
 800043a:	f44f 6380 	mov.w	r3, #1024	; 0x400
 800043e:	62bb      	str	r3, [r7, #40]	; 0x28
  RCC_ClkInitStruct.APB2CLKDivider = RCC_HCLK_DIV1;
 8000440:	2300      	movs	r3, #0
 8000442:	62fb      	str	r3, [r7, #44]	; 0x2c

  if (HAL_RCC_ClockConfig(&RCC_ClkInitStruct, FLASH_LATENCY_2) != HAL_OK)
 8000444:	f107 031c 	add.w	r3, r7, #28
 8000448:	2102      	movs	r1, #2
 800044a:	4618      	mov	r0, r3
 800044c:	f001 fcb0 	bl	8001db0 <HAL_RCC_ClockConfig>
 8000450:	4603      	mov	r3, r0
 8000452:	2b00      	cmp	r3, #0
 8000454:	d001      	beq.n	800045a <SystemClock_Config+0x9a>
  {
    Error_Handler();
 8000456:	f000 f812 	bl	800047e <Error_Handler>
  }
  PeriphClkInit.PeriphClockSelection = RCC_PERIPHCLK_RTC;
 800045a:	2301      	movs	r3, #1
 800045c:	607b      	str	r3, [r7, #4]
  PeriphClkInit.RTCClockSelection = RCC_RTCCLKSOURCE_LSI;
 800045e:	f44f 7300 	mov.w	r3, #512	; 0x200
 8000462:	60bb      	str	r3, [r7, #8]
  if (HAL_RCCEx_PeriphCLKConfig(&PeriphClkInit) != HAL_OK)
 8000464:	1d3b      	adds	r3, r7, #4
 8000466:	4618      	mov	r0, r3
 8000468:	f001 fe3a 	bl	80020e0 <HAL_RCCEx_PeriphCLKConfig>
 800046c:	4603      	mov	r3, r0
 800046e:	2b00      	cmp	r3, #0
 8000470:	d001      	beq.n	8000476 <SystemClock_Config+0xb6>
  {
    Error_Handler();
 8000472:	f000 f804 	bl	800047e <Error_Handler>
  }
}
 8000476:	bf00      	nop
 8000478:	3758      	adds	r7, #88	; 0x58
 800047a:	46bd      	mov	sp, r7
 800047c:	bd80      	pop	{r7, pc}

0800047e <Error_Handler>:
/**
  * @brief  This function is executed in case of error occurrence.
  * @retval None
  */
void Error_Handler(void)
{
 800047e:	b480      	push	{r7}
 8000480:	af00      	add	r7, sp, #0
  \details Disables IRQ interrupts by setting the I-bit in the CPSR.
           Can only be executed in Privileged modes.
 */
__STATIC_FORCEINLINE void __disable_irq(void)
{
  __ASM volatile ("cpsid i" : : : "memory");
 8000482:	b672      	cpsid	i
}
 8000484:	bf00      	nop
  /* USER CODE BEGIN Error_Handler_Debug */
  /* User can add his own implementation to report the HAL error return state */
  __disable_irq();
  while (1)
 8000486:	e7fe      	b.n	8000486 <Error_Handler+0x8>

08000488 <OLED_WriteCommand>:
  * @brief  OLED写命令
  * @param  Command 要写入的命令
  * @retval 无
  */
void OLED_WriteCommand(uint8_t Command)
{
 8000488:	b580      	push	{r7, lr}
 800048a:	b088      	sub	sp, #32
 800048c:	af04      	add	r7, sp, #16
 800048e:	4603      	mov	r3, r0
 8000490:	71fb      	strb	r3, [r7, #7]
//	OLED_I2C_SendByte(0x78);		//从机地址
//	OLED_I2C_SendByte(0x00);		//写命令
//	OLED_I2C_SendByte(Command);
//	OLED_I2C_Stop();
	 uint8_t *pData;
	 pData = &Command;
 8000492:	1dfb      	adds	r3, r7, #7
 8000494:	60fb      	str	r3, [r7, #12]
	 HAL_I2C_Mem_Write(&hi2c1,0x78,0x00,I2C_MEMADD_SIZE_8BIT,pData,1,100);
 8000496:	2364      	movs	r3, #100	; 0x64
 8000498:	9302      	str	r3, [sp, #8]
 800049a:	2301      	movs	r3, #1
 800049c:	9301      	str	r3, [sp, #4]
 800049e:	68fb      	ldr	r3, [r7, #12]
 80004a0:	9300      	str	r3, [sp, #0]
 80004a2:	2301      	movs	r3, #1
 80004a4:	2200      	movs	r2, #0
 80004a6:	2178      	movs	r1, #120	; 0x78
 80004a8:	4803      	ldr	r0, [pc, #12]	; (80004b8 <OLED_WriteCommand+0x30>)
 80004aa:	f000 fedd 	bl	8001268 <HAL_I2C_Mem_Write>
}
 80004ae:	bf00      	nop
 80004b0:	3710      	adds	r7, #16
 80004b2:	46bd      	mov	sp, r7
 80004b4:	bd80      	pop	{r7, pc}
 80004b6:	bf00      	nop
 80004b8:	20000028 	.word	0x20000028

080004bc <OLED_WriteData>:
  * @brief  OLED写数据
  * @param  Data 要写入的数据
  * @retval 无
  */
void OLED_WriteData(uint8_t Data)
{
 80004bc:	b580      	push	{r7, lr}
 80004be:	b088      	sub	sp, #32
 80004c0:	af04      	add	r7, sp, #16
 80004c2:	4603      	mov	r3, r0
 80004c4:	71fb      	strb	r3, [r7, #7]
//	OLED_I2C_SendByte(0x78);		//从机地址
//	OLED_I2C_SendByte(0x40);		//写数据
//	OLED_I2C_SendByte(Data);
//	OLED_I2C_Stop();
	 uint8_t *pData;
	 pData = &Data;
 80004c6:	1dfb      	adds	r3, r7, #7
 80004c8:	60fb      	str	r3, [r7, #12]
	 HAL_I2C_Mem_Write(&hi2c1,0x78,0x40,I2C_MEMADD_SIZE_8BIT,pData,1,100);
 80004ca:	2364      	movs	r3, #100	; 0x64
 80004cc:	9302      	str	r3, [sp, #8]
 80004ce:	2301      	movs	r3, #1
 80004d0:	9301      	str	r3, [sp, #4]
 80004d2:	68fb      	ldr	r3, [r7, #12]
 80004d4:	9300      	str	r3, [sp, #0]
 80004d6:	2301      	movs	r3, #1
 80004d8:	2240      	movs	r2, #64	; 0x40
 80004da:	2178      	movs	r1, #120	; 0x78
 80004dc:	4803      	ldr	r0, [pc, #12]	; (80004ec <OLED_WriteData+0x30>)
 80004de:	f000 fec3 	bl	8001268 <HAL_I2C_Mem_Write>

}
 80004e2:	bf00      	nop
 80004e4:	3710      	adds	r7, #16
 80004e6:	46bd      	mov	sp, r7
 80004e8:	bd80      	pop	{r7, pc}
 80004ea:	bf00      	nop
 80004ec:	20000028 	.word	0x20000028

080004f0 <OLED_SetCursor>:
  * @param  Y 以左上角为原点，向下方向的坐标，范围：0~7
  * @param  X 以左上角为原点，向右方向的坐标，范围：0~127
  * @retval 无
  */
void OLED_SetCursor(uint8_t Y, uint8_t X)
{
 80004f0:	b580      	push	{r7, lr}
 80004f2:	b082      	sub	sp, #8
 80004f4:	af00      	add	r7, sp, #0
 80004f6:	4603      	mov	r3, r0
 80004f8:	460a      	mov	r2, r1
 80004fa:	71fb      	strb	r3, [r7, #7]
 80004fc:	4613      	mov	r3, r2
 80004fe:	71bb      	strb	r3, [r7, #6]
	OLED_WriteCommand(0xB0 | Y);					//设置Y位置
 8000500:	79fb      	ldrb	r3, [r7, #7]
 8000502:	f063 034f 	orn	r3, r3, #79	; 0x4f
 8000506:	b2db      	uxtb	r3, r3
 8000508:	4618      	mov	r0, r3
 800050a:	f7ff ffbd 	bl	8000488 <OLED_WriteCommand>
	OLED_WriteCommand(0x10 | ((X & 0xF0) >> 4));	//设置X位置低4位
 800050e:	79bb      	ldrb	r3, [r7, #6]
 8000510:	091b      	lsrs	r3, r3, #4
 8000512:	b2db      	uxtb	r3, r3
 8000514:	f043 0310 	orr.w	r3, r3, #16
 8000518:	b2db      	uxtb	r3, r3
 800051a:	4618      	mov	r0, r3
 800051c:	f7ff ffb4 	bl	8000488 <OLED_WriteCommand>
	OLED_WriteCommand(0x00 | (X & 0x0F));			//设置X位置高4位
 8000520:	79bb      	ldrb	r3, [r7, #6]
 8000522:	f003 030f 	and.w	r3, r3, #15
 8000526:	b2db      	uxtb	r3, r3
 8000528:	4618      	mov	r0, r3
 800052a:	f7ff ffad 	bl	8000488 <OLED_WriteCommand>
}
 800052e:	bf00      	nop
 8000530:	3708      	adds	r7, #8
 8000532:	46bd      	mov	sp, r7
 8000534:	bd80      	pop	{r7, pc}

08000536 <OLED_Clear>:
  * @brief  OLED清屏
  * @param  无
  * @retval 无
  */
void OLED_Clear(void)
{
 8000536:	b580      	push	{r7, lr}
 8000538:	b082      	sub	sp, #8
 800053a:	af00      	add	r7, sp, #0
	uint8_t i, j;
	for (j = 0; j < 8; j++)
 800053c:	2300      	movs	r3, #0
 800053e:	71bb      	strb	r3, [r7, #6]
 8000540:	e014      	b.n	800056c <OLED_Clear+0x36>
	{
		OLED_SetCursor(j, 0);
 8000542:	79bb      	ldrb	r3, [r7, #6]
 8000544:	2100      	movs	r1, #0
 8000546:	4618      	mov	r0, r3
 8000548:	f7ff ffd2 	bl	80004f0 <OLED_SetCursor>
		for(i = 0; i < 128; i++)
 800054c:	2300      	movs	r3, #0
 800054e:	71fb      	strb	r3, [r7, #7]
 8000550:	e005      	b.n	800055e <OLED_Clear+0x28>
		{
			OLED_WriteData(0x00);
 8000552:	2000      	movs	r0, #0
 8000554:	f7ff ffb2 	bl	80004bc <OLED_WriteData>
		for(i = 0; i < 128; i++)
 8000558:	79fb      	ldrb	r3, [r7, #7]
 800055a:	3301      	adds	r3, #1
 800055c:	71fb      	strb	r3, [r7, #7]
 800055e:	f997 3007 	ldrsb.w	r3, [r7, #7]
 8000562:	2b00      	cmp	r3, #0
 8000564:	daf5      	bge.n	8000552 <OLED_Clear+0x1c>
	for (j = 0; j < 8; j++)
 8000566:	79bb      	ldrb	r3, [r7, #6]
 8000568:	3301      	adds	r3, #1
 800056a:	71bb      	strb	r3, [r7, #6]
 800056c:	79bb      	ldrb	r3, [r7, #6]
 800056e:	2b07      	cmp	r3, #7
 8000570:	d9e7      	bls.n	8000542 <OLED_Clear+0xc>
		}
	}
}
 8000572:	bf00      	nop
 8000574:	bf00      	nop
 8000576:	3708      	adds	r7, #8
 8000578:	46bd      	mov	sp, r7
 800057a:	bd80      	pop	{r7, pc}

0800057c <OLED_ShowChar>:
  * @param  Column 列位置，范围：1~16
  * @param  Char 要显示的一个字符，范围：ASCII可见字符
  * @retval 无
  */
void OLED_ShowChar(uint8_t Line, uint8_t Column, char Char)
{
 800057c:	b580      	push	{r7, lr}
 800057e:	b084      	sub	sp, #16
 8000580:	af00      	add	r7, sp, #0
 8000582:	4603      	mov	r3, r0
 8000584:	71fb      	strb	r3, [r7, #7]
 8000586:	460b      	mov	r3, r1
 8000588:	71bb      	strb	r3, [r7, #6]
 800058a:	4613      	mov	r3, r2
 800058c:	717b      	strb	r3, [r7, #5]
	uint8_t i;
	OLED_SetCursor((Line - 1) * 2, (Column - 1) * 8);		//设置光标位置在上半部分
 800058e:	79fb      	ldrb	r3, [r7, #7]
 8000590:	3b01      	subs	r3, #1
 8000592:	b2db      	uxtb	r3, r3
 8000594:	005b      	lsls	r3, r3, #1
 8000596:	b2da      	uxtb	r2, r3
 8000598:	79bb      	ldrb	r3, [r7, #6]
 800059a:	3b01      	subs	r3, #1
 800059c:	b2db      	uxtb	r3, r3
 800059e:	00db      	lsls	r3, r3, #3
 80005a0:	b2db      	uxtb	r3, r3
 80005a2:	4619      	mov	r1, r3
 80005a4:	4610      	mov	r0, r2
 80005a6:	f7ff ffa3 	bl	80004f0 <OLED_SetCursor>
	for (i = 0; i < 8; i++)
 80005aa:	2300      	movs	r3, #0
 80005ac:	73fb      	strb	r3, [r7, #15]
 80005ae:	e00e      	b.n	80005ce <OLED_ShowChar+0x52>
	{
		OLED_WriteData(OLED_F8x16[Char - ' '][i]);			//显示上半部分内容
 80005b0:	797b      	ldrb	r3, [r7, #5]
 80005b2:	f1a3 0220 	sub.w	r2, r3, #32
 80005b6:	7bfb      	ldrb	r3, [r7, #15]
 80005b8:	491c      	ldr	r1, [pc, #112]	; (800062c <OLED_ShowChar+0xb0>)
 80005ba:	0112      	lsls	r2, r2, #4
 80005bc:	440a      	add	r2, r1
 80005be:	4413      	add	r3, r2
 80005c0:	781b      	ldrb	r3, [r3, #0]
 80005c2:	4618      	mov	r0, r3
 80005c4:	f7ff ff7a 	bl	80004bc <OLED_WriteData>
	for (i = 0; i < 8; i++)
 80005c8:	7bfb      	ldrb	r3, [r7, #15]
 80005ca:	3301      	adds	r3, #1
 80005cc:	73fb      	strb	r3, [r7, #15]
 80005ce:	7bfb      	ldrb	r3, [r7, #15]
 80005d0:	2b07      	cmp	r3, #7
 80005d2:	d9ed      	bls.n	80005b0 <OLED_ShowChar+0x34>
	}
	OLED_SetCursor((Line - 1) * 2 + 1, (Column - 1) * 8);	//设置光标位置在下半部分
 80005d4:	79fb      	ldrb	r3, [r7, #7]
 80005d6:	3b01      	subs	r3, #1
 80005d8:	b2db      	uxtb	r3, r3
 80005da:	005b      	lsls	r3, r3, #1
 80005dc:	b2db      	uxtb	r3, r3
 80005de:	3301      	adds	r3, #1
 80005e0:	b2da      	uxtb	r2, r3
 80005e2:	79bb      	ldrb	r3, [r7, #6]
 80005e4:	3b01      	subs	r3, #1
 80005e6:	b2db      	uxtb	r3, r3
 80005e8:	00db      	lsls	r3, r3, #3
 80005ea:	b2db      	uxtb	r3, r3
 80005ec:	4619      	mov	r1, r3
 80005ee:	4610      	mov	r0, r2
 80005f0:	f7ff ff7e 	bl	80004f0 <OLED_SetCursor>
	for (i = 0; i < 8; i++)
 80005f4:	2300      	movs	r3, #0
 80005f6:	73fb      	strb	r3, [r7, #15]
 80005f8:	e00f      	b.n	800061a <OLED_ShowChar+0x9e>
	{
		OLED_WriteData(OLED_F8x16[Char - ' '][i + 8]);		//显示下半部分内容
 80005fa:	797b      	ldrb	r3, [r7, #5]
 80005fc:	f1a3 0220 	sub.w	r2, r3, #32
 8000600:	7bfb      	ldrb	r3, [r7, #15]
 8000602:	3308      	adds	r3, #8
 8000604:	4909      	ldr	r1, [pc, #36]	; (800062c <OLED_ShowChar+0xb0>)
 8000606:	0112      	lsls	r2, r2, #4
 8000608:	440a      	add	r2, r1
 800060a:	4413      	add	r3, r2
 800060c:	781b      	ldrb	r3, [r3, #0]
 800060e:	4618      	mov	r0, r3
 8000610:	f7ff ff54 	bl	80004bc <OLED_WriteData>
	for (i = 0; i < 8; i++)
 8000614:	7bfb      	ldrb	r3, [r7, #15]
 8000616:	3301      	adds	r3, #1
 8000618:	73fb      	strb	r3, [r7, #15]
 800061a:	7bfb      	ldrb	r3, [r7, #15]
 800061c:	2b07      	cmp	r3, #7
 800061e:	d9ec      	bls.n	80005fa <OLED_ShowChar+0x7e>
	}
}
 8000620:	bf00      	nop
 8000622:	bf00      	nop
 8000624:	3710      	adds	r7, #16
 8000626:	46bd      	mov	sp, r7
 8000628:	bd80      	pop	{r7, pc}
 800062a:	bf00      	nop
 800062c:	08002ff4 	.word	0x08002ff4

08000630 <OLED_Pow>:
/**
  * @brief  OLED次方函数
  * @retval 返回值等于X的Y次方
  */
uint32_t OLED_Pow(uint32_t X, uint32_t Y)
{
 8000630:	b480      	push	{r7}
 8000632:	b085      	sub	sp, #20
 8000634:	af00      	add	r7, sp, #0
 8000636:	6078      	str	r0, [r7, #4]
 8000638:	6039      	str	r1, [r7, #0]
	uint32_t Result = 1;
 800063a:	2301      	movs	r3, #1
 800063c:	60fb      	str	r3, [r7, #12]
	while (Y--)
 800063e:	e004      	b.n	800064a <OLED_Pow+0x1a>
	{
		Result *= X;
 8000640:	68fb      	ldr	r3, [r7, #12]
 8000642:	687a      	ldr	r2, [r7, #4]
 8000644:	fb02 f303 	mul.w	r3, r2, r3
 8000648:	60fb      	str	r3, [r7, #12]
	while (Y--)
 800064a:	683b      	ldr	r3, [r7, #0]
 800064c:	1e5a      	subs	r2, r3, #1
 800064e:	603a      	str	r2, [r7, #0]
 8000650:	2b00      	cmp	r3, #0
 8000652:	d1f5      	bne.n	8000640 <OLED_Pow+0x10>
	}
	return Result;
 8000654:	68fb      	ldr	r3, [r7, #12]
}
 8000656:	4618      	mov	r0, r3
 8000658:	3714      	adds	r7, #20
 800065a:	46bd      	mov	sp, r7
 800065c:	bc80      	pop	{r7}
 800065e:	4770      	bx	lr

08000660 <OLED_ShowHexNum>:
  * @param  Number 要显示的数字，范围：0~0xFFFFFFFF
  * @param  Length 要显示数字的长度，范围：1~8
  * @retval 无
  */
void OLED_ShowHexNum(uint8_t Line, uint8_t Column, uint32_t Number, uint8_t Length)
{
 8000660:	b580      	push	{r7, lr}
 8000662:	b084      	sub	sp, #16
 8000664:	af00      	add	r7, sp, #0
 8000666:	603a      	str	r2, [r7, #0]
 8000668:	461a      	mov	r2, r3
 800066a:	4603      	mov	r3, r0
 800066c:	71fb      	strb	r3, [r7, #7]
 800066e:	460b      	mov	r3, r1
 8000670:	71bb      	strb	r3, [r7, #6]
 8000672:	4613      	mov	r3, r2
 8000674:	717b      	strb	r3, [r7, #5]
	uint8_t i, SingleNumber;
	for (i = 0; i < Length; i++)
 8000676:	2300      	movs	r3, #0
 8000678:	73fb      	strb	r3, [r7, #15]
 800067a:	e02c      	b.n	80006d6 <OLED_ShowHexNum+0x76>
	{
		SingleNumber = Number / OLED_Pow(16, Length - i - 1) % 16;
 800067c:	797a      	ldrb	r2, [r7, #5]
 800067e:	7bfb      	ldrb	r3, [r7, #15]
 8000680:	1ad3      	subs	r3, r2, r3
 8000682:	3b01      	subs	r3, #1
 8000684:	4619      	mov	r1, r3
 8000686:	2010      	movs	r0, #16
 8000688:	f7ff ffd2 	bl	8000630 <OLED_Pow>
 800068c:	4602      	mov	r2, r0
 800068e:	683b      	ldr	r3, [r7, #0]
 8000690:	fbb3 f3f2 	udiv	r3, r3, r2
 8000694:	b2db      	uxtb	r3, r3
 8000696:	f003 030f 	and.w	r3, r3, #15
 800069a:	73bb      	strb	r3, [r7, #14]
		if (SingleNumber < 10)
 800069c:	7bbb      	ldrb	r3, [r7, #14]
 800069e:	2b09      	cmp	r3, #9
 80006a0:	d80b      	bhi.n	80006ba <OLED_ShowHexNum+0x5a>
		{
			OLED_ShowChar(Line, Column + i, SingleNumber + '0');
 80006a2:	79ba      	ldrb	r2, [r7, #6]
 80006a4:	7bfb      	ldrb	r3, [r7, #15]
 80006a6:	4413      	add	r3, r2
 80006a8:	b2d9      	uxtb	r1, r3
 80006aa:	7bbb      	ldrb	r3, [r7, #14]
 80006ac:	3330      	adds	r3, #48	; 0x30
 80006ae:	b2da      	uxtb	r2, r3
 80006b0:	79fb      	ldrb	r3, [r7, #7]
 80006b2:	4618      	mov	r0, r3
 80006b4:	f7ff ff62 	bl	800057c <OLED_ShowChar>
 80006b8:	e00a      	b.n	80006d0 <OLED_ShowHexNum+0x70>
		}
		else
		{
			OLED_ShowChar(Line, Column + i, SingleNumber - 10 + 'A');
 80006ba:	79ba      	ldrb	r2, [r7, #6]
 80006bc:	7bfb      	ldrb	r3, [r7, #15]
 80006be:	4413      	add	r3, r2
 80006c0:	b2d9      	uxtb	r1, r3
 80006c2:	7bbb      	ldrb	r3, [r7, #14]
 80006c4:	3337      	adds	r3, #55	; 0x37
 80006c6:	b2da      	uxtb	r2, r3
 80006c8:	79fb      	ldrb	r3, [r7, #7]
 80006ca:	4618      	mov	r0, r3
 80006cc:	f7ff ff56 	bl	800057c <OLED_ShowChar>
	for (i = 0; i < Length; i++)
 80006d0:	7bfb      	ldrb	r3, [r7, #15]
 80006d2:	3301      	adds	r3, #1
 80006d4:	73fb      	strb	r3, [r7, #15]
 80006d6:	7bfa      	ldrb	r2, [r7, #15]
 80006d8:	797b      	ldrb	r3, [r7, #5]
 80006da:	429a      	cmp	r2, r3
 80006dc:	d3ce      	bcc.n	800067c <OLED_ShowHexNum+0x1c>
		}
	}
}
 80006de:	bf00      	nop
 80006e0:	bf00      	nop
 80006e2:	3710      	adds	r7, #16
 80006e4:	46bd      	mov	sp, r7
 80006e6:	bd80      	pop	{r7, pc}

080006e8 <OLED_Init>:
  * @brief  OLED初始化
  * @param  无
  * @retval 无
  */
void OLED_Init(void)
{
 80006e8:	b580      	push	{r7, lr}
 80006ea:	af00      	add	r7, sp, #0

	HAL_Delay(200);
 80006ec:	20c8      	movs	r0, #200	; 0xc8
 80006ee:	f000 f9b1 	bl	8000a54 <HAL_Delay>
	OLED_WriteCommand(0xAE);	//关闭显示
 80006f2:	20ae      	movs	r0, #174	; 0xae
 80006f4:	f7ff fec8 	bl	8000488 <OLED_WriteCommand>

	OLED_WriteCommand(0xD5);	//设置显示时钟分频比/振荡器频率
 80006f8:	20d5      	movs	r0, #213	; 0xd5
 80006fa:	f7ff fec5 	bl	8000488 <OLED_WriteCommand>
	OLED_WriteCommand(0x80);
 80006fe:	2080      	movs	r0, #128	; 0x80
 8000700:	f7ff fec2 	bl	8000488 <OLED_WriteCommand>

	OLED_WriteCommand(0xA8);	//设置多路复用率
 8000704:	20a8      	movs	r0, #168	; 0xa8
 8000706:	f7ff febf 	bl	8000488 <OLED_WriteCommand>
	OLED_WriteCommand(0x3F);
 800070a:	203f      	movs	r0, #63	; 0x3f
 800070c:	f7ff febc 	bl	8000488 <OLED_WriteCommand>

	OLED_WriteCommand(0xD3);	//设置显示偏移
 8000710:	20d3      	movs	r0, #211	; 0xd3
 8000712:	f7ff feb9 	bl	8000488 <OLED_WriteCommand>
	OLED_WriteCommand(0x00);
 8000716:	2000      	movs	r0, #0
 8000718:	f7ff feb6 	bl	8000488 <OLED_WriteCommand>

	OLED_WriteCommand(0x40);	//设置显示开始行
 800071c:	2040      	movs	r0, #64	; 0x40
 800071e:	f7ff feb3 	bl	8000488 <OLED_WriteCommand>

	OLED_WriteCommand(0xA1);	//设置左右方向，0xA1正常 0xA0左右反置
 8000722:	20a1      	movs	r0, #161	; 0xa1
 8000724:	f7ff feb0 	bl	8000488 <OLED_WriteCommand>

	OLED_WriteCommand(0xC8);	//设置上下方向，0xC8正常 0xC0上下反置
 8000728:	20c8      	movs	r0, #200	; 0xc8
 800072a:	f7ff fead 	bl	8000488 <OLED_WriteCommand>

	OLED_WriteCommand(0xDA);	//设置COM引脚硬件配置
 800072e:	20da      	movs	r0, #218	; 0xda
 8000730:	f7ff feaa 	bl	8000488 <OLED_WriteCommand>
	OLED_WriteCommand(0x12);
 8000734:	2012      	movs	r0, #18
 8000736:	f7ff fea7 	bl	8000488 <OLED_WriteCommand>

	OLED_WriteCommand(0x81);	//设置对比度控制
 800073a:	2081      	movs	r0, #129	; 0x81
 800073c:	f7ff fea4 	bl	8000488 <OLED_WriteCommand>
	OLED_WriteCommand(0xCF);
 8000740:	20cf      	movs	r0, #207	; 0xcf
 8000742:	f7ff fea1 	bl	8000488 <OLED_WriteCommand>

	OLED_WriteCommand(0xD9);	//设置预充电周期
 8000746:	20d9      	movs	r0, #217	; 0xd9
 8000748:	f7ff fe9e 	bl	8000488 <OLED_WriteCommand>
	OLED_WriteCommand(0xF1);
 800074c:	20f1      	movs	r0, #241	; 0xf1
 800074e:	f7ff fe9b 	bl	8000488 <OLED_WriteCommand>

	OLED_WriteCommand(0xDB);	//设置VCOMH取消选择级别
 8000752:	20db      	movs	r0, #219	; 0xdb
 8000754:	f7ff fe98 	bl	8000488 <OLED_WriteCommand>
	OLED_WriteCommand(0x30);
 8000758:	2030      	movs	r0, #48	; 0x30
 800075a:	f7ff fe95 	bl	8000488 <OLED_WriteCommand>

	OLED_WriteCommand(0xA4);	//设置整个显示打开/关闭
 800075e:	20a4      	movs	r0, #164	; 0xa4
 8000760:	f7ff fe92 	bl	8000488 <OLED_WriteCommand>

	OLED_WriteCommand(0xA6);	//设置正常/倒转显示
 8000764:	20a6      	movs	r0, #166	; 0xa6
 8000766:	f7ff fe8f 	bl	8000488 <OLED_WriteCommand>

	OLED_WriteCommand(0x8D);	//设置充电泵
 800076a:	208d      	movs	r0, #141	; 0x8d
 800076c:	f7ff fe8c 	bl	8000488 <OLED_WriteCommand>
	OLED_WriteCommand(0x14);
 8000770:	2014      	movs	r0, #20
 8000772:	f7ff fe89 	bl	8000488 <OLED_WriteCommand>

	OLED_WriteCommand(0xAF);	//开启显示
 8000776:	20af      	movs	r0, #175	; 0xaf
 8000778:	f7ff fe86 	bl	8000488 <OLED_WriteCommand>

	OLED_Clear();				//OLED清屏
 800077c:	f7ff fedb 	bl	8000536 <OLED_Clear>
}
 8000780:	bf00      	nop
 8000782:	bd80      	pop	{r7, pc}

08000784 <MX_RTC_Init>:

RTC_HandleTypeDef hrtc;

/* RTC init function */
void MX_RTC_Init(void)
{
 8000784:	b580      	push	{r7, lr}
 8000786:	b082      	sub	sp, #8
 8000788:	af00      	add	r7, sp, #0

  /* USER CODE BEGIN RTC_Init 0 */

  /* USER CODE END RTC_Init 0 */

  RTC_TimeTypeDef sTime = {0};
 800078a:	1d3b      	adds	r3, r7, #4
 800078c:	2100      	movs	r1, #0
 800078e:	460a      	mov	r2, r1
 8000790:	801a      	strh	r2, [r3, #0]
 8000792:	460a      	mov	r2, r1
 8000794:	709a      	strb	r2, [r3, #2]
  RTC_DateTypeDef DateToUpdate = {0};
 8000796:	2300      	movs	r3, #0
 8000798:	603b      	str	r3, [r7, #0]

  /* USER CODE END RTC_Init 1 */

  /** Initialize RTC Only
  */
  hrtc.Instance = RTC;
 800079a:	4b1d      	ldr	r3, [pc, #116]	; (8000810 <MX_RTC_Init+0x8c>)
 800079c:	4a1d      	ldr	r2, [pc, #116]	; (8000814 <MX_RTC_Init+0x90>)
 800079e:	601a      	str	r2, [r3, #0]
  hrtc.Init.AsynchPrediv = RTC_AUTO_1_SECOND;
 80007a0:	4b1b      	ldr	r3, [pc, #108]	; (8000810 <MX_RTC_Init+0x8c>)
 80007a2:	f04f 32ff 	mov.w	r2, #4294967295
 80007a6:	605a      	str	r2, [r3, #4]
  hrtc.Init.OutPut = RTC_OUTPUTSOURCE_NONE;
 80007a8:	4b19      	ldr	r3, [pc, #100]	; (8000810 <MX_RTC_Init+0x8c>)
 80007aa:	2200      	movs	r2, #0
 80007ac:	609a      	str	r2, [r3, #8]
  if (HAL_RTC_Init(&hrtc) != HAL_OK)
 80007ae:	4818      	ldr	r0, [pc, #96]	; (8000810 <MX_RTC_Init+0x8c>)
 80007b0:	f001 fe30 	bl	8002414 <HAL_RTC_Init>
 80007b4:	4603      	mov	r3, r0
 80007b6:	2b00      	cmp	r3, #0
 80007b8:	d001      	beq.n	80007be <MX_RTC_Init+0x3a>
  {
    Error_Handler();
 80007ba:	f7ff fe60 	bl	800047e <Error_Handler>

  /* USER CODE END Check_RTC_BKUP */

  /** Initialize RTC and set the Time and Date
  */
  sTime.Hours = 0x21;
 80007be:	2321      	movs	r3, #33	; 0x21
 80007c0:	713b      	strb	r3, [r7, #4]
  sTime.Minutes = 0x55;
 80007c2:	2355      	movs	r3, #85	; 0x55
 80007c4:	717b      	strb	r3, [r7, #5]
  sTime.Seconds = 0x0;
 80007c6:	2300      	movs	r3, #0
 80007c8:	71bb      	strb	r3, [r7, #6]

  if (HAL_RTC_SetTime(&hrtc, &sTime, RTC_FORMAT_BCD) != HAL_OK)
 80007ca:	1d3b      	adds	r3, r7, #4
 80007cc:	2201      	movs	r2, #1
 80007ce:	4619      	mov	r1, r3
 80007d0:	480f      	ldr	r0, [pc, #60]	; (8000810 <MX_RTC_Init+0x8c>)
 80007d2:	f001 feb5 	bl	8002540 <HAL_RTC_SetTime>
 80007d6:	4603      	mov	r3, r0
 80007d8:	2b00      	cmp	r3, #0
 80007da:	d001      	beq.n	80007e0 <MX_RTC_Init+0x5c>
  {
    Error_Handler();
 80007dc:	f7ff fe4f 	bl	800047e <Error_Handler>
  }
  DateToUpdate.WeekDay = RTC_WEEKDAY_MONDAY;
 80007e0:	2301      	movs	r3, #1
 80007e2:	703b      	strb	r3, [r7, #0]
  DateToUpdate.Month = RTC_MONTH_FEBRUARY;
 80007e4:	2302      	movs	r3, #2
 80007e6:	707b      	strb	r3, [r7, #1]
  DateToUpdate.Date = 0x6;
 80007e8:	2306      	movs	r3, #6
 80007ea:	70bb      	strb	r3, [r7, #2]
  DateToUpdate.Year = 0x23;
 80007ec:	2323      	movs	r3, #35	; 0x23
 80007ee:	70fb      	strb	r3, [r7, #3]

  if (HAL_RTC_SetDate(&hrtc, &DateToUpdate, RTC_FORMAT_BCD) != HAL_OK)
 80007f0:	463b      	mov	r3, r7
 80007f2:	2201      	movs	r2, #1
 80007f4:	4619      	mov	r1, r3
 80007f6:	4806      	ldr	r0, [pc, #24]	; (8000810 <MX_RTC_Init+0x8c>)
 80007f8:	f002 f812 	bl	8002820 <HAL_RTC_SetDate>
 80007fc:	4603      	mov	r3, r0
 80007fe:	2b00      	cmp	r3, #0
 8000800:	d001      	beq.n	8000806 <MX_RTC_Init+0x82>
  {
    Error_Handler();
 8000802:	f7ff fe3c 	bl	800047e <Error_Handler>
  }
  /* USER CODE BEGIN RTC_Init 2 */

  /* USER CODE END RTC_Init 2 */

}
 8000806:	bf00      	nop
 8000808:	3708      	adds	r7, #8
 800080a:	46bd      	mov	sp, r7
 800080c:	bd80      	pop	{r7, pc}
 800080e:	bf00      	nop
 8000810:	2000007c 	.word	0x2000007c
 8000814:	40002800 	.word	0x40002800

08000818 <HAL_RTC_MspInit>:

void HAL_RTC_MspInit(RTC_HandleTypeDef* rtcHandle)
{
 8000818:	b580      	push	{r7, lr}
 800081a:	b084      	sub	sp, #16
 800081c:	af00      	add	r7, sp, #0
 800081e:	6078      	str	r0, [r7, #4]

  if(rtcHandle->Instance==RTC)
 8000820:	687b      	ldr	r3, [r7, #4]
 8000822:	681b      	ldr	r3, [r3, #0]
 8000824:	4a0f      	ldr	r2, [pc, #60]	; (8000864 <HAL_RTC_MspInit+0x4c>)
 8000826:	4293      	cmp	r3, r2
 8000828:	d118      	bne.n	800085c <HAL_RTC_MspInit+0x44>
  {
  /* USER CODE BEGIN RTC_MspInit 0 */

  /* USER CODE END RTC_MspInit 0 */
    HAL_PWR_EnableBkUpAccess();
 800082a:	f001 f833 	bl	8001894 <HAL_PWR_EnableBkUpAccess>
    /* Enable BKP CLK enable for backup registers */
    __HAL_RCC_BKP_CLK_ENABLE();
 800082e:	4b0e      	ldr	r3, [pc, #56]	; (8000868 <HAL_RTC_MspInit+0x50>)
 8000830:	69db      	ldr	r3, [r3, #28]
 8000832:	4a0d      	ldr	r2, [pc, #52]	; (8000868 <HAL_RTC_MspInit+0x50>)
 8000834:	f043 6300 	orr.w	r3, r3, #134217728	; 0x8000000
 8000838:	61d3      	str	r3, [r2, #28]
 800083a:	4b0b      	ldr	r3, [pc, #44]	; (8000868 <HAL_RTC_MspInit+0x50>)
 800083c:	69db      	ldr	r3, [r3, #28]
 800083e:	f003 6300 	and.w	r3, r3, #134217728	; 0x8000000
 8000842:	60fb      	str	r3, [r7, #12]
 8000844:	68fb      	ldr	r3, [r7, #12]
    /* RTC clock enable */
    __HAL_RCC_RTC_ENABLE();
 8000846:	4b09      	ldr	r3, [pc, #36]	; (800086c <HAL_RTC_MspInit+0x54>)
 8000848:	2201      	movs	r2, #1
 800084a:	601a      	str	r2, [r3, #0]

    /* RTC interrupt Init */
    HAL_NVIC_SetPriority(RTC_IRQn, 0, 0);
 800084c:	2200      	movs	r2, #0
 800084e:	2100      	movs	r1, #0
 8000850:	2003      	movs	r0, #3
 8000852:	f000 f9fa 	bl	8000c4a <HAL_NVIC_SetPriority>
    HAL_NVIC_EnableIRQ(RTC_IRQn);
 8000856:	2003      	movs	r0, #3
 8000858:	f000 fa13 	bl	8000c82 <HAL_NVIC_EnableIRQ>
  /* USER CODE BEGIN RTC_MspInit 1 */

  /* USER CODE END RTC_MspInit 1 */
  }
}
 800085c:	bf00      	nop
 800085e:	3710      	adds	r7, #16
 8000860:	46bd      	mov	sp, r7
 8000862:	bd80      	pop	{r7, pc}
 8000864:	40002800 	.word	0x40002800
 8000868:	40021000 	.word	0x40021000
 800086c:	4242043c 	.word	0x4242043c

08000870 <HAL_MspInit>:
/* USER CODE END 0 */
/**
  * Initializes the Global MSP.
  */
void HAL_MspInit(void)
{
 8000870:	b480      	push	{r7}
 8000872:	b085      	sub	sp, #20
 8000874:	af00      	add	r7, sp, #0
  /* USER CODE BEGIN MspInit 0 */

  /* USER CODE END MspInit 0 */

  __HAL_RCC_AFIO_CLK_ENABLE();
 8000876:	4b15      	ldr	r3, [pc, #84]	; (80008cc <HAL_MspInit+0x5c>)
 8000878:	699b      	ldr	r3, [r3, #24]
 800087a:	4a14      	ldr	r2, [pc, #80]	; (80008cc <HAL_MspInit+0x5c>)
 800087c:	f043 0301 	orr.w	r3, r3, #1
 8000880:	6193      	str	r3, [r2, #24]
 8000882:	4b12      	ldr	r3, [pc, #72]	; (80008cc <HAL_MspInit+0x5c>)
 8000884:	699b      	ldr	r3, [r3, #24]
 8000886:	f003 0301 	and.w	r3, r3, #1
 800088a:	60bb      	str	r3, [r7, #8]
 800088c:	68bb      	ldr	r3, [r7, #8]
  __HAL_RCC_PWR_CLK_ENABLE();
 800088e:	4b0f      	ldr	r3, [pc, #60]	; (80008cc <HAL_MspInit+0x5c>)
 8000890:	69db      	ldr	r3, [r3, #28]
 8000892:	4a0e      	ldr	r2, [pc, #56]	; (80008cc <HAL_MspInit+0x5c>)
 8000894:	f043 5380 	orr.w	r3, r3, #268435456	; 0x10000000
 8000898:	61d3      	str	r3, [r2, #28]
 800089a:	4b0c      	ldr	r3, [pc, #48]	; (80008cc <HAL_MspInit+0x5c>)
 800089c:	69db      	ldr	r3, [r3, #28]
 800089e:	f003 5380 	and.w	r3, r3, #268435456	; 0x10000000
 80008a2:	607b      	str	r3, [r7, #4]
 80008a4:	687b      	ldr	r3, [r7, #4]

  /* System interrupt init*/

  /** NOJTAG: JTAG-DP Disabled and SW-DP Enabled
  */
  __HAL_AFIO_REMAP_SWJ_NOJTAG();
 80008a6:	4b0a      	ldr	r3, [pc, #40]	; (80008d0 <HAL_MspInit+0x60>)
 80008a8:	685b      	ldr	r3, [r3, #4]
 80008aa:	60fb      	str	r3, [r7, #12]
 80008ac:	68fb      	ldr	r3, [r7, #12]
 80008ae:	f023 63e0 	bic.w	r3, r3, #117440512	; 0x7000000
 80008b2:	60fb      	str	r3, [r7, #12]
 80008b4:	68fb      	ldr	r3, [r7, #12]
 80008b6:	f043 7300 	orr.w	r3, r3, #33554432	; 0x2000000
 80008ba:	60fb      	str	r3, [r7, #12]
 80008bc:	4a04      	ldr	r2, [pc, #16]	; (80008d0 <HAL_MspInit+0x60>)
 80008be:	68fb      	ldr	r3, [r7, #12]
 80008c0:	6053      	str	r3, [r2, #4]

  /* USER CODE BEGIN MspInit 1 */

  /* USER CODE END MspInit 1 */
}
 80008c2:	bf00      	nop
 80008c4:	3714      	adds	r7, #20
 80008c6:	46bd      	mov	sp, r7
 80008c8:	bc80      	pop	{r7}
 80008ca:	4770      	bx	lr
 80008cc:	40021000 	.word	0x40021000
 80008d0:	40010000 	.word	0x40010000

080008d4 <NMI_Handler>:
/******************************************************************************/
/**
  * @brief This function handles Non maskable interrupt.
  */
void NMI_Handler(void)
{
 80008d4:	b480      	push	{r7}
 80008d6:	af00      	add	r7, sp, #0
  /* USER CODE BEGIN NonMaskableInt_IRQn 0 */

  /* USER CODE END NonMaskableInt_IRQn 0 */
  /* USER CODE BEGIN NonMaskableInt_IRQn 1 */
  while (1)
 80008d8:	e7fe      	b.n	80008d8 <NMI_Handler+0x4>

080008da <HardFault_Handler>:

/**
  * @brief This function handles Hard fault interrupt.
  */
void HardFault_Handler(void)
{
 80008da:	b480      	push	{r7}
 80008dc:	af00      	add	r7, sp, #0
  /* USER CODE BEGIN HardFault_IRQn 0 */

  /* USER CODE END HardFault_IRQn 0 */
  while (1)
 80008de:	e7fe      	b.n	80008de <HardFault_Handler+0x4>

080008e0 <MemManage_Handler>:

/**
  * @brief This function handles Memory management fault.
  */
void MemManage_Handler(void)
{
 80008e0:	b480      	push	{r7}
 80008e2:	af00      	add	r7, sp, #0
  /* USER CODE BEGIN MemoryManagement_IRQn 0 */

  /* USER CODE END MemoryManagement_IRQn 0 */
  while (1)
 80008e4:	e7fe      	b.n	80008e4 <MemManage_Handler+0x4>

080008e6 <BusFault_Handler>:

/**
  * @brief This function handles Prefetch fault, memory access fault.
  */
void BusFault_Handler(void)
{
 80008e6:	b480      	push	{r7}
 80008e8:	af00      	add	r7, sp, #0
  /* USER CODE BEGIN BusFault_IRQn 0 */

  /* USER CODE END BusFault_IRQn 0 */
  while (1)
 80008ea:	e7fe      	b.n	80008ea <BusFault_Handler+0x4>

080008ec <UsageFault_Handler>:

/**
  * @brief This function handles Undefined instruction or illegal state.
  */
void UsageFault_Handler(void)
{
 80008ec:	b480      	push	{r7}
 80008ee:	af00      	add	r7, sp, #0
  /* USER CODE BEGIN UsageFault_IRQn 0 */

  /* USER CODE END UsageFault_IRQn 0 */
  while (1)
 80008f0:	e7fe      	b.n	80008f0 <UsageFault_Handler+0x4>

080008f2 <SVC_Handler>:

/**
  * @brief This function handles System service call via SWI instruction.
  */
void SVC_Handler(void)
{
 80008f2:	b480      	push	{r7}
 80008f4:	af00      	add	r7, sp, #0

  /* USER CODE END SVCall_IRQn 0 */
  /* USER CODE BEGIN SVCall_IRQn 1 */

  /* USER CODE END SVCall_IRQn 1 */
}
 80008f6:	bf00      	nop
 80008f8:	46bd      	mov	sp, r7
 80008fa:	bc80      	pop	{r7}
 80008fc:	4770      	bx	lr

080008fe <DebugMon_Handler>:

/**
  * @brief This function handles Debug monitor.
  */
void DebugMon_Handler(void)
{
 80008fe:	b480      	push	{r7}
 8000900:	af00      	add	r7, sp, #0

  /* USER CODE END DebugMonitor_IRQn 0 */
  /* USER CODE BEGIN DebugMonitor_IRQn 1 */

  /* USER CODE END DebugMonitor_IRQn 1 */
}
 8000902:	bf00      	nop
 8000904:	46bd      	mov	sp, r7
 8000906:	bc80      	pop	{r7}
 8000908:	4770      	bx	lr

0800090a <PendSV_Handler>:

/**
  * @brief This function handles Pendable request for system service.
  */
void PendSV_Handler(void)
{
 800090a:	b480      	push	{r7}
 800090c:	af00      	add	r7, sp, #0

  /* USER CODE END PendSV_IRQn 0 */
  /* USER CODE BEGIN PendSV_IRQn 1 */

  /* USER CODE END PendSV_IRQn 1 */
}
 800090e:	bf00      	nop
 8000910:	46bd      	mov	sp, r7
 8000912:	bc80      	pop	{r7}
 8000914:	4770      	bx	lr

08000916 <SysTick_Handler>:

/**
  * @brief This function handles System tick timer.
  */
void SysTick_Handler(void)
{
 8000916:	b580      	push	{r7, lr}
 8000918:	af00      	add	r7, sp, #0
  /* USER CODE BEGIN SysTick_IRQn 0 */

  /* USER CODE END SysTick_IRQn 0 */
  HAL_IncTick();
 800091a:	f000 f87f 	bl	8000a1c <HAL_IncTick>
  /* USER CODE BEGIN SysTick_IRQn 1 */

  /* USER CODE END SysTick_IRQn 1 */
}
 800091e:	bf00      	nop
 8000920:	bd80      	pop	{r7, pc}
	...

08000924 <RTC_IRQHandler>:

/**
  * @brief This function handles RTC global interrupt.
  */
void RTC_IRQHandler(void)
{
 8000924:	b580      	push	{r7, lr}
 8000926:	af00      	add	r7, sp, #0
  /* USER CODE BEGIN RTC_IRQn 0 */

  /* USER CODE END RTC_IRQn 0 */
  HAL_RTCEx_RTCIRQHandler(&hrtc);
 8000928:	4802      	ldr	r0, [pc, #8]	; (8000934 <RTC_IRQHandler+0x10>)
 800092a:	f002 fad1 	bl	8002ed0 <HAL_RTCEx_RTCIRQHandler>
  /* USER CODE BEGIN RTC_IRQn 1 */

  /* USER CODE END RTC_IRQn 1 */
}
 800092e:	bf00      	nop
 8000930:	bd80      	pop	{r7, pc}
 8000932:	bf00      	nop
 8000934:	2000007c 	.word	0x2000007c

08000938 <SystemInit>:
  * @note   This function should be used only after reset.
  * @param  None
  * @retval None
  */
void SystemInit (void)
{
 8000938:	b480      	push	{r7}
 800093a:	af00      	add	r7, sp, #0

  /* Configure the Vector Table location -------------------------------------*/
#if defined(USER_VECT_TAB_ADDRESS)
  SCB->VTOR = VECT_TAB_BASE_ADDRESS | VECT_TAB_OFFSET; /* Vector Table Relocation in Internal SRAM. */
#endif /* USER_VECT_TAB_ADDRESS */
}
 800093c:	bf00      	nop
 800093e:	46bd      	mov	sp, r7
 8000940:	bc80      	pop	{r7}
 8000942:	4770      	bx	lr

08000944 <Reset_Handler>:
  .weak Reset_Handler
  .type Reset_Handler, %function
Reset_Handler:

/* Copy the data segment initializers from flash to SRAM */
  ldr r0, =_sdata
 8000944:	480c      	ldr	r0, [pc, #48]	; (8000978 <LoopFillZerobss+0x12>)
  ldr r1, =_edata
 8000946:	490d      	ldr	r1, [pc, #52]	; (800097c <LoopFillZerobss+0x16>)
  ldr r2, =_sidata
 8000948:	4a0d      	ldr	r2, [pc, #52]	; (8000980 <LoopFillZerobss+0x1a>)
  movs r3, #0
 800094a:	2300      	movs	r3, #0
  b LoopCopyDataInit
 800094c:	e002      	b.n	8000954 <LoopCopyDataInit>

0800094e <CopyDataInit>:

CopyDataInit:
  ldr r4, [r2, r3]
 800094e:	58d4      	ldr	r4, [r2, r3]
  str r4, [r0, r3]
 8000950:	50c4      	str	r4, [r0, r3]
  adds r3, r3, #4
 8000952:	3304      	adds	r3, #4

08000954 <LoopCopyDataInit>:

LoopCopyDataInit:
  adds r4, r0, r3
 8000954:	18c4      	adds	r4, r0, r3
  cmp r4, r1
 8000956:	428c      	cmp	r4, r1
  bcc CopyDataInit
 8000958:	d3f9      	bcc.n	800094e <CopyDataInit>
  
/* Zero fill the bss segment. */
  ldr r2, =_sbss
 800095a:	4a0a      	ldr	r2, [pc, #40]	; (8000984 <LoopFillZerobss+0x1e>)
  ldr r4, =_ebss
 800095c:	4c0a      	ldr	r4, [pc, #40]	; (8000988 <LoopFillZerobss+0x22>)
  movs r3, #0
 800095e:	2300      	movs	r3, #0
  b LoopFillZerobss
 8000960:	e001      	b.n	8000966 <LoopFillZerobss>

08000962 <FillZerobss>:

FillZerobss:
  str  r3, [r2]
 8000962:	6013      	str	r3, [r2, #0]
  adds r2, r2, #4
 8000964:	3204      	adds	r2, #4

08000966 <LoopFillZerobss>:

LoopFillZerobss:
  cmp r2, r4
 8000966:	42a2      	cmp	r2, r4
  bcc FillZerobss
 8000968:	d3fb      	bcc.n	8000962 <FillZerobss>

/* Call the clock system intitialization function.*/
    bl  SystemInit
 800096a:	f7ff ffe5 	bl	8000938 <SystemInit>
/* Call static constructors */
    bl __libc_init_array
 800096e:	f002 faf9 	bl	8002f64 <__libc_init_array>
/* Call the application's entry point.*/
  bl main
 8000972:	f7ff fcf1 	bl	8000358 <main>
  bx lr
 8000976:	4770      	bx	lr
  ldr r0, =_sdata
 8000978:	20000000 	.word	0x20000000
  ldr r1, =_edata
 800097c:	2000000c 	.word	0x2000000c
  ldr r2, =_sidata
 8000980:	08003604 	.word	0x08003604
  ldr r2, =_sbss
 8000984:	2000000c 	.word	0x2000000c
  ldr r4, =_ebss
 8000988:	20000094 	.word	0x20000094

0800098c <ADC1_2_IRQHandler>:
 * @retval : None
*/
    .section .text.Default_Handler,"ax",%progbits
Default_Handler:
Infinite_Loop:
  b Infinite_Loop
 800098c:	e7fe      	b.n	800098c <ADC1_2_IRQHandler>
	...

08000990 <HAL_Init>:
  *         need to ensure that the SysTick time base is always set to 1 millisecond
  *         to have correct HAL operation.
  * @retval HAL status
  */
HAL_StatusTypeDef HAL_Init(void)
{
 8000990:	b580      	push	{r7, lr}
 8000992:	af00      	add	r7, sp, #0
    defined(STM32F102x6) || defined(STM32F102xB) || \
    defined(STM32F103x6) || defined(STM32F103xB) || defined(STM32F103xE) || defined(STM32F103xG) || \
    defined(STM32F105xC) || defined(STM32F107xC)

  /* Prefetch buffer is not available on value line devices */
  __HAL_FLASH_PREFETCH_BUFFER_ENABLE();
 8000994:	4b08      	ldr	r3, [pc, #32]	; (80009b8 <HAL_Init+0x28>)
 8000996:	681b      	ldr	r3, [r3, #0]
 8000998:	4a07      	ldr	r2, [pc, #28]	; (80009b8 <HAL_Init+0x28>)
 800099a:	f043 0310 	orr.w	r3, r3, #16
 800099e:	6013      	str	r3, [r2, #0]
#endif
#endif /* PREFETCH_ENABLE */

  /* Set Interrupt Group Priority */
  HAL_NVIC_SetPriorityGrouping(NVIC_PRIORITYGROUP_4);
 80009a0:	2003      	movs	r0, #3
 80009a2:	f000 f947 	bl	8000c34 <HAL_NVIC_SetPriorityGrouping>

  /* Use systick as time base source and configure 1ms tick (default clock after Reset is HSI) */
  HAL_InitTick(TICK_INT_PRIORITY);
 80009a6:	200f      	movs	r0, #15
 80009a8:	f000 f808 	bl	80009bc <HAL_InitTick>

  /* Init the low level hardware */
  HAL_MspInit();
 80009ac:	f7ff ff60 	bl	8000870 <HAL_MspInit>

  /* Return function status */
  return HAL_OK;
 80009b0:	2300      	movs	r3, #0
}
 80009b2:	4618      	mov	r0, r3
 80009b4:	bd80      	pop	{r7, pc}
 80009b6:	bf00      	nop
 80009b8:	40022000 	.word	0x40022000

080009bc <HAL_InitTick>:
  *       implementation  in user file.
  * @param TickPriority Tick interrupt priority.
  * @retval HAL status
  */
__weak HAL_StatusTypeDef HAL_InitTick(uint32_t TickPriority)
{
 80009bc:	b580      	push	{r7, lr}
 80009be:	b082      	sub	sp, #8
 80009c0:	af00      	add	r7, sp, #0
 80009c2:	6078      	str	r0, [r7, #4]
  /* Configure the SysTick to have interrupt in 1ms time basis*/
  if (HAL_SYSTICK_Config(SystemCoreClock / (1000U / uwTickFreq)) > 0U)
 80009c4:	4b12      	ldr	r3, [pc, #72]	; (8000a10 <HAL_InitTick+0x54>)
 80009c6:	681a      	ldr	r2, [r3, #0]
 80009c8:	4b12      	ldr	r3, [pc, #72]	; (8000a14 <HAL_InitTick+0x58>)
 80009ca:	781b      	ldrb	r3, [r3, #0]
 80009cc:	4619      	mov	r1, r3
 80009ce:	f44f 737a 	mov.w	r3, #1000	; 0x3e8
 80009d2:	fbb3 f3f1 	udiv	r3, r3, r1
 80009d6:	fbb2 f3f3 	udiv	r3, r2, r3
 80009da:	4618      	mov	r0, r3
 80009dc:	f000 f95f 	bl	8000c9e <HAL_SYSTICK_Config>
 80009e0:	4603      	mov	r3, r0
 80009e2:	2b00      	cmp	r3, #0
 80009e4:	d001      	beq.n	80009ea <HAL_InitTick+0x2e>
  {
    return HAL_ERROR;
 80009e6:	2301      	movs	r3, #1
 80009e8:	e00e      	b.n	8000a08 <HAL_InitTick+0x4c>
  }

  /* Configure the SysTick IRQ priority */
  if (TickPriority < (1UL << __NVIC_PRIO_BITS))
 80009ea:	687b      	ldr	r3, [r7, #4]
 80009ec:	2b0f      	cmp	r3, #15
 80009ee:	d80a      	bhi.n	8000a06 <HAL_InitTick+0x4a>
  {
    HAL_NVIC_SetPriority(SysTick_IRQn, TickPriority, 0U);
 80009f0:	2200      	movs	r2, #0
 80009f2:	6879      	ldr	r1, [r7, #4]
 80009f4:	f04f 30ff 	mov.w	r0, #4294967295
 80009f8:	f000 f927 	bl	8000c4a <HAL_NVIC_SetPriority>
    uwTickPrio = TickPriority;
 80009fc:	4a06      	ldr	r2, [pc, #24]	; (8000a18 <HAL_InitTick+0x5c>)
 80009fe:	687b      	ldr	r3, [r7, #4]
 8000a00:	6013      	str	r3, [r2, #0]
  {
    return HAL_ERROR;
  }

  /* Return function status */
  return HAL_OK;
 8000a02:	2300      	movs	r3, #0
 8000a04:	e000      	b.n	8000a08 <HAL_InitTick+0x4c>
    return HAL_ERROR;
 8000a06:	2301      	movs	r3, #1
}
 8000a08:	4618      	mov	r0, r3
 8000a0a:	3708      	adds	r7, #8
 8000a0c:	46bd      	mov	sp, r7
 8000a0e:	bd80      	pop	{r7, pc}
 8000a10:	20000000 	.word	0x20000000
 8000a14:	20000008 	.word	0x20000008
 8000a18:	20000004 	.word	0x20000004

08000a1c <HAL_IncTick>:
  * @note This function is declared as __weak to be overwritten in case of other
  *      implementations in user file.
  * @retval None
  */
__weak void HAL_IncTick(void)
{
 8000a1c:	b480      	push	{r7}
 8000a1e:	af00      	add	r7, sp, #0
  uwTick += uwTickFreq;
 8000a20:	4b05      	ldr	r3, [pc, #20]	; (8000a38 <HAL_IncTick+0x1c>)
 8000a22:	781b      	ldrb	r3, [r3, #0]
 8000a24:	461a      	mov	r2, r3
 8000a26:	4b05      	ldr	r3, [pc, #20]	; (8000a3c <HAL_IncTick+0x20>)
 8000a28:	681b      	ldr	r3, [r3, #0]
 8000a2a:	4413      	add	r3, r2
 8000a2c:	4a03      	ldr	r2, [pc, #12]	; (8000a3c <HAL_IncTick+0x20>)
 8000a2e:	6013      	str	r3, [r2, #0]
}
 8000a30:	bf00      	nop
 8000a32:	46bd      	mov	sp, r7
 8000a34:	bc80      	pop	{r7}
 8000a36:	4770      	bx	lr
 8000a38:	20000008 	.word	0x20000008
 8000a3c:	20000090 	.word	0x20000090

08000a40 <HAL_GetTick>:
  * @note  This function is declared as __weak to be overwritten in case of other
  *       implementations in user file.
  * @retval tick value
  */
__weak uint32_t HAL_GetTick(void)
{
 8000a40:	b480      	push	{r7}
 8000a42:	af00      	add	r7, sp, #0
  return uwTick;
 8000a44:	4b02      	ldr	r3, [pc, #8]	; (8000a50 <HAL_GetTick+0x10>)
 8000a46:	681b      	ldr	r3, [r3, #0]
}
 8000a48:	4618      	mov	r0, r3
 8000a4a:	46bd      	mov	sp, r7
 8000a4c:	bc80      	pop	{r7}
 8000a4e:	4770      	bx	lr
 8000a50:	20000090 	.word	0x20000090

08000a54 <HAL_Delay>:
  *       implementations in user file.
  * @param Delay specifies the delay time length, in milliseconds.
  * @retval None
  */
__weak void HAL_Delay(uint32_t Delay)
{
 8000a54:	b580      	push	{r7, lr}
 8000a56:	b084      	sub	sp, #16
 8000a58:	af00      	add	r7, sp, #0
 8000a5a:	6078      	str	r0, [r7, #4]
  uint32_t tickstart = HAL_GetTick();
 8000a5c:	f7ff fff0 	bl	8000a40 <HAL_GetTick>
 8000a60:	60b8      	str	r0, [r7, #8]
  uint32_t wait = Delay;
 8000a62:	687b      	ldr	r3, [r7, #4]
 8000a64:	60fb      	str	r3, [r7, #12]

  /* Add a freq to guarantee minimum wait */
  if (wait < HAL_MAX_DELAY)
 8000a66:	68fb      	ldr	r3, [r7, #12]
 8000a68:	f1b3 3fff 	cmp.w	r3, #4294967295
 8000a6c:	d005      	beq.n	8000a7a <HAL_Delay+0x26>
  {
    wait += (uint32_t)(uwTickFreq);
 8000a6e:	4b0a      	ldr	r3, [pc, #40]	; (8000a98 <HAL_Delay+0x44>)
 8000a70:	781b      	ldrb	r3, [r3, #0]
 8000a72:	461a      	mov	r2, r3
 8000a74:	68fb      	ldr	r3, [r7, #12]
 8000a76:	4413      	add	r3, r2
 8000a78:	60fb      	str	r3, [r7, #12]
  }

  while ((HAL_GetTick() - tickstart) < wait)
 8000a7a:	bf00      	nop
 8000a7c:	f7ff ffe0 	bl	8000a40 <HAL_GetTick>
 8000a80:	4602      	mov	r2, r0
 8000a82:	68bb      	ldr	r3, [r7, #8]
 8000a84:	1ad3      	subs	r3, r2, r3
 8000a86:	68fa      	ldr	r2, [r7, #12]
 8000a88:	429a      	cmp	r2, r3
 8000a8a:	d8f7      	bhi.n	8000a7c <HAL_Delay+0x28>
  {
  }
}
 8000a8c:	bf00      	nop
 8000a8e:	bf00      	nop
 8000a90:	3710      	adds	r7, #16
 8000a92:	46bd      	mov	sp, r7
 8000a94:	bd80      	pop	{r7, pc}
 8000a96:	bf00      	nop
 8000a98:	20000008 	.word	0x20000008

08000a9c <__NVIC_SetPriorityGrouping>:
           In case of a conflict between priority grouping and available
           priority bits (__NVIC_PRIO_BITS), the smallest possible priority group is set.
  \param [in]      PriorityGroup  Priority grouping field.
 */
__STATIC_INLINE void __NVIC_SetPriorityGrouping(uint32_t PriorityGroup)
{
 8000a9c:	b480      	push	{r7}
 8000a9e:	b085      	sub	sp, #20
 8000aa0:	af00      	add	r7, sp, #0
 8000aa2:	6078      	str	r0, [r7, #4]
  uint32_t reg_value;
  uint32_t PriorityGroupTmp = (PriorityGroup & (uint32_t)0x07UL);             /* only values 0..7 are used          */
 8000aa4:	687b      	ldr	r3, [r7, #4]
 8000aa6:	f003 0307 	and.w	r3, r3, #7
 8000aaa:	60fb      	str	r3, [r7, #12]

  reg_value  =  SCB->AIRCR;                                                   /* read old register configuration    */
 8000aac:	4b0c      	ldr	r3, [pc, #48]	; (8000ae0 <__NVIC_SetPriorityGrouping+0x44>)
 8000aae:	68db      	ldr	r3, [r3, #12]
 8000ab0:	60bb      	str	r3, [r7, #8]
  reg_value &= ~((uint32_t)(SCB_AIRCR_VECTKEY_Msk | SCB_AIRCR_PRIGROUP_Msk)); /* clear bits to change               */
 8000ab2:	68ba      	ldr	r2, [r7, #8]
 8000ab4:	f64f 03ff 	movw	r3, #63743	; 0xf8ff
 8000ab8:	4013      	ands	r3, r2
 8000aba:	60bb      	str	r3, [r7, #8]
  reg_value  =  (reg_value                                   |
                ((uint32_t)0x5FAUL << SCB_AIRCR_VECTKEY_Pos) |
                (PriorityGroupTmp << SCB_AIRCR_PRIGROUP_Pos) );               /* Insert write key and priority group */
 8000abc:	68fb      	ldr	r3, [r7, #12]
 8000abe:	021a      	lsls	r2, r3, #8
                ((uint32_t)0x5FAUL << SCB_AIRCR_VECTKEY_Pos) |
 8000ac0:	68bb      	ldr	r3, [r7, #8]
 8000ac2:	4313      	orrs	r3, r2
  reg_value  =  (reg_value                                   |
 8000ac4:	f043 63bf 	orr.w	r3, r3, #100139008	; 0x5f80000
 8000ac8:	f443 3300 	orr.w	r3, r3, #131072	; 0x20000
 8000acc:	60bb      	str	r3, [r7, #8]
  SCB->AIRCR =  reg_value;
 8000ace:	4a04      	ldr	r2, [pc, #16]	; (8000ae0 <__NVIC_SetPriorityGrouping+0x44>)
 8000ad0:	68bb      	ldr	r3, [r7, #8]
 8000ad2:	60d3      	str	r3, [r2, #12]
}
 8000ad4:	bf00      	nop
 8000ad6:	3714      	adds	r7, #20
 8000ad8:	46bd      	mov	sp, r7
 8000ada:	bc80      	pop	{r7}
 8000adc:	4770      	bx	lr
 8000ade:	bf00      	nop
 8000ae0:	e000ed00 	.word	0xe000ed00

08000ae4 <__NVIC_GetPriorityGrouping>:
  \brief   Get Priority Grouping
  \details Reads the priority grouping field from the NVIC Interrupt Controller.
  \return                Priority grouping field (SCB->AIRCR [10:8] PRIGROUP field).
 */
__STATIC_INLINE uint32_t __NVIC_GetPriorityGrouping(void)
{
 8000ae4:	b480      	push	{r7}
 8000ae6:	af00      	add	r7, sp, #0
  return ((uint32_t)((SCB->AIRCR & SCB_AIRCR_PRIGROUP_Msk) >> SCB_AIRCR_PRIGROUP_Pos));
 8000ae8:	4b04      	ldr	r3, [pc, #16]	; (8000afc <__NVIC_GetPriorityGrouping+0x18>)
 8000aea:	68db      	ldr	r3, [r3, #12]
 8000aec:	0a1b      	lsrs	r3, r3, #8
 8000aee:	f003 0307 	and.w	r3, r3, #7
}
 8000af2:	4618      	mov	r0, r3
 8000af4:	46bd      	mov	sp, r7
 8000af6:	bc80      	pop	{r7}
 8000af8:	4770      	bx	lr
 8000afa:	bf00      	nop
 8000afc:	e000ed00 	.word	0xe000ed00

08000b00 <__NVIC_EnableIRQ>:
  \details Enables a device specific interrupt in the NVIC interrupt controller.
  \param [in]      IRQn  Device specific interrupt number.
  \note    IRQn must not be negative.
 */
__STATIC_INLINE void __NVIC_EnableIRQ(IRQn_Type IRQn)
{
 8000b00:	b480      	push	{r7}
 8000b02:	b083      	sub	sp, #12
 8000b04:	af00      	add	r7, sp, #0
 8000b06:	4603      	mov	r3, r0
 8000b08:	71fb      	strb	r3, [r7, #7]
  if ((int32_t)(IRQn) >= 0)
 8000b0a:	f997 3007 	ldrsb.w	r3, [r7, #7]
 8000b0e:	2b00      	cmp	r3, #0
 8000b10:	db0b      	blt.n	8000b2a <__NVIC_EnableIRQ+0x2a>
  {
    NVIC->ISER[(((uint32_t)IRQn) >> 5UL)] = (uint32_t)(1UL << (((uint32_t)IRQn) & 0x1FUL));
 8000b12:	79fb      	ldrb	r3, [r7, #7]
 8000b14:	f003 021f 	and.w	r2, r3, #31
 8000b18:	4906      	ldr	r1, [pc, #24]	; (8000b34 <__NVIC_EnableIRQ+0x34>)
 8000b1a:	f997 3007 	ldrsb.w	r3, [r7, #7]
 8000b1e:	095b      	lsrs	r3, r3, #5
 8000b20:	2001      	movs	r0, #1
 8000b22:	fa00 f202 	lsl.w	r2, r0, r2
 8000b26:	f841 2023 	str.w	r2, [r1, r3, lsl #2]
  }
}
 8000b2a:	bf00      	nop
 8000b2c:	370c      	adds	r7, #12
 8000b2e:	46bd      	mov	sp, r7
 8000b30:	bc80      	pop	{r7}
 8000b32:	4770      	bx	lr
 8000b34:	e000e100 	.word	0xe000e100

08000b38 <__NVIC_SetPriority>:
  \param [in]      IRQn  Interrupt number.
  \param [in]  priority  Priority to set.
  \note    The priority cannot be set for every processor exception.
 */
__STATIC_INLINE void __NVIC_SetPriority(IRQn_Type IRQn, uint32_t priority)
{
 8000b38:	b480      	push	{r7}
 8000b3a:	b083      	sub	sp, #12
 8000b3c:	af00      	add	r7, sp, #0
 8000b3e:	4603      	mov	r3, r0
 8000b40:	6039      	str	r1, [r7, #0]
 8000b42:	71fb      	strb	r3, [r7, #7]
  if ((int32_t)(IRQn) >= 0)
 8000b44:	f997 3007 	ldrsb.w	r3, [r7, #7]
 8000b48:	2b00      	cmp	r3, #0
 8000b4a:	db0a      	blt.n	8000b62 <__NVIC_SetPriority+0x2a>
  {
    NVIC->IP[((uint32_t)IRQn)]               = (uint8_t)((priority << (8U - __NVIC_PRIO_BITS)) & (uint32_t)0xFFUL);
 8000b4c:	683b      	ldr	r3, [r7, #0]
 8000b4e:	b2da      	uxtb	r2, r3
 8000b50:	490c      	ldr	r1, [pc, #48]	; (8000b84 <__NVIC_SetPriority+0x4c>)
 8000b52:	f997 3007 	ldrsb.w	r3, [r7, #7]
 8000b56:	0112      	lsls	r2, r2, #4
 8000b58:	b2d2      	uxtb	r2, r2
 8000b5a:	440b      	add	r3, r1
 8000b5c:	f883 2300 	strb.w	r2, [r3, #768]	; 0x300
  }
  else
  {
    SCB->SHP[(((uint32_t)IRQn) & 0xFUL)-4UL] = (uint8_t)((priority << (8U - __NVIC_PRIO_BITS)) & (uint32_t)0xFFUL);
  }
}
 8000b60:	e00a      	b.n	8000b78 <__NVIC_SetPriority+0x40>
    SCB->SHP[(((uint32_t)IRQn) & 0xFUL)-4UL] = (uint8_t)((priority << (8U - __NVIC_PRIO_BITS)) & (uint32_t)0xFFUL);
 8000b62:	683b      	ldr	r3, [r7, #0]
 8000b64:	b2da      	uxtb	r2, r3
 8000b66:	4908      	ldr	r1, [pc, #32]	; (8000b88 <__NVIC_SetPriority+0x50>)
 8000b68:	79fb      	ldrb	r3, [r7, #7]
 8000b6a:	f003 030f 	and.w	r3, r3, #15
 8000b6e:	3b04      	subs	r3, #4
 8000b70:	0112      	lsls	r2, r2, #4
 8000b72:	b2d2      	uxtb	r2, r2
 8000b74:	440b      	add	r3, r1
 8000b76:	761a      	strb	r2, [r3, #24]
}
 8000b78:	bf00      	nop
 8000b7a:	370c      	adds	r7, #12
 8000b7c:	46bd      	mov	sp, r7
 8000b7e:	bc80      	pop	{r7}
 8000b80:	4770      	bx	lr
 8000b82:	bf00      	nop
 8000b84:	e000e100 	.word	0xe000e100
 8000b88:	e000ed00 	.word	0xe000ed00

08000b8c <NVIC_EncodePriority>:
  \param [in]   PreemptPriority  Preemptive priority value (starting from 0).
  \param [in]       SubPriority  Subpriority value (starting from 0).
  \return                        Encoded priority. Value can be used in the function \ref NVIC_SetPriority().
 */
__STATIC_INLINE uint32_t NVIC_EncodePriority (uint32_t PriorityGroup, uint32_t PreemptPriority, uint32_t SubPriority)
{
 8000b8c:	b480      	push	{r7}
 8000b8e:	b089      	sub	sp, #36	; 0x24
 8000b90:	af00      	add	r7, sp, #0
 8000b92:	60f8      	str	r0, [r7, #12]
 8000b94:	60b9      	str	r1, [r7, #8]
 8000b96:	607a      	str	r2, [r7, #4]
  uint32_t PriorityGroupTmp = (PriorityGroup & (uint32_t)0x07UL);   /* only values 0..7 are used          */
 8000b98:	68fb      	ldr	r3, [r7, #12]
 8000b9a:	f003 0307 	and.w	r3, r3, #7
 8000b9e:	61fb      	str	r3, [r7, #28]
  uint32_t PreemptPriorityBits;
  uint32_t SubPriorityBits;

  PreemptPriorityBits = ((7UL - PriorityGroupTmp) > (uint32_t)(__NVIC_PRIO_BITS)) ? (uint32_t)(__NVIC_PRIO_BITS) : (uint32_t)(7UL - PriorityGroupTmp);
 8000ba0:	69fb      	ldr	r3, [r7, #28]
 8000ba2:	f1c3 0307 	rsb	r3, r3, #7
 8000ba6:	2b04      	cmp	r3, #4
 8000ba8:	bf28      	it	cs
 8000baa:	2304      	movcs	r3, #4
 8000bac:	61bb      	str	r3, [r7, #24]
  SubPriorityBits     = ((PriorityGroupTmp + (uint32_t)(__NVIC_PRIO_BITS)) < (uint32_t)7UL) ? (uint32_t)0UL : (uint32_t)((PriorityGroupTmp - 7UL) + (uint32_t)(__NVIC_PRIO_BITS));
 8000bae:	69fb      	ldr	r3, [r7, #28]
 8000bb0:	3304      	adds	r3, #4
 8000bb2:	2b06      	cmp	r3, #6
 8000bb4:	d902      	bls.n	8000bbc <NVIC_EncodePriority+0x30>
 8000bb6:	69fb      	ldr	r3, [r7, #28]
 8000bb8:	3b03      	subs	r3, #3
 8000bba:	e000      	b.n	8000bbe <NVIC_EncodePriority+0x32>
 8000bbc:	2300      	movs	r3, #0
 8000bbe:	617b      	str	r3, [r7, #20]

  return (
           ((PreemptPriority & (uint32_t)((1UL << (PreemptPriorityBits)) - 1UL)) << SubPriorityBits) |
 8000bc0:	f04f 32ff 	mov.w	r2, #4294967295
 8000bc4:	69bb      	ldr	r3, [r7, #24]
 8000bc6:	fa02 f303 	lsl.w	r3, r2, r3
 8000bca:	43da      	mvns	r2, r3
 8000bcc:	68bb      	ldr	r3, [r7, #8]
 8000bce:	401a      	ands	r2, r3
 8000bd0:	697b      	ldr	r3, [r7, #20]
 8000bd2:	409a      	lsls	r2, r3
           ((SubPriority     & (uint32_t)((1UL << (SubPriorityBits    )) - 1UL)))
 8000bd4:	f04f 31ff 	mov.w	r1, #4294967295
 8000bd8:	697b      	ldr	r3, [r7, #20]
 8000bda:	fa01 f303 	lsl.w	r3, r1, r3
 8000bde:	43d9      	mvns	r1, r3
 8000be0:	687b      	ldr	r3, [r7, #4]
 8000be2:	400b      	ands	r3, r1
           ((PreemptPriority & (uint32_t)((1UL << (PreemptPriorityBits)) - 1UL)) << SubPriorityBits) |
 8000be4:	4313      	orrs	r3, r2
         );
}
 8000be6:	4618      	mov	r0, r3
 8000be8:	3724      	adds	r7, #36	; 0x24
 8000bea:	46bd      	mov	sp, r7
 8000bec:	bc80      	pop	{r7}
 8000bee:	4770      	bx	lr

08000bf0 <SysTick_Config>:
  \note    When the variable <b>__Vendor_SysTickConfig</b> is set to 1, then the
           function <b>SysTick_Config</b> is not included. In this case, the file <b><i>device</i>.h</b>
           must contain a vendor-specific implementation of this function.
 */
__STATIC_INLINE uint32_t SysTick_Config(uint32_t ticks)
{
 8000bf0:	b580      	push	{r7, lr}
 8000bf2:	b082      	sub	sp, #8
 8000bf4:	af00      	add	r7, sp, #0
 8000bf6:	6078      	str	r0, [r7, #4]
  if ((ticks - 1UL) > SysTick_LOAD_RELOAD_Msk)
 8000bf8:	687b      	ldr	r3, [r7, #4]
 8000bfa:	3b01      	subs	r3, #1
 8000bfc:	f1b3 7f80 	cmp.w	r3, #16777216	; 0x1000000
 8000c00:	d301      	bcc.n	8000c06 <SysTick_Config+0x16>
  {
    return (1UL);                                                   /* Reload value impossible */
 8000c02:	2301      	movs	r3, #1
 8000c04:	e00f      	b.n	8000c26 <SysTick_Config+0x36>
  }

  SysTick->LOAD  = (uint32_t)(ticks - 1UL);                         /* set reload register */
 8000c06:	4a0a      	ldr	r2, [pc, #40]	; (8000c30 <SysTick_Config+0x40>)
 8000c08:	687b      	ldr	r3, [r7, #4]
 8000c0a:	3b01      	subs	r3, #1
 8000c0c:	6053      	str	r3, [r2, #4]
  NVIC_SetPriority (SysTick_IRQn, (1UL << __NVIC_PRIO_BITS) - 1UL); /* set Priority for Systick Interrupt */
 8000c0e:	210f      	movs	r1, #15
 8000c10:	f04f 30ff 	mov.w	r0, #4294967295
 8000c14:	f7ff ff90 	bl	8000b38 <__NVIC_SetPriority>
  SysTick->VAL   = 0UL;                                             /* Load the SysTick Counter Value */
 8000c18:	4b05      	ldr	r3, [pc, #20]	; (8000c30 <SysTick_Config+0x40>)
 8000c1a:	2200      	movs	r2, #0
 8000c1c:	609a      	str	r2, [r3, #8]
  SysTick->CTRL  = SysTick_CTRL_CLKSOURCE_Msk |
 8000c1e:	4b04      	ldr	r3, [pc, #16]	; (8000c30 <SysTick_Config+0x40>)
 8000c20:	2207      	movs	r2, #7
 8000c22:	601a      	str	r2, [r3, #0]
                   SysTick_CTRL_TICKINT_Msk   |
                   SysTick_CTRL_ENABLE_Msk;                         /* Enable SysTick IRQ and SysTick Timer */
  return (0UL);                                                     /* Function successful */
 8000c24:	2300      	movs	r3, #0
}
 8000c26:	4618      	mov	r0, r3
 8000c28:	3708      	adds	r7, #8
 8000c2a:	46bd      	mov	sp, r7
 8000c2c:	bd80      	pop	{r7, pc}
 8000c2e:	bf00      	nop
 8000c30:	e000e010 	.word	0xe000e010

08000c34 <HAL_NVIC_SetPriorityGrouping>:
  * @note   When the NVIC_PriorityGroup_0 is selected, IRQ preemption is no more possible. 
  *         The pending IRQ priority will be managed only by the subpriority. 
  * @retval None
  */
void HAL_NVIC_SetPriorityGrouping(uint32_t PriorityGroup)
{
 8000c34:	b580      	push	{r7, lr}
 8000c36:	b082      	sub	sp, #8
 8000c38:	af00      	add	r7, sp, #0
 8000c3a:	6078      	str	r0, [r7, #4]
  /* Check the parameters */
  assert_param(IS_NVIC_PRIORITY_GROUP(PriorityGroup));
  
  /* Set the PRIGROUP[10:8] bits according to the PriorityGroup parameter value */
  NVIC_SetPriorityGrouping(PriorityGroup);
 8000c3c:	6878      	ldr	r0, [r7, #4]
 8000c3e:	f7ff ff2d 	bl	8000a9c <__NVIC_SetPriorityGrouping>
}
 8000c42:	bf00      	nop
 8000c44:	3708      	adds	r7, #8
 8000c46:	46bd      	mov	sp, r7
 8000c48:	bd80      	pop	{r7, pc}

08000c4a <HAL_NVIC_SetPriority>:
  *         This parameter can be a value between 0 and 15
  *         A lower priority value indicates a higher priority.          
  * @retval None
  */
void HAL_NVIC_SetPriority(IRQn_Type IRQn, uint32_t PreemptPriority, uint32_t SubPriority)
{ 
 8000c4a:	b580      	push	{r7, lr}
 8000c4c:	b086      	sub	sp, #24
 8000c4e:	af00      	add	r7, sp, #0
 8000c50:	4603      	mov	r3, r0
 8000c52:	60b9      	str	r1, [r7, #8]
 8000c54:	607a      	str	r2, [r7, #4]
 8000c56:	73fb      	strb	r3, [r7, #15]
  uint32_t prioritygroup = 0x00U;
 8000c58:	2300      	movs	r3, #0
 8000c5a:	617b      	str	r3, [r7, #20]
  
  /* Check the parameters */
  assert_param(IS_NVIC_SUB_PRIORITY(SubPriority));
  assert_param(IS_NVIC_PREEMPTION_PRIORITY(PreemptPriority));
  
  prioritygroup = NVIC_GetPriorityGrouping();
 8000c5c:	f7ff ff42 	bl	8000ae4 <__NVIC_GetPriorityGrouping>
 8000c60:	6178      	str	r0, [r7, #20]
  
  NVIC_SetPriority(IRQn, NVIC_EncodePriority(prioritygroup, PreemptPriority, SubPriority));
 8000c62:	687a      	ldr	r2, [r7, #4]
 8000c64:	68b9      	ldr	r1, [r7, #8]
 8000c66:	6978      	ldr	r0, [r7, #20]
 8000c68:	f7ff ff90 	bl	8000b8c <NVIC_EncodePriority>
 8000c6c:	4602      	mov	r2, r0
 8000c6e:	f997 300f 	ldrsb.w	r3, [r7, #15]
 8000c72:	4611      	mov	r1, r2
 8000c74:	4618      	mov	r0, r3
 8000c76:	f7ff ff5f 	bl	8000b38 <__NVIC_SetPriority>
}
 8000c7a:	bf00      	nop
 8000c7c:	3718      	adds	r7, #24
 8000c7e:	46bd      	mov	sp, r7
 8000c80:	bd80      	pop	{r7, pc}

08000c82 <HAL_NVIC_EnableIRQ>:
  *         This parameter can be an enumerator of IRQn_Type enumeration
  *         (For the complete STM32 Devices IRQ Channels list, please refer to the appropriate CMSIS device file (stm32f10xxx.h))
  * @retval None
  */
void HAL_NVIC_EnableIRQ(IRQn_Type IRQn)
{
 8000c82:	b580      	push	{r7, lr}
 8000c84:	b082      	sub	sp, #8
 8000c86:	af00      	add	r7, sp, #0
 8000c88:	4603      	mov	r3, r0
 8000c8a:	71fb      	strb	r3, [r7, #7]
  /* Check the parameters */
  assert_param(IS_NVIC_DEVICE_IRQ(IRQn));

  /* Enable interrupt */
  NVIC_EnableIRQ(IRQn);
 8000c8c:	f997 3007 	ldrsb.w	r3, [r7, #7]
 8000c90:	4618      	mov	r0, r3
 8000c92:	f7ff ff35 	bl	8000b00 <__NVIC_EnableIRQ>
}
 8000c96:	bf00      	nop
 8000c98:	3708      	adds	r7, #8
 8000c9a:	46bd      	mov	sp, r7
 8000c9c:	bd80      	pop	{r7, pc}

08000c9e <HAL_SYSTICK_Config>:
  * @param  TicksNumb: Specifies the ticks Number of ticks between two interrupts.
  * @retval status:  - 0  Function succeeded.
  *                  - 1  Function failed.
  */
uint32_t HAL_SYSTICK_Config(uint32_t TicksNumb)
{
 8000c9e:	b580      	push	{r7, lr}
 8000ca0:	b082      	sub	sp, #8
 8000ca2:	af00      	add	r7, sp, #0
 8000ca4:	6078      	str	r0, [r7, #4]
   return SysTick_Config(TicksNumb);
 8000ca6:	6878      	ldr	r0, [r7, #4]
 8000ca8:	f7ff ffa2 	bl	8000bf0 <SysTick_Config>
 8000cac:	4603      	mov	r3, r0
}
 8000cae:	4618      	mov	r0, r3
 8000cb0:	3708      	adds	r7, #8
 8000cb2:	46bd      	mov	sp, r7
 8000cb4:	bd80      	pop	{r7, pc}
	...

08000cb8 <HAL_GPIO_Init>:
  * @param  GPIO_Init: pointer to a GPIO_InitTypeDef structure that contains
  *         the configuration information for the specified GPIO peripheral.
  * @retval None
  */
void HAL_GPIO_Init(GPIO_TypeDef  *GPIOx, GPIO_InitTypeDef *GPIO_Init)
{
 8000cb8:	b480      	push	{r7}
 8000cba:	b08b      	sub	sp, #44	; 0x2c
 8000cbc:	af00      	add	r7, sp, #0
 8000cbe:	6078      	str	r0, [r7, #4]
 8000cc0:	6039      	str	r1, [r7, #0]
  uint32_t position = 0x00u;
 8000cc2:	2300      	movs	r3, #0
 8000cc4:	627b      	str	r3, [r7, #36]	; 0x24
  uint32_t ioposition;
  uint32_t iocurrent;
  uint32_t temp;
  uint32_t config = 0x00u;
 8000cc6:	2300      	movs	r3, #0
 8000cc8:	623b      	str	r3, [r7, #32]
  assert_param(IS_GPIO_ALL_INSTANCE(GPIOx));
  assert_param(IS_GPIO_PIN(GPIO_Init->Pin));
  assert_param(IS_GPIO_MODE(GPIO_Init->Mode));

  /* Configure the port pins */
  while (((GPIO_Init->Pin) >> position) != 0x00u)
 8000cca:	e179      	b.n	8000fc0 <HAL_GPIO_Init+0x308>
  {
    /* Get the IO position */
    ioposition = (0x01uL << position);
 8000ccc:	2201      	movs	r2, #1
 8000cce:	6a7b      	ldr	r3, [r7, #36]	; 0x24
 8000cd0:	fa02 f303 	lsl.w	r3, r2, r3
 8000cd4:	61fb      	str	r3, [r7, #28]

    /* Get the current IO position */
    iocurrent = (uint32_t)(GPIO_Init->Pin) & ioposition;
 8000cd6:	683b      	ldr	r3, [r7, #0]
 8000cd8:	681b      	ldr	r3, [r3, #0]
 8000cda:	69fa      	ldr	r2, [r7, #28]
 8000cdc:	4013      	ands	r3, r2
 8000cde:	61bb      	str	r3, [r7, #24]

    if (iocurrent == ioposition)
 8000ce0:	69ba      	ldr	r2, [r7, #24]
 8000ce2:	69fb      	ldr	r3, [r7, #28]
 8000ce4:	429a      	cmp	r2, r3
 8000ce6:	f040 8168 	bne.w	8000fba <HAL_GPIO_Init+0x302>
    {
      /* Check the Alternate function parameters */
      assert_param(IS_GPIO_AF_INSTANCE(GPIOx));

      /* Based on the required mode, filling config variable with MODEy[1:0] and CNFy[3:2] corresponding bits */
      switch (GPIO_Init->Mode)
 8000cea:	683b      	ldr	r3, [r7, #0]
 8000cec:	685b      	ldr	r3, [r3, #4]
 8000cee:	4a96      	ldr	r2, [pc, #600]	; (8000f48 <HAL_GPIO_Init+0x290>)
 8000cf0:	4293      	cmp	r3, r2
 8000cf2:	d05e      	beq.n	8000db2 <HAL_GPIO_Init+0xfa>
 8000cf4:	4a94      	ldr	r2, [pc, #592]	; (8000f48 <HAL_GPIO_Init+0x290>)
 8000cf6:	4293      	cmp	r3, r2
 8000cf8:	d875      	bhi.n	8000de6 <HAL_GPIO_Init+0x12e>
 8000cfa:	4a94      	ldr	r2, [pc, #592]	; (8000f4c <HAL_GPIO_Init+0x294>)
 8000cfc:	4293      	cmp	r3, r2
 8000cfe:	d058      	beq.n	8000db2 <HAL_GPIO_Init+0xfa>
 8000d00:	4a92      	ldr	r2, [pc, #584]	; (8000f4c <HAL_GPIO_Init+0x294>)
 8000d02:	4293      	cmp	r3, r2
 8000d04:	d86f      	bhi.n	8000de6 <HAL_GPIO_Init+0x12e>
 8000d06:	4a92      	ldr	r2, [pc, #584]	; (8000f50 <HAL_GPIO_Init+0x298>)
 8000d08:	4293      	cmp	r3, r2
 8000d0a:	d052      	beq.n	8000db2 <HAL_GPIO_Init+0xfa>
 8000d0c:	4a90      	ldr	r2, [pc, #576]	; (8000f50 <HAL_GPIO_Init+0x298>)
 8000d0e:	4293      	cmp	r3, r2
 8000d10:	d869      	bhi.n	8000de6 <HAL_GPIO_Init+0x12e>
 8000d12:	4a90      	ldr	r2, [pc, #576]	; (8000f54 <HAL_GPIO_Init+0x29c>)
 8000d14:	4293      	cmp	r3, r2
 8000d16:	d04c      	beq.n	8000db2 <HAL_GPIO_Init+0xfa>
 8000d18:	4a8e      	ldr	r2, [pc, #568]	; (8000f54 <HAL_GPIO_Init+0x29c>)
 8000d1a:	4293      	cmp	r3, r2
 8000d1c:	d863      	bhi.n	8000de6 <HAL_GPIO_Init+0x12e>
 8000d1e:	4a8e      	ldr	r2, [pc, #568]	; (8000f58 <HAL_GPIO_Init+0x2a0>)
 8000d20:	4293      	cmp	r3, r2
 8000d22:	d046      	beq.n	8000db2 <HAL_GPIO_Init+0xfa>
 8000d24:	4a8c      	ldr	r2, [pc, #560]	; (8000f58 <HAL_GPIO_Init+0x2a0>)
 8000d26:	4293      	cmp	r3, r2
 8000d28:	d85d      	bhi.n	8000de6 <HAL_GPIO_Init+0x12e>
 8000d2a:	2b12      	cmp	r3, #18
 8000d2c:	d82a      	bhi.n	8000d84 <HAL_GPIO_Init+0xcc>
 8000d2e:	2b12      	cmp	r3, #18
 8000d30:	d859      	bhi.n	8000de6 <HAL_GPIO_Init+0x12e>
 8000d32:	a201      	add	r2, pc, #4	; (adr r2, 8000d38 <HAL_GPIO_Init+0x80>)
 8000d34:	f852 f023 	ldr.w	pc, [r2, r3, lsl #2]
 8000d38:	08000db3 	.word	0x08000db3
 8000d3c:	08000d8d 	.word	0x08000d8d
 8000d40:	08000d9f 	.word	0x08000d9f
 8000d44:	08000de1 	.word	0x08000de1
 8000d48:	08000de7 	.word	0x08000de7
 8000d4c:	08000de7 	.word	0x08000de7
 8000d50:	08000de7 	.word	0x08000de7
 8000d54:	08000de7 	.word	0x08000de7
 8000d58:	08000de7 	.word	0x08000de7
 8000d5c:	08000de7 	.word	0x08000de7
 8000d60:	08000de7 	.word	0x08000de7
 8000d64:	08000de7 	.word	0x08000de7
 8000d68:	08000de7 	.word	0x08000de7
 8000d6c:	08000de7 	.word	0x08000de7
 8000d70:	08000de7 	.word	0x08000de7
 8000d74:	08000de7 	.word	0x08000de7
 8000d78:	08000de7 	.word	0x08000de7
 8000d7c:	08000d95 	.word	0x08000d95
 8000d80:	08000da9 	.word	0x08000da9
 8000d84:	4a75      	ldr	r2, [pc, #468]	; (8000f5c <HAL_GPIO_Init+0x2a4>)
 8000d86:	4293      	cmp	r3, r2
 8000d88:	d013      	beq.n	8000db2 <HAL_GPIO_Init+0xfa>
          config = GPIO_CR_MODE_INPUT + GPIO_CR_CNF_ANALOG;
          break;

        /* Parameters are checked with assert_param */
        default:
          break;
 8000d8a:	e02c      	b.n	8000de6 <HAL_GPIO_Init+0x12e>
          config = GPIO_Init->Speed + GPIO_CR_CNF_GP_OUTPUT_PP;
 8000d8c:	683b      	ldr	r3, [r7, #0]
 8000d8e:	68db      	ldr	r3, [r3, #12]
 8000d90:	623b      	str	r3, [r7, #32]
          break;
 8000d92:	e029      	b.n	8000de8 <HAL_GPIO_Init+0x130>
          config = GPIO_Init->Speed + GPIO_CR_CNF_GP_OUTPUT_OD;
 8000d94:	683b      	ldr	r3, [r7, #0]
 8000d96:	68db      	ldr	r3, [r3, #12]
 8000d98:	3304      	adds	r3, #4
 8000d9a:	623b      	str	r3, [r7, #32]
          break;
 8000d9c:	e024      	b.n	8000de8 <HAL_GPIO_Init+0x130>
          config = GPIO_Init->Speed + GPIO_CR_CNF_AF_OUTPUT_PP;
 8000d9e:	683b      	ldr	r3, [r7, #0]
 8000da0:	68db      	ldr	r3, [r3, #12]
 8000da2:	3308      	adds	r3, #8
 8000da4:	623b      	str	r3, [r7, #32]
          break;
 8000da6:	e01f      	b.n	8000de8 <HAL_GPIO_Init+0x130>
          config = GPIO_Init->Speed + GPIO_CR_CNF_AF_OUTPUT_OD;
 8000da8:	683b      	ldr	r3, [r7, #0]
 8000daa:	68db      	ldr	r3, [r3, #12]
 8000dac:	330c      	adds	r3, #12
 8000dae:	623b      	str	r3, [r7, #32]
          break;
 8000db0:	e01a      	b.n	8000de8 <HAL_GPIO_Init+0x130>
          if (GPIO_Init->Pull == GPIO_NOPULL)
 8000db2:	683b      	ldr	r3, [r7, #0]
 8000db4:	689b      	ldr	r3, [r3, #8]
 8000db6:	2b00      	cmp	r3, #0
 8000db8:	d102      	bne.n	8000dc0 <HAL_GPIO_Init+0x108>
            config = GPIO_CR_MODE_INPUT + GPIO_CR_CNF_INPUT_FLOATING;
 8000dba:	2304      	movs	r3, #4
 8000dbc:	623b      	str	r3, [r7, #32]
          break;
 8000dbe:	e013      	b.n	8000de8 <HAL_GPIO_Init+0x130>
          else if (GPIO_Init->Pull == GPIO_PULLUP)
 8000dc0:	683b      	ldr	r3, [r7, #0]
 8000dc2:	689b      	ldr	r3, [r3, #8]
 8000dc4:	2b01      	cmp	r3, #1
 8000dc6:	d105      	bne.n	8000dd4 <HAL_GPIO_Init+0x11c>
            config = GPIO_CR_MODE_INPUT + GPIO_CR_CNF_INPUT_PU_PD;
 8000dc8:	2308      	movs	r3, #8
 8000dca:	623b      	str	r3, [r7, #32]
            GPIOx->BSRR = ioposition;
 8000dcc:	687b      	ldr	r3, [r7, #4]
 8000dce:	69fa      	ldr	r2, [r7, #28]
 8000dd0:	611a      	str	r2, [r3, #16]
          break;
 8000dd2:	e009      	b.n	8000de8 <HAL_GPIO_Init+0x130>
            config = GPIO_CR_MODE_INPUT + GPIO_CR_CNF_INPUT_PU_PD;
 8000dd4:	2308      	movs	r3, #8
 8000dd6:	623b      	str	r3, [r7, #32]
            GPIOx->BRR = ioposition;
 8000dd8:	687b      	ldr	r3, [r7, #4]
 8000dda:	69fa      	ldr	r2, [r7, #28]
 8000ddc:	615a      	str	r2, [r3, #20]
          break;
 8000dde:	e003      	b.n	8000de8 <HAL_GPIO_Init+0x130>
          config = GPIO_CR_MODE_INPUT + GPIO_CR_CNF_ANALOG;
 8000de0:	2300      	movs	r3, #0
 8000de2:	623b      	str	r3, [r7, #32]
          break;
 8000de4:	e000      	b.n	8000de8 <HAL_GPIO_Init+0x130>
          break;
 8000de6:	bf00      	nop
      }

      /* Check if the current bit belongs to first half or last half of the pin count number
       in order to address CRH or CRL register*/
      configregister = (iocurrent < GPIO_PIN_8) ? &GPIOx->CRL     : &GPIOx->CRH;
 8000de8:	69bb      	ldr	r3, [r7, #24]
 8000dea:	2bff      	cmp	r3, #255	; 0xff
 8000dec:	d801      	bhi.n	8000df2 <HAL_GPIO_Init+0x13a>
 8000dee:	687b      	ldr	r3, [r7, #4]
 8000df0:	e001      	b.n	8000df6 <HAL_GPIO_Init+0x13e>
 8000df2:	687b      	ldr	r3, [r7, #4]
 8000df4:	3304      	adds	r3, #4
 8000df6:	617b      	str	r3, [r7, #20]
      registeroffset = (iocurrent < GPIO_PIN_8) ? (position << 2u) : ((position - 8u) << 2u);
 8000df8:	69bb      	ldr	r3, [r7, #24]
 8000dfa:	2bff      	cmp	r3, #255	; 0xff
 8000dfc:	d802      	bhi.n	8000e04 <HAL_GPIO_Init+0x14c>
 8000dfe:	6a7b      	ldr	r3, [r7, #36]	; 0x24
 8000e00:	009b      	lsls	r3, r3, #2
 8000e02:	e002      	b.n	8000e0a <HAL_GPIO_Init+0x152>
 8000e04:	6a7b      	ldr	r3, [r7, #36]	; 0x24
 8000e06:	3b08      	subs	r3, #8
 8000e08:	009b      	lsls	r3, r3, #2
 8000e0a:	613b      	str	r3, [r7, #16]

      /* Apply the new configuration of the pin to the register */
      MODIFY_REG((*configregister), ((GPIO_CRL_MODE0 | GPIO_CRL_CNF0) << registeroffset), (config << registeroffset));
 8000e0c:	697b      	ldr	r3, [r7, #20]
 8000e0e:	681a      	ldr	r2, [r3, #0]
 8000e10:	210f      	movs	r1, #15
 8000e12:	693b      	ldr	r3, [r7, #16]
 8000e14:	fa01 f303 	lsl.w	r3, r1, r3
 8000e18:	43db      	mvns	r3, r3
 8000e1a:	401a      	ands	r2, r3
 8000e1c:	6a39      	ldr	r1, [r7, #32]
 8000e1e:	693b      	ldr	r3, [r7, #16]
 8000e20:	fa01 f303 	lsl.w	r3, r1, r3
 8000e24:	431a      	orrs	r2, r3
 8000e26:	697b      	ldr	r3, [r7, #20]
 8000e28:	601a      	str	r2, [r3, #0]

      /*--------------------- EXTI Mode Configuration ------------------------*/
      /* Configure the External Interrupt or event for the current IO */
      if ((GPIO_Init->Mode & EXTI_MODE) == EXTI_MODE)
 8000e2a:	683b      	ldr	r3, [r7, #0]
 8000e2c:	685b      	ldr	r3, [r3, #4]
 8000e2e:	f003 5380 	and.w	r3, r3, #268435456	; 0x10000000
 8000e32:	2b00      	cmp	r3, #0
 8000e34:	f000 80c1 	beq.w	8000fba <HAL_GPIO_Init+0x302>
      {
        /* Enable AFIO Clock */
        __HAL_RCC_AFIO_CLK_ENABLE();
 8000e38:	4b49      	ldr	r3, [pc, #292]	; (8000f60 <HAL_GPIO_Init+0x2a8>)
 8000e3a:	699b      	ldr	r3, [r3, #24]
 8000e3c:	4a48      	ldr	r2, [pc, #288]	; (8000f60 <HAL_GPIO_Init+0x2a8>)
 8000e3e:	f043 0301 	orr.w	r3, r3, #1
 8000e42:	6193      	str	r3, [r2, #24]
 8000e44:	4b46      	ldr	r3, [pc, #280]	; (8000f60 <HAL_GPIO_Init+0x2a8>)
 8000e46:	699b      	ldr	r3, [r3, #24]
 8000e48:	f003 0301 	and.w	r3, r3, #1
 8000e4c:	60bb      	str	r3, [r7, #8]
 8000e4e:	68bb      	ldr	r3, [r7, #8]
        temp = AFIO->EXTICR[position >> 2u];
 8000e50:	4a44      	ldr	r2, [pc, #272]	; (8000f64 <HAL_GPIO_Init+0x2ac>)
 8000e52:	6a7b      	ldr	r3, [r7, #36]	; 0x24
 8000e54:	089b      	lsrs	r3, r3, #2
 8000e56:	3302      	adds	r3, #2
 8000e58:	f852 3023 	ldr.w	r3, [r2, r3, lsl #2]
 8000e5c:	60fb      	str	r3, [r7, #12]
        CLEAR_BIT(temp, (0x0Fu) << (4u * (position & 0x03u)));
 8000e5e:	6a7b      	ldr	r3, [r7, #36]	; 0x24
 8000e60:	f003 0303 	and.w	r3, r3, #3
 8000e64:	009b      	lsls	r3, r3, #2
 8000e66:	220f      	movs	r2, #15
 8000e68:	fa02 f303 	lsl.w	r3, r2, r3
 8000e6c:	43db      	mvns	r3, r3
 8000e6e:	68fa      	ldr	r2, [r7, #12]
 8000e70:	4013      	ands	r3, r2
 8000e72:	60fb      	str	r3, [r7, #12]
        SET_BIT(temp, (GPIO_GET_INDEX(GPIOx)) << (4u * (position & 0x03u)));
 8000e74:	687b      	ldr	r3, [r7, #4]
 8000e76:	4a3c      	ldr	r2, [pc, #240]	; (8000f68 <HAL_GPIO_Init+0x2b0>)
 8000e78:	4293      	cmp	r3, r2
 8000e7a:	d01f      	beq.n	8000ebc <HAL_GPIO_Init+0x204>
 8000e7c:	687b      	ldr	r3, [r7, #4]
 8000e7e:	4a3b      	ldr	r2, [pc, #236]	; (8000f6c <HAL_GPIO_Init+0x2b4>)
 8000e80:	4293      	cmp	r3, r2
 8000e82:	d019      	beq.n	8000eb8 <HAL_GPIO_Init+0x200>
 8000e84:	687b      	ldr	r3, [r7, #4]
 8000e86:	4a3a      	ldr	r2, [pc, #232]	; (8000f70 <HAL_GPIO_Init+0x2b8>)
 8000e88:	4293      	cmp	r3, r2
 8000e8a:	d013      	beq.n	8000eb4 <HAL_GPIO_Init+0x1fc>
 8000e8c:	687b      	ldr	r3, [r7, #4]
 8000e8e:	4a39      	ldr	r2, [pc, #228]	; (8000f74 <HAL_GPIO_Init+0x2bc>)
 8000e90:	4293      	cmp	r3, r2
 8000e92:	d00d      	beq.n	8000eb0 <HAL_GPIO_Init+0x1f8>
 8000e94:	687b      	ldr	r3, [r7, #4]
 8000e96:	4a38      	ldr	r2, [pc, #224]	; (8000f78 <HAL_GPIO_Init+0x2c0>)
 8000e98:	4293      	cmp	r3, r2
 8000e9a:	d007      	beq.n	8000eac <HAL_GPIO_Init+0x1f4>
 8000e9c:	687b      	ldr	r3, [r7, #4]
 8000e9e:	4a37      	ldr	r2, [pc, #220]	; (8000f7c <HAL_GPIO_Init+0x2c4>)
 8000ea0:	4293      	cmp	r3, r2
 8000ea2:	d101      	bne.n	8000ea8 <HAL_GPIO_Init+0x1f0>
 8000ea4:	2305      	movs	r3, #5
 8000ea6:	e00a      	b.n	8000ebe <HAL_GPIO_Init+0x206>
 8000ea8:	2306      	movs	r3, #6
 8000eaa:	e008      	b.n	8000ebe <HAL_GPIO_Init+0x206>
 8000eac:	2304      	movs	r3, #4
 8000eae:	e006      	b.n	8000ebe <HAL_GPIO_Init+0x206>
 8000eb0:	2303      	movs	r3, #3
 8000eb2:	e004      	b.n	8000ebe <HAL_GPIO_Init+0x206>
 8000eb4:	2302      	movs	r3, #2
 8000eb6:	e002      	b.n	8000ebe <HAL_GPIO_Init+0x206>
 8000eb8:	2301      	movs	r3, #1
 8000eba:	e000      	b.n	8000ebe <HAL_GPIO_Init+0x206>
 8000ebc:	2300      	movs	r3, #0
 8000ebe:	6a7a      	ldr	r2, [r7, #36]	; 0x24
 8000ec0:	f002 0203 	and.w	r2, r2, #3
 8000ec4:	0092      	lsls	r2, r2, #2
 8000ec6:	4093      	lsls	r3, r2
 8000ec8:	68fa      	ldr	r2, [r7, #12]
 8000eca:	4313      	orrs	r3, r2
 8000ecc:	60fb      	str	r3, [r7, #12]
        AFIO->EXTICR[position >> 2u] = temp;
 8000ece:	4925      	ldr	r1, [pc, #148]	; (8000f64 <HAL_GPIO_Init+0x2ac>)
 8000ed0:	6a7b      	ldr	r3, [r7, #36]	; 0x24
 8000ed2:	089b      	lsrs	r3, r3, #2
 8000ed4:	3302      	adds	r3, #2
 8000ed6:	68fa      	ldr	r2, [r7, #12]
 8000ed8:	f841 2023 	str.w	r2, [r1, r3, lsl #2]


        /* Configure the interrupt mask */
        if ((GPIO_Init->Mode & GPIO_MODE_IT) == GPIO_MODE_IT)
 8000edc:	683b      	ldr	r3, [r7, #0]
 8000ede:	685b      	ldr	r3, [r3, #4]
 8000ee0:	f403 3380 	and.w	r3, r3, #65536	; 0x10000
 8000ee4:	2b00      	cmp	r3, #0
 8000ee6:	d006      	beq.n	8000ef6 <HAL_GPIO_Init+0x23e>
        {
          SET_BIT(EXTI->IMR, iocurrent);
 8000ee8:	4b25      	ldr	r3, [pc, #148]	; (8000f80 <HAL_GPIO_Init+0x2c8>)
 8000eea:	681a      	ldr	r2, [r3, #0]
 8000eec:	4924      	ldr	r1, [pc, #144]	; (8000f80 <HAL_GPIO_Init+0x2c8>)
 8000eee:	69bb      	ldr	r3, [r7, #24]
 8000ef0:	4313      	orrs	r3, r2
 8000ef2:	600b      	str	r3, [r1, #0]
 8000ef4:	e006      	b.n	8000f04 <HAL_GPIO_Init+0x24c>
        }
        else
        {
          CLEAR_BIT(EXTI->IMR, iocurrent);
 8000ef6:	4b22      	ldr	r3, [pc, #136]	; (8000f80 <HAL_GPIO_Init+0x2c8>)
 8000ef8:	681a      	ldr	r2, [r3, #0]
 8000efa:	69bb      	ldr	r3, [r7, #24]
 8000efc:	43db      	mvns	r3, r3
 8000efe:	4920      	ldr	r1, [pc, #128]	; (8000f80 <HAL_GPIO_Init+0x2c8>)
 8000f00:	4013      	ands	r3, r2
 8000f02:	600b      	str	r3, [r1, #0]
        }

        /* Configure the event mask */
        if ((GPIO_Init->Mode & GPIO_MODE_EVT) == GPIO_MODE_EVT)
 8000f04:	683b      	ldr	r3, [r7, #0]
 8000f06:	685b      	ldr	r3, [r3, #4]
 8000f08:	f403 3300 	and.w	r3, r3, #131072	; 0x20000
 8000f0c:	2b00      	cmp	r3, #0
 8000f0e:	d006      	beq.n	8000f1e <HAL_GPIO_Init+0x266>
        {
          SET_BIT(EXTI->EMR, iocurrent);
 8000f10:	4b1b      	ldr	r3, [pc, #108]	; (8000f80 <HAL_GPIO_Init+0x2c8>)
 8000f12:	685a      	ldr	r2, [r3, #4]
 8000f14:	491a      	ldr	r1, [pc, #104]	; (8000f80 <HAL_GPIO_Init+0x2c8>)
 8000f16:	69bb      	ldr	r3, [r7, #24]
 8000f18:	4313      	orrs	r3, r2
 8000f1a:	604b      	str	r3, [r1, #4]
 8000f1c:	e006      	b.n	8000f2c <HAL_GPIO_Init+0x274>
        }
        else
        {
          CLEAR_BIT(EXTI->EMR, iocurrent);
 8000f1e:	4b18      	ldr	r3, [pc, #96]	; (8000f80 <HAL_GPIO_Init+0x2c8>)
 8000f20:	685a      	ldr	r2, [r3, #4]
 8000f22:	69bb      	ldr	r3, [r7, #24]
 8000f24:	43db      	mvns	r3, r3
 8000f26:	4916      	ldr	r1, [pc, #88]	; (8000f80 <HAL_GPIO_Init+0x2c8>)
 8000f28:	4013      	ands	r3, r2
 8000f2a:	604b      	str	r3, [r1, #4]
        }

        /* Enable or disable the rising trigger */
        if ((GPIO_Init->Mode & RISING_EDGE) == RISING_EDGE)
 8000f2c:	683b      	ldr	r3, [r7, #0]
 8000f2e:	685b      	ldr	r3, [r3, #4]
 8000f30:	f403 1380 	and.w	r3, r3, #1048576	; 0x100000
 8000f34:	2b00      	cmp	r3, #0
 8000f36:	d025      	beq.n	8000f84 <HAL_GPIO_Init+0x2cc>
        {
          SET_BIT(EXTI->RTSR, iocurrent);
 8000f38:	4b11      	ldr	r3, [pc, #68]	; (8000f80 <HAL_GPIO_Init+0x2c8>)
 8000f3a:	689a      	ldr	r2, [r3, #8]
 8000f3c:	4910      	ldr	r1, [pc, #64]	; (8000f80 <HAL_GPIO_Init+0x2c8>)
 8000f3e:	69bb      	ldr	r3, [r7, #24]
 8000f40:	4313      	orrs	r3, r2
 8000f42:	608b      	str	r3, [r1, #8]
 8000f44:	e025      	b.n	8000f92 <HAL_GPIO_Init+0x2da>
 8000f46:	bf00      	nop
 8000f48:	10320000 	.word	0x10320000
 8000f4c:	10310000 	.word	0x10310000
 8000f50:	10220000 	.word	0x10220000
 8000f54:	10210000 	.word	0x10210000
 8000f58:	10120000 	.word	0x10120000
 8000f5c:	10110000 	.word	0x10110000
 8000f60:	40021000 	.word	0x40021000
 8000f64:	40010000 	.word	0x40010000
 8000f68:	40010800 	.word	0x40010800
 8000f6c:	40010c00 	.word	0x40010c00
 8000f70:	40011000 	.word	0x40011000
 8000f74:	40011400 	.word	0x40011400
 8000f78:	40011800 	.word	0x40011800
 8000f7c:	40011c00 	.word	0x40011c00
 8000f80:	40010400 	.word	0x40010400
        }
        else
        {
          CLEAR_BIT(EXTI->RTSR, iocurrent);
 8000f84:	4b15      	ldr	r3, [pc, #84]	; (8000fdc <HAL_GPIO_Init+0x324>)
 8000f86:	689a      	ldr	r2, [r3, #8]
 8000f88:	69bb      	ldr	r3, [r7, #24]
 8000f8a:	43db      	mvns	r3, r3
 8000f8c:	4913      	ldr	r1, [pc, #76]	; (8000fdc <HAL_GPIO_Init+0x324>)
 8000f8e:	4013      	ands	r3, r2
 8000f90:	608b      	str	r3, [r1, #8]
        }

        /* Enable or disable the falling trigger */
        if ((GPIO_Init->Mode & FALLING_EDGE) == FALLING_EDGE)
 8000f92:	683b      	ldr	r3, [r7, #0]
 8000f94:	685b      	ldr	r3, [r3, #4]
 8000f96:	f403 1300 	and.w	r3, r3, #2097152	; 0x200000
 8000f9a:	2b00      	cmp	r3, #0
 8000f9c:	d006      	beq.n	8000fac <HAL_GPIO_Init+0x2f4>
        {
          SET_BIT(EXTI->FTSR, iocurrent);
 8000f9e:	4b0f      	ldr	r3, [pc, #60]	; (8000fdc <HAL_GPIO_Init+0x324>)
 8000fa0:	68da      	ldr	r2, [r3, #12]
 8000fa2:	490e      	ldr	r1, [pc, #56]	; (8000fdc <HAL_GPIO_Init+0x324>)
 8000fa4:	69bb      	ldr	r3, [r7, #24]
 8000fa6:	4313      	orrs	r3, r2
 8000fa8:	60cb      	str	r3, [r1, #12]
 8000faa:	e006      	b.n	8000fba <HAL_GPIO_Init+0x302>
        }
        else
        {
          CLEAR_BIT(EXTI->FTSR, iocurrent);
 8000fac:	4b0b      	ldr	r3, [pc, #44]	; (8000fdc <HAL_GPIO_Init+0x324>)
 8000fae:	68da      	ldr	r2, [r3, #12]
 8000fb0:	69bb      	ldr	r3, [r7, #24]
 8000fb2:	43db      	mvns	r3, r3
 8000fb4:	4909      	ldr	r1, [pc, #36]	; (8000fdc <HAL_GPIO_Init+0x324>)
 8000fb6:	4013      	ands	r3, r2
 8000fb8:	60cb      	str	r3, [r1, #12]
        }
      }
    }

	position++;
 8000fba:	6a7b      	ldr	r3, [r7, #36]	; 0x24
 8000fbc:	3301      	adds	r3, #1
 8000fbe:	627b      	str	r3, [r7, #36]	; 0x24
  while (((GPIO_Init->Pin) >> position) != 0x00u)
 8000fc0:	683b      	ldr	r3, [r7, #0]
 8000fc2:	681a      	ldr	r2, [r3, #0]
 8000fc4:	6a7b      	ldr	r3, [r7, #36]	; 0x24
 8000fc6:	fa22 f303 	lsr.w	r3, r2, r3
 8000fca:	2b00      	cmp	r3, #0
 8000fcc:	f47f ae7e 	bne.w	8000ccc <HAL_GPIO_Init+0x14>
  }
}
 8000fd0:	bf00      	nop
 8000fd2:	bf00      	nop
 8000fd4:	372c      	adds	r7, #44	; 0x2c
 8000fd6:	46bd      	mov	sp, r7
 8000fd8:	bc80      	pop	{r7}
 8000fda:	4770      	bx	lr
 8000fdc:	40010400 	.word	0x40010400

08000fe0 <HAL_I2C_Init>:
  * @param  hi2c Pointer to a I2C_HandleTypeDef structure that contains
  *                the configuration information for the specified I2C.
  * @retval HAL status
  */
HAL_StatusTypeDef HAL_I2C_Init(I2C_HandleTypeDef *hi2c)
{
 8000fe0:	b580      	push	{r7, lr}
 8000fe2:	b084      	sub	sp, #16
 8000fe4:	af00      	add	r7, sp, #0
 8000fe6:	6078      	str	r0, [r7, #4]
  uint32_t freqrange;
  uint32_t pclk1;

  /* Check the I2C handle allocation */
  if (hi2c == NULL)
 8000fe8:	687b      	ldr	r3, [r7, #4]
 8000fea:	2b00      	cmp	r3, #0
 8000fec:	d101      	bne.n	8000ff2 <HAL_I2C_Init+0x12>
  {
    return HAL_ERROR;
 8000fee:	2301      	movs	r3, #1
 8000ff0:	e12b      	b.n	800124a <HAL_I2C_Init+0x26a>
  assert_param(IS_I2C_DUAL_ADDRESS(hi2c->Init.DualAddressMode));
  assert_param(IS_I2C_OWN_ADDRESS2(hi2c->Init.OwnAddress2));
  assert_param(IS_I2C_GENERAL_CALL(hi2c->Init.GeneralCallMode));
  assert_param(IS_I2C_NO_STRETCH(hi2c->Init.NoStretchMode));

  if (hi2c->State == HAL_I2C_STATE_RESET)
 8000ff2:	687b      	ldr	r3, [r7, #4]
 8000ff4:	f893 303d 	ldrb.w	r3, [r3, #61]	; 0x3d
 8000ff8:	b2db      	uxtb	r3, r3
 8000ffa:	2b00      	cmp	r3, #0
 8000ffc:	d106      	bne.n	800100c <HAL_I2C_Init+0x2c>
  {
    /* Allocate lock resource and initialize it */
    hi2c->Lock = HAL_UNLOCKED;
 8000ffe:	687b      	ldr	r3, [r7, #4]
 8001000:	2200      	movs	r2, #0
 8001002:	f883 203c 	strb.w	r2, [r3, #60]	; 0x3c

    /* Init the low level hardware : GPIO, CLOCK, NVIC */
    hi2c->MspInitCallback(hi2c);
#else
    /* Init the low level hardware : GPIO, CLOCK, NVIC */
    HAL_I2C_MspInit(hi2c);
 8001006:	6878      	ldr	r0, [r7, #4]
 8001008:	f7ff f968 	bl	80002dc <HAL_I2C_MspInit>
#endif /* USE_HAL_I2C_REGISTER_CALLBACKS */
  }

  hi2c->State = HAL_I2C_STATE_BUSY;
 800100c:	687b      	ldr	r3, [r7, #4]
 800100e:	2224      	movs	r2, #36	; 0x24
 8001010:	f883 203d 	strb.w	r2, [r3, #61]	; 0x3d

  /* Disable the selected I2C peripheral */
  __HAL_I2C_DISABLE(hi2c);
 8001014:	687b      	ldr	r3, [r7, #4]
 8001016:	681b      	ldr	r3, [r3, #0]
 8001018:	681a      	ldr	r2, [r3, #0]
 800101a:	687b      	ldr	r3, [r7, #4]
 800101c:	681b      	ldr	r3, [r3, #0]
 800101e:	f022 0201 	bic.w	r2, r2, #1
 8001022:	601a      	str	r2, [r3, #0]

  /*Reset I2C*/
  hi2c->Instance->CR1 |= I2C_CR1_SWRST;
 8001024:	687b      	ldr	r3, [r7, #4]
 8001026:	681b      	ldr	r3, [r3, #0]
 8001028:	681a      	ldr	r2, [r3, #0]
 800102a:	687b      	ldr	r3, [r7, #4]
 800102c:	681b      	ldr	r3, [r3, #0]
 800102e:	f442 4200 	orr.w	r2, r2, #32768	; 0x8000
 8001032:	601a      	str	r2, [r3, #0]
  hi2c->Instance->CR1 &= ~I2C_CR1_SWRST;
 8001034:	687b      	ldr	r3, [r7, #4]
 8001036:	681b      	ldr	r3, [r3, #0]
 8001038:	681a      	ldr	r2, [r3, #0]
 800103a:	687b      	ldr	r3, [r7, #4]
 800103c:	681b      	ldr	r3, [r3, #0]
 800103e:	f422 4200 	bic.w	r2, r2, #32768	; 0x8000
 8001042:	601a      	str	r2, [r3, #0]

  /* Get PCLK1 frequency */
  pclk1 = HAL_RCC_GetPCLK1Freq();
 8001044:	f001 f806 	bl	8002054 <HAL_RCC_GetPCLK1Freq>
 8001048:	60f8      	str	r0, [r7, #12]

  /* Check the minimum allowed PCLK1 frequency */
  if (I2C_MIN_PCLK_FREQ(pclk1, hi2c->Init.ClockSpeed) == 1U)
 800104a:	687b      	ldr	r3, [r7, #4]
 800104c:	685b      	ldr	r3, [r3, #4]
 800104e:	4a81      	ldr	r2, [pc, #516]	; (8001254 <HAL_I2C_Init+0x274>)
 8001050:	4293      	cmp	r3, r2
 8001052:	d807      	bhi.n	8001064 <HAL_I2C_Init+0x84>
 8001054:	68fb      	ldr	r3, [r7, #12]
 8001056:	4a80      	ldr	r2, [pc, #512]	; (8001258 <HAL_I2C_Init+0x278>)
 8001058:	4293      	cmp	r3, r2
 800105a:	bf94      	ite	ls
 800105c:	2301      	movls	r3, #1
 800105e:	2300      	movhi	r3, #0
 8001060:	b2db      	uxtb	r3, r3
 8001062:	e006      	b.n	8001072 <HAL_I2C_Init+0x92>
 8001064:	68fb      	ldr	r3, [r7, #12]
 8001066:	4a7d      	ldr	r2, [pc, #500]	; (800125c <HAL_I2C_Init+0x27c>)
 8001068:	4293      	cmp	r3, r2
 800106a:	bf94      	ite	ls
 800106c:	2301      	movls	r3, #1
 800106e:	2300      	movhi	r3, #0
 8001070:	b2db      	uxtb	r3, r3
 8001072:	2b00      	cmp	r3, #0
 8001074:	d001      	beq.n	800107a <HAL_I2C_Init+0x9a>
  {
    return HAL_ERROR;
 8001076:	2301      	movs	r3, #1
 8001078:	e0e7      	b.n	800124a <HAL_I2C_Init+0x26a>
  }

  /* Calculate frequency range */
  freqrange = I2C_FREQRANGE(pclk1);
 800107a:	68fb      	ldr	r3, [r7, #12]
 800107c:	4a78      	ldr	r2, [pc, #480]	; (8001260 <HAL_I2C_Init+0x280>)
 800107e:	fba2 2303 	umull	r2, r3, r2, r3
 8001082:	0c9b      	lsrs	r3, r3, #18
 8001084:	60bb      	str	r3, [r7, #8]

  /*---------------------------- I2Cx CR2 Configuration ----------------------*/
  /* Configure I2Cx: Frequency range */
  MODIFY_REG(hi2c->Instance->CR2, I2C_CR2_FREQ, freqrange);
 8001086:	687b      	ldr	r3, [r7, #4]
 8001088:	681b      	ldr	r3, [r3, #0]
 800108a:	685b      	ldr	r3, [r3, #4]
 800108c:	f023 013f 	bic.w	r1, r3, #63	; 0x3f
 8001090:	687b      	ldr	r3, [r7, #4]
 8001092:	681b      	ldr	r3, [r3, #0]
 8001094:	68ba      	ldr	r2, [r7, #8]
 8001096:	430a      	orrs	r2, r1
 8001098:	605a      	str	r2, [r3, #4]

  /*---------------------------- I2Cx TRISE Configuration --------------------*/
  /* Configure I2Cx: Rise Time */
  MODIFY_REG(hi2c->Instance->TRISE, I2C_TRISE_TRISE, I2C_RISE_TIME(freqrange, hi2c->Init.ClockSpeed));
 800109a:	687b      	ldr	r3, [r7, #4]
 800109c:	681b      	ldr	r3, [r3, #0]
 800109e:	6a1b      	ldr	r3, [r3, #32]
 80010a0:	f023 013f 	bic.w	r1, r3, #63	; 0x3f
 80010a4:	687b      	ldr	r3, [r7, #4]
 80010a6:	685b      	ldr	r3, [r3, #4]
 80010a8:	4a6a      	ldr	r2, [pc, #424]	; (8001254 <HAL_I2C_Init+0x274>)
 80010aa:	4293      	cmp	r3, r2
 80010ac:	d802      	bhi.n	80010b4 <HAL_I2C_Init+0xd4>
 80010ae:	68bb      	ldr	r3, [r7, #8]
 80010b0:	3301      	adds	r3, #1
 80010b2:	e009      	b.n	80010c8 <HAL_I2C_Init+0xe8>
 80010b4:	68bb      	ldr	r3, [r7, #8]
 80010b6:	f44f 7296 	mov.w	r2, #300	; 0x12c
 80010ba:	fb02 f303 	mul.w	r3, r2, r3
 80010be:	4a69      	ldr	r2, [pc, #420]	; (8001264 <HAL_I2C_Init+0x284>)
 80010c0:	fba2 2303 	umull	r2, r3, r2, r3
 80010c4:	099b      	lsrs	r3, r3, #6
 80010c6:	3301      	adds	r3, #1
 80010c8:	687a      	ldr	r2, [r7, #4]
 80010ca:	6812      	ldr	r2, [r2, #0]
 80010cc:	430b      	orrs	r3, r1
 80010ce:	6213      	str	r3, [r2, #32]

  /*---------------------------- I2Cx CCR Configuration ----------------------*/
  /* Configure I2Cx: Speed */
  MODIFY_REG(hi2c->Instance->CCR, (I2C_CCR_FS | I2C_CCR_DUTY | I2C_CCR_CCR), I2C_SPEED(pclk1, hi2c->Init.ClockSpeed, hi2c->Init.DutyCycle));
 80010d0:	687b      	ldr	r3, [r7, #4]
 80010d2:	681b      	ldr	r3, [r3, #0]
 80010d4:	69db      	ldr	r3, [r3, #28]
 80010d6:	f423 424f 	bic.w	r2, r3, #52992	; 0xcf00
 80010da:	f022 02ff 	bic.w	r2, r2, #255	; 0xff
 80010de:	687b      	ldr	r3, [r7, #4]
 80010e0:	685b      	ldr	r3, [r3, #4]
 80010e2:	495c      	ldr	r1, [pc, #368]	; (8001254 <HAL_I2C_Init+0x274>)
 80010e4:	428b      	cmp	r3, r1
 80010e6:	d819      	bhi.n	800111c <HAL_I2C_Init+0x13c>
 80010e8:	68fb      	ldr	r3, [r7, #12]
 80010ea:	1e59      	subs	r1, r3, #1
 80010ec:	687b      	ldr	r3, [r7, #4]
 80010ee:	685b      	ldr	r3, [r3, #4]
 80010f0:	005b      	lsls	r3, r3, #1
 80010f2:	fbb1 f3f3 	udiv	r3, r1, r3
 80010f6:	1c59      	adds	r1, r3, #1
 80010f8:	f640 73fc 	movw	r3, #4092	; 0xffc
 80010fc:	400b      	ands	r3, r1
 80010fe:	2b00      	cmp	r3, #0
 8001100:	d00a      	beq.n	8001118 <HAL_I2C_Init+0x138>
 8001102:	68fb      	ldr	r3, [r7, #12]
 8001104:	1e59      	subs	r1, r3, #1
 8001106:	687b      	ldr	r3, [r7, #4]
 8001108:	685b      	ldr	r3, [r3, #4]
 800110a:	005b      	lsls	r3, r3, #1
 800110c:	fbb1 f3f3 	udiv	r3, r1, r3
 8001110:	3301      	adds	r3, #1
 8001112:	f3c3 030b 	ubfx	r3, r3, #0, #12
 8001116:	e051      	b.n	80011bc <HAL_I2C_Init+0x1dc>
 8001118:	2304      	movs	r3, #4
 800111a:	e04f      	b.n	80011bc <HAL_I2C_Init+0x1dc>
 800111c:	687b      	ldr	r3, [r7, #4]
 800111e:	689b      	ldr	r3, [r3, #8]
 8001120:	2b00      	cmp	r3, #0
 8001122:	d111      	bne.n	8001148 <HAL_I2C_Init+0x168>
 8001124:	68fb      	ldr	r3, [r7, #12]
 8001126:	1e58      	subs	r0, r3, #1
 8001128:	687b      	ldr	r3, [r7, #4]
 800112a:	6859      	ldr	r1, [r3, #4]
 800112c:	460b      	mov	r3, r1
 800112e:	005b      	lsls	r3, r3, #1
 8001130:	440b      	add	r3, r1
 8001132:	fbb0 f3f3 	udiv	r3, r0, r3
 8001136:	3301      	adds	r3, #1
 8001138:	f3c3 030b 	ubfx	r3, r3, #0, #12
 800113c:	2b00      	cmp	r3, #0
 800113e:	bf0c      	ite	eq
 8001140:	2301      	moveq	r3, #1
 8001142:	2300      	movne	r3, #0
 8001144:	b2db      	uxtb	r3, r3
 8001146:	e012      	b.n	800116e <HAL_I2C_Init+0x18e>
 8001148:	68fb      	ldr	r3, [r7, #12]
 800114a:	1e58      	subs	r0, r3, #1
 800114c:	687b      	ldr	r3, [r7, #4]
 800114e:	6859      	ldr	r1, [r3, #4]
 8001150:	460b      	mov	r3, r1
 8001152:	009b      	lsls	r3, r3, #2
 8001154:	440b      	add	r3, r1
 8001156:	0099      	lsls	r1, r3, #2
 8001158:	440b      	add	r3, r1
 800115a:	fbb0 f3f3 	udiv	r3, r0, r3
 800115e:	3301      	adds	r3, #1
 8001160:	f3c3 030b 	ubfx	r3, r3, #0, #12
 8001164:	2b00      	cmp	r3, #0
 8001166:	bf0c      	ite	eq
 8001168:	2301      	moveq	r3, #1
 800116a:	2300      	movne	r3, #0
 800116c:	b2db      	uxtb	r3, r3
 800116e:	2b00      	cmp	r3, #0
 8001170:	d001      	beq.n	8001176 <HAL_I2C_Init+0x196>
 8001172:	2301      	movs	r3, #1
 8001174:	e022      	b.n	80011bc <HAL_I2C_Init+0x1dc>
 8001176:	687b      	ldr	r3, [r7, #4]
 8001178:	689b      	ldr	r3, [r3, #8]
 800117a:	2b00      	cmp	r3, #0
 800117c:	d10e      	bne.n	800119c <HAL_I2C_Init+0x1bc>
 800117e:	68fb      	ldr	r3, [r7, #12]
 8001180:	1e58      	subs	r0, r3, #1
 8001182:	687b      	ldr	r3, [r7, #4]
 8001184:	6859      	ldr	r1, [r3, #4]
 8001186:	460b      	mov	r3, r1
 8001188:	005b      	lsls	r3, r3, #1
 800118a:	440b      	add	r3, r1
 800118c:	fbb0 f3f3 	udiv	r3, r0, r3
 8001190:	3301      	adds	r3, #1
 8001192:	f3c3 030b 	ubfx	r3, r3, #0, #12
 8001196:	f443 4300 	orr.w	r3, r3, #32768	; 0x8000
 800119a:	e00f      	b.n	80011bc <HAL_I2C_Init+0x1dc>
 800119c:	68fb      	ldr	r3, [r7, #12]
 800119e:	1e58      	subs	r0, r3, #1
 80011a0:	687b      	ldr	r3, [r7, #4]
 80011a2:	6859      	ldr	r1, [r3, #4]
 80011a4:	460b      	mov	r3, r1
 80011a6:	009b      	lsls	r3, r3, #2
 80011a8:	440b      	add	r3, r1
 80011aa:	0099      	lsls	r1, r3, #2
 80011ac:	440b      	add	r3, r1
 80011ae:	fbb0 f3f3 	udiv	r3, r0, r3
 80011b2:	3301      	adds	r3, #1
 80011b4:	f3c3 030b 	ubfx	r3, r3, #0, #12
 80011b8:	f443 4340 	orr.w	r3, r3, #49152	; 0xc000
 80011bc:	6879      	ldr	r1, [r7, #4]
 80011be:	6809      	ldr	r1, [r1, #0]
 80011c0:	4313      	orrs	r3, r2
 80011c2:	61cb      	str	r3, [r1, #28]

  /*---------------------------- I2Cx CR1 Configuration ----------------------*/
  /* Configure I2Cx: Generalcall and NoStretch mode */
  MODIFY_REG(hi2c->Instance->CR1, (I2C_CR1_ENGC | I2C_CR1_NOSTRETCH), (hi2c->Init.GeneralCallMode | hi2c->Init.NoStretchMode));
 80011c4:	687b      	ldr	r3, [r7, #4]
 80011c6:	681b      	ldr	r3, [r3, #0]
 80011c8:	681b      	ldr	r3, [r3, #0]
 80011ca:	f023 01c0 	bic.w	r1, r3, #192	; 0xc0
 80011ce:	687b      	ldr	r3, [r7, #4]
 80011d0:	69da      	ldr	r2, [r3, #28]
 80011d2:	687b      	ldr	r3, [r7, #4]
 80011d4:	6a1b      	ldr	r3, [r3, #32]
 80011d6:	431a      	orrs	r2, r3
 80011d8:	687b      	ldr	r3, [r7, #4]
 80011da:	681b      	ldr	r3, [r3, #0]
 80011dc:	430a      	orrs	r2, r1
 80011de:	601a      	str	r2, [r3, #0]

  /*---------------------------- I2Cx OAR1 Configuration ---------------------*/
  /* Configure I2Cx: Own Address1 and addressing mode */
  MODIFY_REG(hi2c->Instance->OAR1, (I2C_OAR1_ADDMODE | I2C_OAR1_ADD8_9 | I2C_OAR1_ADD1_7 | I2C_OAR1_ADD0), (hi2c->Init.AddressingMode | hi2c->Init.OwnAddress1));
 80011e0:	687b      	ldr	r3, [r7, #4]
 80011e2:	681b      	ldr	r3, [r3, #0]
 80011e4:	689b      	ldr	r3, [r3, #8]
 80011e6:	f423 4303 	bic.w	r3, r3, #33536	; 0x8300
 80011ea:	f023 03ff 	bic.w	r3, r3, #255	; 0xff
 80011ee:	687a      	ldr	r2, [r7, #4]
 80011f0:	6911      	ldr	r1, [r2, #16]
 80011f2:	687a      	ldr	r2, [r7, #4]
 80011f4:	68d2      	ldr	r2, [r2, #12]
 80011f6:	4311      	orrs	r1, r2
 80011f8:	687a      	ldr	r2, [r7, #4]
 80011fa:	6812      	ldr	r2, [r2, #0]
 80011fc:	430b      	orrs	r3, r1
 80011fe:	6093      	str	r3, [r2, #8]

  /*---------------------------- I2Cx OAR2 Configuration ---------------------*/
  /* Configure I2Cx: Dual mode and Own Address2 */
  MODIFY_REG(hi2c->Instance->OAR2, (I2C_OAR2_ENDUAL | I2C_OAR2_ADD2), (hi2c->Init.DualAddressMode | hi2c->Init.OwnAddress2));
 8001200:	687b      	ldr	r3, [r7, #4]
 8001202:	681b      	ldr	r3, [r3, #0]
 8001204:	68db      	ldr	r3, [r3, #12]
 8001206:	f023 01ff 	bic.w	r1, r3, #255	; 0xff
 800120a:	687b      	ldr	r3, [r7, #4]
 800120c:	695a      	ldr	r2, [r3, #20]
 800120e:	687b      	ldr	r3, [r7, #4]
 8001210:	699b      	ldr	r3, [r3, #24]
 8001212:	431a      	orrs	r2, r3
 8001214:	687b      	ldr	r3, [r7, #4]
 8001216:	681b      	ldr	r3, [r3, #0]
 8001218:	430a      	orrs	r2, r1
 800121a:	60da      	str	r2, [r3, #12]

  /* Enable the selected I2C peripheral */
  __HAL_I2C_ENABLE(hi2c);
 800121c:	687b      	ldr	r3, [r7, #4]
 800121e:	681b      	ldr	r3, [r3, #0]
 8001220:	681a      	ldr	r2, [r3, #0]
 8001222:	687b      	ldr	r3, [r7, #4]
 8001224:	681b      	ldr	r3, [r3, #0]
 8001226:	f042 0201 	orr.w	r2, r2, #1
 800122a:	601a      	str	r2, [r3, #0]

  hi2c->ErrorCode = HAL_I2C_ERROR_NONE;
 800122c:	687b      	ldr	r3, [r7, #4]
 800122e:	2200      	movs	r2, #0
 8001230:	641a      	str	r2, [r3, #64]	; 0x40
  hi2c->State = HAL_I2C_STATE_READY;
 8001232:	687b      	ldr	r3, [r7, #4]
 8001234:	2220      	movs	r2, #32
 8001236:	f883 203d 	strb.w	r2, [r3, #61]	; 0x3d
  hi2c->PreviousState = I2C_STATE_NONE;
 800123a:	687b      	ldr	r3, [r7, #4]
 800123c:	2200      	movs	r2, #0
 800123e:	631a      	str	r2, [r3, #48]	; 0x30
  hi2c->Mode = HAL_I2C_MODE_NONE;
 8001240:	687b      	ldr	r3, [r7, #4]
 8001242:	2200      	movs	r2, #0
 8001244:	f883 203e 	strb.w	r2, [r3, #62]	; 0x3e

  return HAL_OK;
 8001248:	2300      	movs	r3, #0
}
 800124a:	4618      	mov	r0, r3
 800124c:	3710      	adds	r7, #16
 800124e:	46bd      	mov	sp, r7
 8001250:	bd80      	pop	{r7, pc}
 8001252:	bf00      	nop
 8001254:	000186a0 	.word	0x000186a0
 8001258:	001e847f 	.word	0x001e847f
 800125c:	003d08ff 	.word	0x003d08ff
 8001260:	431bde83 	.word	0x431bde83
 8001264:	10624dd3 	.word	0x10624dd3

08001268 <HAL_I2C_Mem_Write>:
  * @param  Size Amount of data to be sent
  * @param  Timeout Timeout duration
  * @retval HAL status
  */
HAL_StatusTypeDef HAL_I2C_Mem_Write(I2C_HandleTypeDef *hi2c, uint16_t DevAddress, uint16_t MemAddress, uint16_t MemAddSize, uint8_t *pData, uint16_t Size, uint32_t Timeout)
{
 8001268:	b580      	push	{r7, lr}
 800126a:	b088      	sub	sp, #32
 800126c:	af02      	add	r7, sp, #8
 800126e:	60f8      	str	r0, [r7, #12]
 8001270:	4608      	mov	r0, r1
 8001272:	4611      	mov	r1, r2
 8001274:	461a      	mov	r2, r3
 8001276:	4603      	mov	r3, r0
 8001278:	817b      	strh	r3, [r7, #10]
 800127a:	460b      	mov	r3, r1
 800127c:	813b      	strh	r3, [r7, #8]
 800127e:	4613      	mov	r3, r2
 8001280:	80fb      	strh	r3, [r7, #6]
  /* Init tickstart for timeout management*/
  uint32_t tickstart = HAL_GetTick();
 8001282:	f7ff fbdd 	bl	8000a40 <HAL_GetTick>
 8001286:	6178      	str	r0, [r7, #20]

  /* Check the parameters */
  assert_param(IS_I2C_MEMADD_SIZE(MemAddSize));

  if (hi2c->State == HAL_I2C_STATE_READY)
 8001288:	68fb      	ldr	r3, [r7, #12]
 800128a:	f893 303d 	ldrb.w	r3, [r3, #61]	; 0x3d
 800128e:	b2db      	uxtb	r3, r3
 8001290:	2b20      	cmp	r3, #32
 8001292:	f040 80d9 	bne.w	8001448 <HAL_I2C_Mem_Write+0x1e0>
  {
    /* Wait until BUSY flag is reset */
    if (I2C_WaitOnFlagUntilTimeout(hi2c, I2C_FLAG_BUSY, SET, I2C_TIMEOUT_BUSY_FLAG, tickstart) != HAL_OK)
 8001296:	697b      	ldr	r3, [r7, #20]
 8001298:	9300      	str	r3, [sp, #0]
 800129a:	2319      	movs	r3, #25
 800129c:	2201      	movs	r2, #1
 800129e:	496d      	ldr	r1, [pc, #436]	; (8001454 <HAL_I2C_Mem_Write+0x1ec>)
 80012a0:	68f8      	ldr	r0, [r7, #12]
 80012a2:	f000 f971 	bl	8001588 <I2C_WaitOnFlagUntilTimeout>
 80012a6:	4603      	mov	r3, r0
 80012a8:	2b00      	cmp	r3, #0
 80012aa:	d001      	beq.n	80012b0 <HAL_I2C_Mem_Write+0x48>
    {
      return HAL_BUSY;
 80012ac:	2302      	movs	r3, #2
 80012ae:	e0cc      	b.n	800144a <HAL_I2C_Mem_Write+0x1e2>
    }

    /* Process Locked */
    __HAL_LOCK(hi2c);
 80012b0:	68fb      	ldr	r3, [r7, #12]
 80012b2:	f893 303c 	ldrb.w	r3, [r3, #60]	; 0x3c
 80012b6:	2b01      	cmp	r3, #1
 80012b8:	d101      	bne.n	80012be <HAL_I2C_Mem_Write+0x56>
 80012ba:	2302      	movs	r3, #2
 80012bc:	e0c5      	b.n	800144a <HAL_I2C_Mem_Write+0x1e2>
 80012be:	68fb      	ldr	r3, [r7, #12]
 80012c0:	2201      	movs	r2, #1
 80012c2:	f883 203c 	strb.w	r2, [r3, #60]	; 0x3c

    /* Check if the I2C is already enabled */
    if ((hi2c->Instance->CR1 & I2C_CR1_PE) != I2C_CR1_PE)
 80012c6:	68fb      	ldr	r3, [r7, #12]
 80012c8:	681b      	ldr	r3, [r3, #0]
 80012ca:	681b      	ldr	r3, [r3, #0]
 80012cc:	f003 0301 	and.w	r3, r3, #1
 80012d0:	2b01      	cmp	r3, #1
 80012d2:	d007      	beq.n	80012e4 <HAL_I2C_Mem_Write+0x7c>
    {
      /* Enable I2C peripheral */
      __HAL_I2C_ENABLE(hi2c);
 80012d4:	68fb      	ldr	r3, [r7, #12]
 80012d6:	681b      	ldr	r3, [r3, #0]
 80012d8:	681a      	ldr	r2, [r3, #0]
 80012da:	68fb      	ldr	r3, [r7, #12]
 80012dc:	681b      	ldr	r3, [r3, #0]
 80012de:	f042 0201 	orr.w	r2, r2, #1
 80012e2:	601a      	str	r2, [r3, #0]
    }

    /* Disable Pos */
    CLEAR_BIT(hi2c->Instance->CR1, I2C_CR1_POS);
 80012e4:	68fb      	ldr	r3, [r7, #12]
 80012e6:	681b      	ldr	r3, [r3, #0]
 80012e8:	681a      	ldr	r2, [r3, #0]
 80012ea:	68fb      	ldr	r3, [r7, #12]
 80012ec:	681b      	ldr	r3, [r3, #0]
 80012ee:	f422 6200 	bic.w	r2, r2, #2048	; 0x800
 80012f2:	601a      	str	r2, [r3, #0]

    hi2c->State     = HAL_I2C_STATE_BUSY_TX;
 80012f4:	68fb      	ldr	r3, [r7, #12]
 80012f6:	2221      	movs	r2, #33	; 0x21
 80012f8:	f883 203d 	strb.w	r2, [r3, #61]	; 0x3d
    hi2c->Mode      = HAL_I2C_MODE_MEM;
 80012fc:	68fb      	ldr	r3, [r7, #12]
 80012fe:	2240      	movs	r2, #64	; 0x40
 8001300:	f883 203e 	strb.w	r2, [r3, #62]	; 0x3e
    hi2c->ErrorCode = HAL_I2C_ERROR_NONE;
 8001304:	68fb      	ldr	r3, [r7, #12]
 8001306:	2200      	movs	r2, #0
 8001308:	641a      	str	r2, [r3, #64]	; 0x40

    /* Prepare transfer parameters */
    hi2c->pBuffPtr    = pData;
 800130a:	68fb      	ldr	r3, [r7, #12]
 800130c:	6a3a      	ldr	r2, [r7, #32]
 800130e:	625a      	str	r2, [r3, #36]	; 0x24
    hi2c->XferCount   = Size;
 8001310:	68fb      	ldr	r3, [r7, #12]
 8001312:	8cba      	ldrh	r2, [r7, #36]	; 0x24
 8001314:	855a      	strh	r2, [r3, #42]	; 0x2a
    hi2c->XferSize    = hi2c->XferCount;
 8001316:	68fb      	ldr	r3, [r7, #12]
 8001318:	8d5b      	ldrh	r3, [r3, #42]	; 0x2a
 800131a:	b29a      	uxth	r2, r3
 800131c:	68fb      	ldr	r3, [r7, #12]
 800131e:	851a      	strh	r2, [r3, #40]	; 0x28
    hi2c->XferOptions = I2C_NO_OPTION_FRAME;
 8001320:	68fb      	ldr	r3, [r7, #12]
 8001322:	4a4d      	ldr	r2, [pc, #308]	; (8001458 <HAL_I2C_Mem_Write+0x1f0>)
 8001324:	62da      	str	r2, [r3, #44]	; 0x2c

    /* Send Slave Address and Memory Address */
    if (I2C_RequestMemoryWrite(hi2c, DevAddress, MemAddress, MemAddSize, Timeout, tickstart) != HAL_OK)
 8001326:	88f8      	ldrh	r0, [r7, #6]
 8001328:	893a      	ldrh	r2, [r7, #8]
 800132a:	8979      	ldrh	r1, [r7, #10]
 800132c:	697b      	ldr	r3, [r7, #20]
 800132e:	9301      	str	r3, [sp, #4]
 8001330:	6abb      	ldr	r3, [r7, #40]	; 0x28
 8001332:	9300      	str	r3, [sp, #0]
 8001334:	4603      	mov	r3, r0
 8001336:	68f8      	ldr	r0, [r7, #12]
 8001338:	f000 f890 	bl	800145c <I2C_RequestMemoryWrite>
 800133c:	4603      	mov	r3, r0
 800133e:	2b00      	cmp	r3, #0
 8001340:	d052      	beq.n	80013e8 <HAL_I2C_Mem_Write+0x180>
    {
      return HAL_ERROR;
 8001342:	2301      	movs	r3, #1
 8001344:	e081      	b.n	800144a <HAL_I2C_Mem_Write+0x1e2>
    }

    while (hi2c->XferSize > 0U)
    {
      /* Wait until TXE flag is set */
      if (I2C_WaitOnTXEFlagUntilTimeout(hi2c, Timeout, tickstart) != HAL_OK)
 8001346:	697a      	ldr	r2, [r7, #20]
 8001348:	6ab9      	ldr	r1, [r7, #40]	; 0x28
 800134a:	68f8      	ldr	r0, [r7, #12]
 800134c:	f000 f9f2 	bl	8001734 <I2C_WaitOnTXEFlagUntilTimeout>
 8001350:	4603      	mov	r3, r0
 8001352:	2b00      	cmp	r3, #0
 8001354:	d00d      	beq.n	8001372 <HAL_I2C_Mem_Write+0x10a>
      {
        if (hi2c->ErrorCode == HAL_I2C_ERROR_AF)
 8001356:	68fb      	ldr	r3, [r7, #12]
 8001358:	6c1b      	ldr	r3, [r3, #64]	; 0x40
 800135a:	2b04      	cmp	r3, #4
 800135c:	d107      	bne.n	800136e <HAL_I2C_Mem_Write+0x106>
        {
          /* Generate Stop */
          SET_BIT(hi2c->Instance->CR1, I2C_CR1_STOP);
 800135e:	68fb      	ldr	r3, [r7, #12]
 8001360:	681b      	ldr	r3, [r3, #0]
 8001362:	681a      	ldr	r2, [r3, #0]
 8001364:	68fb      	ldr	r3, [r7, #12]
 8001366:	681b      	ldr	r3, [r3, #0]
 8001368:	f442 7200 	orr.w	r2, r2, #512	; 0x200
 800136c:	601a      	str	r2, [r3, #0]
        }
        return HAL_ERROR;
 800136e:	2301      	movs	r3, #1
 8001370:	e06b      	b.n	800144a <HAL_I2C_Mem_Write+0x1e2>
      }

      /* Write data to DR */
      hi2c->Instance->DR = *hi2c->pBuffPtr;
 8001372:	68fb      	ldr	r3, [r7, #12]
 8001374:	6a5b      	ldr	r3, [r3, #36]	; 0x24
 8001376:	781a      	ldrb	r2, [r3, #0]
 8001378:	68fb      	ldr	r3, [r7, #12]
 800137a:	681b      	ldr	r3, [r3, #0]
 800137c:	611a      	str	r2, [r3, #16]

      /* Increment Buffer pointer */
      hi2c->pBuffPtr++;
 800137e:	68fb      	ldr	r3, [r7, #12]
 8001380:	6a5b      	ldr	r3, [r3, #36]	; 0x24
 8001382:	1c5a      	adds	r2, r3, #1
 8001384:	68fb      	ldr	r3, [r7, #12]
 8001386:	625a      	str	r2, [r3, #36]	; 0x24

      /* Update counter */
      hi2c->XferSize--;
 8001388:	68fb      	ldr	r3, [r7, #12]
 800138a:	8d1b      	ldrh	r3, [r3, #40]	; 0x28
 800138c:	3b01      	subs	r3, #1
 800138e:	b29a      	uxth	r2, r3
 8001390:	68fb      	ldr	r3, [r7, #12]
 8001392:	851a      	strh	r2, [r3, #40]	; 0x28
      hi2c->XferCount--;
 8001394:	68fb      	ldr	r3, [r7, #12]
 8001396:	8d5b      	ldrh	r3, [r3, #42]	; 0x2a
 8001398:	b29b      	uxth	r3, r3
 800139a:	3b01      	subs	r3, #1
 800139c:	b29a      	uxth	r2, r3
 800139e:	68fb      	ldr	r3, [r7, #12]
 80013a0:	855a      	strh	r2, [r3, #42]	; 0x2a

      if ((__HAL_I2C_GET_FLAG(hi2c, I2C_FLAG_BTF) == SET) && (hi2c->XferSize != 0U))
 80013a2:	68fb      	ldr	r3, [r7, #12]
 80013a4:	681b      	ldr	r3, [r3, #0]
 80013a6:	695b      	ldr	r3, [r3, #20]
 80013a8:	f003 0304 	and.w	r3, r3, #4
 80013ac:	2b04      	cmp	r3, #4
 80013ae:	d11b      	bne.n	80013e8 <HAL_I2C_Mem_Write+0x180>
 80013b0:	68fb      	ldr	r3, [r7, #12]
 80013b2:	8d1b      	ldrh	r3, [r3, #40]	; 0x28
 80013b4:	2b00      	cmp	r3, #0
 80013b6:	d017      	beq.n	80013e8 <HAL_I2C_Mem_Write+0x180>
      {
        /* Write data to DR */
        hi2c->Instance->DR = *hi2c->pBuffPtr;
 80013b8:	68fb      	ldr	r3, [r7, #12]
 80013ba:	6a5b      	ldr	r3, [r3, #36]	; 0x24
 80013bc:	781a      	ldrb	r2, [r3, #0]
 80013be:	68fb      	ldr	r3, [r7, #12]
 80013c0:	681b      	ldr	r3, [r3, #0]
 80013c2:	611a      	str	r2, [r3, #16]

        /* Increment Buffer pointer */
        hi2c->pBuffPtr++;
 80013c4:	68fb      	ldr	r3, [r7, #12]
 80013c6:	6a5b      	ldr	r3, [r3, #36]	; 0x24
 80013c8:	1c5a      	adds	r2, r3, #1
 80013ca:	68fb      	ldr	r3, [r7, #12]
 80013cc:	625a      	str	r2, [r3, #36]	; 0x24

        /* Update counter */
        hi2c->XferSize--;
 80013ce:	68fb      	ldr	r3, [r7, #12]
 80013d0:	8d1b      	ldrh	r3, [r3, #40]	; 0x28
 80013d2:	3b01      	subs	r3, #1
 80013d4:	b29a      	uxth	r2, r3
 80013d6:	68fb      	ldr	r3, [r7, #12]
 80013d8:	851a      	strh	r2, [r3, #40]	; 0x28
        hi2c->XferCount--;
 80013da:	68fb      	ldr	r3, [r7, #12]
 80013dc:	8d5b      	ldrh	r3, [r3, #42]	; 0x2a
 80013de:	b29b      	uxth	r3, r3
 80013e0:	3b01      	subs	r3, #1
 80013e2:	b29a      	uxth	r2, r3
 80013e4:	68fb      	ldr	r3, [r7, #12]
 80013e6:	855a      	strh	r2, [r3, #42]	; 0x2a
    while (hi2c->XferSize > 0U)
 80013e8:	68fb      	ldr	r3, [r7, #12]
 80013ea:	8d1b      	ldrh	r3, [r3, #40]	; 0x28
 80013ec:	2b00      	cmp	r3, #0
 80013ee:	d1aa      	bne.n	8001346 <HAL_I2C_Mem_Write+0xde>
      }
    }

    /* Wait until BTF flag is set */
    if (I2C_WaitOnBTFFlagUntilTimeout(hi2c, Timeout, tickstart) != HAL_OK)
 80013f0:	697a      	ldr	r2, [r7, #20]
 80013f2:	6ab9      	ldr	r1, [r7, #40]	; 0x28
 80013f4:	68f8      	ldr	r0, [r7, #12]
 80013f6:	f000 f9de 	bl	80017b6 <I2C_WaitOnBTFFlagUntilTimeout>
 80013fa:	4603      	mov	r3, r0
 80013fc:	2b00      	cmp	r3, #0
 80013fe:	d00d      	beq.n	800141c <HAL_I2C_Mem_Write+0x1b4>
    {
      if (hi2c->ErrorCode == HAL_I2C_ERROR_AF)
 8001400:	68fb      	ldr	r3, [r7, #12]
 8001402:	6c1b      	ldr	r3, [r3, #64]	; 0x40
 8001404:	2b04      	cmp	r3, #4
 8001406:	d107      	bne.n	8001418 <HAL_I2C_Mem_Write+0x1b0>
      {
        /* Generate Stop */
        SET_BIT(hi2c->Instance->CR1, I2C_CR1_STOP);
 8001408:	68fb      	ldr	r3, [r7, #12]
 800140a:	681b      	ldr	r3, [r3, #0]
 800140c:	681a      	ldr	r2, [r3, #0]
 800140e:	68fb      	ldr	r3, [r7, #12]
 8001410:	681b      	ldr	r3, [r3, #0]
 8001412:	f442 7200 	orr.w	r2, r2, #512	; 0x200
 8001416:	601a      	str	r2, [r3, #0]
      }
      return HAL_ERROR;
 8001418:	2301      	movs	r3, #1
 800141a:	e016      	b.n	800144a <HAL_I2C_Mem_Write+0x1e2>
    }

    /* Generate Stop */
    SET_BIT(hi2c->Instance->CR1, I2C_CR1_STOP);
 800141c:	68fb      	ldr	r3, [r7, #12]
 800141e:	681b      	ldr	r3, [r3, #0]
 8001420:	681a      	ldr	r2, [r3, #0]
 8001422:	68fb      	ldr	r3, [r7, #12]
 8001424:	681b      	ldr	r3, [r3, #0]
 8001426:	f442 7200 	orr.w	r2, r2, #512	; 0x200
 800142a:	601a      	str	r2, [r3, #0]

    hi2c->State = HAL_I2C_STATE_READY;
 800142c:	68fb      	ldr	r3, [r7, #12]
 800142e:	2220      	movs	r2, #32
 8001430:	f883 203d 	strb.w	r2, [r3, #61]	; 0x3d
    hi2c->Mode = HAL_I2C_MODE_NONE;
 8001434:	68fb      	ldr	r3, [r7, #12]
 8001436:	2200      	movs	r2, #0
 8001438:	f883 203e 	strb.w	r2, [r3, #62]	; 0x3e

    /* Process Unlocked */
    __HAL_UNLOCK(hi2c);
 800143c:	68fb      	ldr	r3, [r7, #12]
 800143e:	2200      	movs	r2, #0
 8001440:	f883 203c 	strb.w	r2, [r3, #60]	; 0x3c

    return HAL_OK;
 8001444:	2300      	movs	r3, #0
 8001446:	e000      	b.n	800144a <HAL_I2C_Mem_Write+0x1e2>
  }
  else
  {
    return HAL_BUSY;
 8001448:	2302      	movs	r3, #2
  }
}
 800144a:	4618      	mov	r0, r3
 800144c:	3718      	adds	r7, #24
 800144e:	46bd      	mov	sp, r7
 8001450:	bd80      	pop	{r7, pc}
 8001452:	bf00      	nop
 8001454:	00100002 	.word	0x00100002
 8001458:	ffff0000 	.word	0xffff0000

0800145c <I2C_RequestMemoryWrite>:
  * @param  Timeout Timeout duration
  * @param  Tickstart Tick start value
  * @retval HAL status
  */
static HAL_StatusTypeDef I2C_RequestMemoryWrite(I2C_HandleTypeDef *hi2c, uint16_t DevAddress, uint16_t MemAddress, uint16_t MemAddSize, uint32_t Timeout, uint32_t Tickstart)
{
 800145c:	b580      	push	{r7, lr}
 800145e:	b088      	sub	sp, #32
 8001460:	af02      	add	r7, sp, #8
 8001462:	60f8      	str	r0, [r7, #12]
 8001464:	4608      	mov	r0, r1
 8001466:	4611      	mov	r1, r2
 8001468:	461a      	mov	r2, r3
 800146a:	4603      	mov	r3, r0
 800146c:	817b      	strh	r3, [r7, #10]
 800146e:	460b      	mov	r3, r1
 8001470:	813b      	strh	r3, [r7, #8]
 8001472:	4613      	mov	r3, r2
 8001474:	80fb      	strh	r3, [r7, #6]
  /* Generate Start */
  SET_BIT(hi2c->Instance->CR1, I2C_CR1_START);
 8001476:	68fb      	ldr	r3, [r7, #12]
 8001478:	681b      	ldr	r3, [r3, #0]
 800147a:	681a      	ldr	r2, [r3, #0]
 800147c:	68fb      	ldr	r3, [r7, #12]
 800147e:	681b      	ldr	r3, [r3, #0]
 8001480:	f442 7280 	orr.w	r2, r2, #256	; 0x100
 8001484:	601a      	str	r2, [r3, #0]

  /* Wait until SB flag is set */
  if (I2C_WaitOnFlagUntilTimeout(hi2c, I2C_FLAG_SB, RESET, Timeout, Tickstart) != HAL_OK)
 8001486:	6a7b      	ldr	r3, [r7, #36]	; 0x24
 8001488:	9300      	str	r3, [sp, #0]
 800148a:	6a3b      	ldr	r3, [r7, #32]
 800148c:	2200      	movs	r2, #0
 800148e:	f04f 1101 	mov.w	r1, #65537	; 0x10001
 8001492:	68f8      	ldr	r0, [r7, #12]
 8001494:	f000 f878 	bl	8001588 <I2C_WaitOnFlagUntilTimeout>
 8001498:	4603      	mov	r3, r0
 800149a:	2b00      	cmp	r3, #0
 800149c:	d00d      	beq.n	80014ba <I2C_RequestMemoryWrite+0x5e>
  {
    if (READ_BIT(hi2c->Instance->CR1, I2C_CR1_START) == I2C_CR1_START)
 800149e:	68fb      	ldr	r3, [r7, #12]
 80014a0:	681b      	ldr	r3, [r3, #0]
 80014a2:	681b      	ldr	r3, [r3, #0]
 80014a4:	f403 7380 	and.w	r3, r3, #256	; 0x100
 80014a8:	f5b3 7f80 	cmp.w	r3, #256	; 0x100
 80014ac:	d103      	bne.n	80014b6 <I2C_RequestMemoryWrite+0x5a>
    {
      hi2c->ErrorCode = HAL_I2C_WRONG_START;
 80014ae:	68fb      	ldr	r3, [r7, #12]
 80014b0:	f44f 7200 	mov.w	r2, #512	; 0x200
 80014b4:	641a      	str	r2, [r3, #64]	; 0x40
    }
    return HAL_TIMEOUT;
 80014b6:	2303      	movs	r3, #3
 80014b8:	e05f      	b.n	800157a <I2C_RequestMemoryWrite+0x11e>
  }

  /* Send slave address */
  hi2c->Instance->DR = I2C_7BIT_ADD_WRITE(DevAddress);
 80014ba:	897b      	ldrh	r3, [r7, #10]
 80014bc:	b2db      	uxtb	r3, r3
 80014be:	461a      	mov	r2, r3
 80014c0:	68fb      	ldr	r3, [r7, #12]
 80014c2:	681b      	ldr	r3, [r3, #0]
 80014c4:	f002 02fe 	and.w	r2, r2, #254	; 0xfe
 80014c8:	611a      	str	r2, [r3, #16]

  /* Wait until ADDR flag is set */
  if (I2C_WaitOnMasterAddressFlagUntilTimeout(hi2c, I2C_FLAG_ADDR, Timeout, Tickstart) != HAL_OK)
 80014ca:	6a7b      	ldr	r3, [r7, #36]	; 0x24
 80014cc:	6a3a      	ldr	r2, [r7, #32]
 80014ce:	492d      	ldr	r1, [pc, #180]	; (8001584 <I2C_RequestMemoryWrite+0x128>)
 80014d0:	68f8      	ldr	r0, [r7, #12]
 80014d2:	f000 f8b0 	bl	8001636 <I2C_WaitOnMasterAddressFlagUntilTimeout>
 80014d6:	4603      	mov	r3, r0
 80014d8:	2b00      	cmp	r3, #0
 80014da:	d001      	beq.n	80014e0 <I2C_RequestMemoryWrite+0x84>
  {
    return HAL_ERROR;
 80014dc:	2301      	movs	r3, #1
 80014de:	e04c      	b.n	800157a <I2C_RequestMemoryWrite+0x11e>
  }

  /* Clear ADDR flag */
  __HAL_I2C_CLEAR_ADDRFLAG(hi2c);
 80014e0:	2300      	movs	r3, #0
 80014e2:	617b      	str	r3, [r7, #20]
 80014e4:	68fb      	ldr	r3, [r7, #12]
 80014e6:	681b      	ldr	r3, [r3, #0]
 80014e8:	695b      	ldr	r3, [r3, #20]
 80014ea:	617b      	str	r3, [r7, #20]
 80014ec:	68fb      	ldr	r3, [r7, #12]
 80014ee:	681b      	ldr	r3, [r3, #0]
 80014f0:	699b      	ldr	r3, [r3, #24]
 80014f2:	617b      	str	r3, [r7, #20]
 80014f4:	697b      	ldr	r3, [r7, #20]

  /* Wait until TXE flag is set */
  if (I2C_WaitOnTXEFlagUntilTimeout(hi2c, Timeout, Tickstart) != HAL_OK)
 80014f6:	6a7a      	ldr	r2, [r7, #36]	; 0x24
 80014f8:	6a39      	ldr	r1, [r7, #32]
 80014fa:	68f8      	ldr	r0, [r7, #12]
 80014fc:	f000 f91a 	bl	8001734 <I2C_WaitOnTXEFlagUntilTimeout>
 8001500:	4603      	mov	r3, r0
 8001502:	2b00      	cmp	r3, #0
 8001504:	d00d      	beq.n	8001522 <I2C_RequestMemoryWrite+0xc6>
  {
    if (hi2c->ErrorCode == HAL_I2C_ERROR_AF)
 8001506:	68fb      	ldr	r3, [r7, #12]
 8001508:	6c1b      	ldr	r3, [r3, #64]	; 0x40
 800150a:	2b04      	cmp	r3, #4
 800150c:	d107      	bne.n	800151e <I2C_RequestMemoryWrite+0xc2>
    {
      /* Generate Stop */
      SET_BIT(hi2c->Instance->CR1, I2C_CR1_STOP);
 800150e:	68fb      	ldr	r3, [r7, #12]
 8001510:	681b      	ldr	r3, [r3, #0]
 8001512:	681a      	ldr	r2, [r3, #0]
 8001514:	68fb      	ldr	r3, [r7, #12]
 8001516:	681b      	ldr	r3, [r3, #0]
 8001518:	f442 7200 	orr.w	r2, r2, #512	; 0x200
 800151c:	601a      	str	r2, [r3, #0]
    }
    return HAL_ERROR;
 800151e:	2301      	movs	r3, #1
 8001520:	e02b      	b.n	800157a <I2C_RequestMemoryWrite+0x11e>
  }

  /* If Memory address size is 8Bit */
  if (MemAddSize == I2C_MEMADD_SIZE_8BIT)
 8001522:	88fb      	ldrh	r3, [r7, #6]
 8001524:	2b01      	cmp	r3, #1
 8001526:	d105      	bne.n	8001534 <I2C_RequestMemoryWrite+0xd8>
  {
    /* Send Memory Address */
    hi2c->Instance->DR = I2C_MEM_ADD_LSB(MemAddress);
 8001528:	893b      	ldrh	r3, [r7, #8]
 800152a:	b2da      	uxtb	r2, r3
 800152c:	68fb      	ldr	r3, [r7, #12]
 800152e:	681b      	ldr	r3, [r3, #0]
 8001530:	611a      	str	r2, [r3, #16]
 8001532:	e021      	b.n	8001578 <I2C_RequestMemoryWrite+0x11c>
  }
  /* If Memory address size is 16Bit */
  else
  {
    /* Send MSB of Memory Address */
    hi2c->Instance->DR = I2C_MEM_ADD_MSB(MemAddress);
 8001534:	893b      	ldrh	r3, [r7, #8]
 8001536:	0a1b      	lsrs	r3, r3, #8
 8001538:	b29b      	uxth	r3, r3
 800153a:	b2da      	uxtb	r2, r3
 800153c:	68fb      	ldr	r3, [r7, #12]
 800153e:	681b      	ldr	r3, [r3, #0]
 8001540:	611a      	str	r2, [r3, #16]

    /* Wait until TXE flag is set */
    if (I2C_WaitOnTXEFlagUntilTimeout(hi2c, Timeout, Tickstart) != HAL_OK)
 8001542:	6a7a      	ldr	r2, [r7, #36]	; 0x24
 8001544:	6a39      	ldr	r1, [r7, #32]
 8001546:	68f8      	ldr	r0, [r7, #12]
 8001548:	f000 f8f4 	bl	8001734 <I2C_WaitOnTXEFlagUntilTimeout>
 800154c:	4603      	mov	r3, r0
 800154e:	2b00      	cmp	r3, #0
 8001550:	d00d      	beq.n	800156e <I2C_RequestMemoryWrite+0x112>
    {
      if (hi2c->ErrorCode == HAL_I2C_ERROR_AF)
 8001552:	68fb      	ldr	r3, [r7, #12]
 8001554:	6c1b      	ldr	r3, [r3, #64]	; 0x40
 8001556:	2b04      	cmp	r3, #4
 8001558:	d107      	bne.n	800156a <I2C_RequestMemoryWrite+0x10e>
      {
        /* Generate Stop */
        SET_BIT(hi2c->Instance->CR1, I2C_CR1_STOP);
 800155a:	68fb      	ldr	r3, [r7, #12]
 800155c:	681b      	ldr	r3, [r3, #0]
 800155e:	681a      	ldr	r2, [r3, #0]
 8001560:	68fb      	ldr	r3, [r7, #12]
 8001562:	681b      	ldr	r3, [r3, #0]
 8001564:	f442 7200 	orr.w	r2, r2, #512	; 0x200
 8001568:	601a      	str	r2, [r3, #0]
      }
      return HAL_ERROR;
 800156a:	2301      	movs	r3, #1
 800156c:	e005      	b.n	800157a <I2C_RequestMemoryWrite+0x11e>
    }

    /* Send LSB of Memory Address */
    hi2c->Instance->DR = I2C_MEM_ADD_LSB(MemAddress);
 800156e:	893b      	ldrh	r3, [r7, #8]
 8001570:	b2da      	uxtb	r2, r3
 8001572:	68fb      	ldr	r3, [r7, #12]
 8001574:	681b      	ldr	r3, [r3, #0]
 8001576:	611a      	str	r2, [r3, #16]
  }

  return HAL_OK;
 8001578:	2300      	movs	r3, #0
}
 800157a:	4618      	mov	r0, r3
 800157c:	3718      	adds	r7, #24
 800157e:	46bd      	mov	sp, r7
 8001580:	bd80      	pop	{r7, pc}
 8001582:	bf00      	nop
 8001584:	00010002 	.word	0x00010002

08001588 <I2C_WaitOnFlagUntilTimeout>:
  * @param  Timeout Timeout duration
  * @param  Tickstart Tick start value
  * @retval HAL status
  */
static HAL_StatusTypeDef I2C_WaitOnFlagUntilTimeout(I2C_HandleTypeDef *hi2c, uint32_t Flag, FlagStatus Status, uint32_t Timeout, uint32_t Tickstart)
{
 8001588:	b580      	push	{r7, lr}
 800158a:	b084      	sub	sp, #16
 800158c:	af00      	add	r7, sp, #0
 800158e:	60f8      	str	r0, [r7, #12]
 8001590:	60b9      	str	r1, [r7, #8]
 8001592:	603b      	str	r3, [r7, #0]
 8001594:	4613      	mov	r3, r2
 8001596:	71fb      	strb	r3, [r7, #7]
  /* Wait until flag is set */
  while (__HAL_I2C_GET_FLAG(hi2c, Flag) == Status)
 8001598:	e025      	b.n	80015e6 <I2C_WaitOnFlagUntilTimeout+0x5e>
  {
    /* Check for the Timeout */
    if (Timeout != HAL_MAX_DELAY)
 800159a:	683b      	ldr	r3, [r7, #0]
 800159c:	f1b3 3fff 	cmp.w	r3, #4294967295
 80015a0:	d021      	beq.n	80015e6 <I2C_WaitOnFlagUntilTimeout+0x5e>
    {
      if (((HAL_GetTick() - Tickstart) > Timeout) || (Timeout == 0U))
 80015a2:	f7ff fa4d 	bl	8000a40 <HAL_GetTick>
 80015a6:	4602      	mov	r2, r0
 80015a8:	69bb      	ldr	r3, [r7, #24]
 80015aa:	1ad3      	subs	r3, r2, r3
 80015ac:	683a      	ldr	r2, [r7, #0]
 80015ae:	429a      	cmp	r2, r3
 80015b0:	d302      	bcc.n	80015b8 <I2C_WaitOnFlagUntilTimeout+0x30>
 80015b2:	683b      	ldr	r3, [r7, #0]
 80015b4:	2b00      	cmp	r3, #0
 80015b6:	d116      	bne.n	80015e6 <I2C_WaitOnFlagUntilTimeout+0x5e>
      {
        hi2c->PreviousState     = I2C_STATE_NONE;
 80015b8:	68fb      	ldr	r3, [r7, #12]
 80015ba:	2200      	movs	r2, #0
 80015bc:	631a      	str	r2, [r3, #48]	; 0x30
        hi2c->State             = HAL_I2C_STATE_READY;
 80015be:	68fb      	ldr	r3, [r7, #12]
 80015c0:	2220      	movs	r2, #32
 80015c2:	f883 203d 	strb.w	r2, [r3, #61]	; 0x3d
        hi2c->Mode              = HAL_I2C_MODE_NONE;
 80015c6:	68fb      	ldr	r3, [r7, #12]
 80015c8:	2200      	movs	r2, #0
 80015ca:	f883 203e 	strb.w	r2, [r3, #62]	; 0x3e
        hi2c->ErrorCode         |= HAL_I2C_ERROR_TIMEOUT;
 80015ce:	68fb      	ldr	r3, [r7, #12]
 80015d0:	6c1b      	ldr	r3, [r3, #64]	; 0x40
 80015d2:	f043 0220 	orr.w	r2, r3, #32
 80015d6:	68fb      	ldr	r3, [r7, #12]
 80015d8:	641a      	str	r2, [r3, #64]	; 0x40

        /* Process Unlocked */
        __HAL_UNLOCK(hi2c);
 80015da:	68fb      	ldr	r3, [r7, #12]
 80015dc:	2200      	movs	r2, #0
 80015de:	f883 203c 	strb.w	r2, [r3, #60]	; 0x3c

        return HAL_ERROR;
 80015e2:	2301      	movs	r3, #1
 80015e4:	e023      	b.n	800162e <I2C_WaitOnFlagUntilTimeout+0xa6>
  while (__HAL_I2C_GET_FLAG(hi2c, Flag) == Status)
 80015e6:	68bb      	ldr	r3, [r7, #8]
 80015e8:	0c1b      	lsrs	r3, r3, #16
 80015ea:	b2db      	uxtb	r3, r3
 80015ec:	2b01      	cmp	r3, #1
 80015ee:	d10d      	bne.n	800160c <I2C_WaitOnFlagUntilTimeout+0x84>
 80015f0:	68fb      	ldr	r3, [r7, #12]
 80015f2:	681b      	ldr	r3, [r3, #0]
 80015f4:	695b      	ldr	r3, [r3, #20]
 80015f6:	43da      	mvns	r2, r3
 80015f8:	68bb      	ldr	r3, [r7, #8]
 80015fa:	4013      	ands	r3, r2
 80015fc:	b29b      	uxth	r3, r3
 80015fe:	2b00      	cmp	r3, #0
 8001600:	bf0c      	ite	eq
 8001602:	2301      	moveq	r3, #1
 8001604:	2300      	movne	r3, #0
 8001606:	b2db      	uxtb	r3, r3
 8001608:	461a      	mov	r2, r3
 800160a:	e00c      	b.n	8001626 <I2C_WaitOnFlagUntilTimeout+0x9e>
 800160c:	68fb      	ldr	r3, [r7, #12]
 800160e:	681b      	ldr	r3, [r3, #0]
 8001610:	699b      	ldr	r3, [r3, #24]
 8001612:	43da      	mvns	r2, r3
 8001614:	68bb      	ldr	r3, [r7, #8]
 8001616:	4013      	ands	r3, r2
 8001618:	b29b      	uxth	r3, r3
 800161a:	2b00      	cmp	r3, #0
 800161c:	bf0c      	ite	eq
 800161e:	2301      	moveq	r3, #1
 8001620:	2300      	movne	r3, #0
 8001622:	b2db      	uxtb	r3, r3
 8001624:	461a      	mov	r2, r3
 8001626:	79fb      	ldrb	r3, [r7, #7]
 8001628:	429a      	cmp	r2, r3
 800162a:	d0b6      	beq.n	800159a <I2C_WaitOnFlagUntilTimeout+0x12>
      }
    }
  }
  return HAL_OK;
 800162c:	2300      	movs	r3, #0
}
 800162e:	4618      	mov	r0, r3
 8001630:	3710      	adds	r7, #16
 8001632:	46bd      	mov	sp, r7
 8001634:	bd80      	pop	{r7, pc}

08001636 <I2C_WaitOnMasterAddressFlagUntilTimeout>:
  * @param  Timeout Timeout duration
  * @param  Tickstart Tick start value
  * @retval HAL status
  */
static HAL_StatusTypeDef I2C_WaitOnMasterAddressFlagUntilTimeout(I2C_HandleTypeDef *hi2c, uint32_t Flag, uint32_t Timeout, uint32_t Tickstart)
{
 8001636:	b580      	push	{r7, lr}
 8001638:	b084      	sub	sp, #16
 800163a:	af00      	add	r7, sp, #0
 800163c:	60f8      	str	r0, [r7, #12]
 800163e:	60b9      	str	r1, [r7, #8]
 8001640:	607a      	str	r2, [r7, #4]
 8001642:	603b      	str	r3, [r7, #0]
  while (__HAL_I2C_GET_FLAG(hi2c, Flag) == RESET)
 8001644:	e051      	b.n	80016ea <I2C_WaitOnMasterAddressFlagUntilTimeout+0xb4>
  {
    if (__HAL_I2C_GET_FLAG(hi2c, I2C_FLAG_AF) == SET)
 8001646:	68fb      	ldr	r3, [r7, #12]
 8001648:	681b      	ldr	r3, [r3, #0]
 800164a:	695b      	ldr	r3, [r3, #20]
 800164c:	f403 6380 	and.w	r3, r3, #1024	; 0x400
 8001650:	f5b3 6f80 	cmp.w	r3, #1024	; 0x400
 8001654:	d123      	bne.n	800169e <I2C_WaitOnMasterAddressFlagUntilTimeout+0x68>
    {
      /* Generate Stop */
      SET_BIT(hi2c->Instance->CR1, I2C_CR1_STOP);
 8001656:	68fb      	ldr	r3, [r7, #12]
 8001658:	681b      	ldr	r3, [r3, #0]
 800165a:	681a      	ldr	r2, [r3, #0]
 800165c:	68fb      	ldr	r3, [r7, #12]
 800165e:	681b      	ldr	r3, [r3, #0]
 8001660:	f442 7200 	orr.w	r2, r2, #512	; 0x200
 8001664:	601a      	str	r2, [r3, #0]

      /* Clear AF Flag */
      __HAL_I2C_CLEAR_FLAG(hi2c, I2C_FLAG_AF);
 8001666:	68fb      	ldr	r3, [r7, #12]
 8001668:	681b      	ldr	r3, [r3, #0]
 800166a:	f46f 6280 	mvn.w	r2, #1024	; 0x400
 800166e:	615a      	str	r2, [r3, #20]

      hi2c->PreviousState       = I2C_STATE_NONE;
 8001670:	68fb      	ldr	r3, [r7, #12]
 8001672:	2200      	movs	r2, #0
 8001674:	631a      	str	r2, [r3, #48]	; 0x30
      hi2c->State               = HAL_I2C_STATE_READY;
 8001676:	68fb      	ldr	r3, [r7, #12]
 8001678:	2220      	movs	r2, #32
 800167a:	f883 203d 	strb.w	r2, [r3, #61]	; 0x3d
      hi2c->Mode                = HAL_I2C_MODE_NONE;
 800167e:	68fb      	ldr	r3, [r7, #12]
 8001680:	2200      	movs	r2, #0
 8001682:	f883 203e 	strb.w	r2, [r3, #62]	; 0x3e
      hi2c->ErrorCode           |= HAL_I2C_ERROR_AF;
 8001686:	68fb      	ldr	r3, [r7, #12]
 8001688:	6c1b      	ldr	r3, [r3, #64]	; 0x40
 800168a:	f043 0204 	orr.w	r2, r3, #4
 800168e:	68fb      	ldr	r3, [r7, #12]
 8001690:	641a      	str	r2, [r3, #64]	; 0x40

      /* Process Unlocked */
      __HAL_UNLOCK(hi2c);
 8001692:	68fb      	ldr	r3, [r7, #12]
 8001694:	2200      	movs	r2, #0
 8001696:	f883 203c 	strb.w	r2, [r3, #60]	; 0x3c

      return HAL_ERROR;
 800169a:	2301      	movs	r3, #1
 800169c:	e046      	b.n	800172c <I2C_WaitOnMasterAddressFlagUntilTimeout+0xf6>
    }

    /* Check for the Timeout */
    if (Timeout != HAL_MAX_DELAY)
 800169e:	687b      	ldr	r3, [r7, #4]
 80016a0:	f1b3 3fff 	cmp.w	r3, #4294967295
 80016a4:	d021      	beq.n	80016ea <I2C_WaitOnMasterAddressFlagUntilTimeout+0xb4>
    {
      if (((HAL_GetTick() - Tickstart) > Timeout) || (Timeout == 0U))
 80016a6:	f7ff f9cb 	bl	8000a40 <HAL_GetTick>
 80016aa:	4602      	mov	r2, r0
 80016ac:	683b      	ldr	r3, [r7, #0]
 80016ae:	1ad3      	subs	r3, r2, r3
 80016b0:	687a      	ldr	r2, [r7, #4]
 80016b2:	429a      	cmp	r2, r3
 80016b4:	d302      	bcc.n	80016bc <I2C_WaitOnMasterAddressFlagUntilTimeout+0x86>
 80016b6:	687b      	ldr	r3, [r7, #4]
 80016b8:	2b00      	cmp	r3, #0
 80016ba:	d116      	bne.n	80016ea <I2C_WaitOnMasterAddressFlagUntilTimeout+0xb4>
      {
        hi2c->PreviousState       = I2C_STATE_NONE;
 80016bc:	68fb      	ldr	r3, [r7, #12]
 80016be:	2200      	movs	r2, #0
 80016c0:	631a      	str	r2, [r3, #48]	; 0x30
        hi2c->State               = HAL_I2C_STATE_READY;
 80016c2:	68fb      	ldr	r3, [r7, #12]
 80016c4:	2220      	movs	r2, #32
 80016c6:	f883 203d 	strb.w	r2, [r3, #61]	; 0x3d
        hi2c->Mode                = HAL_I2C_MODE_NONE;
 80016ca:	68fb      	ldr	r3, [r7, #12]
 80016cc:	2200      	movs	r2, #0
 80016ce:	f883 203e 	strb.w	r2, [r3, #62]	; 0x3e
        hi2c->ErrorCode           |= HAL_I2C_ERROR_TIMEOUT;
 80016d2:	68fb      	ldr	r3, [r7, #12]
 80016d4:	6c1b      	ldr	r3, [r3, #64]	; 0x40
 80016d6:	f043 0220 	orr.w	r2, r3, #32
 80016da:	68fb      	ldr	r3, [r7, #12]
 80016dc:	641a      	str	r2, [r3, #64]	; 0x40

        /* Process Unlocked */
        __HAL_UNLOCK(hi2c);
 80016de:	68fb      	ldr	r3, [r7, #12]
 80016e0:	2200      	movs	r2, #0
 80016e2:	f883 203c 	strb.w	r2, [r3, #60]	; 0x3c

        return HAL_ERROR;
 80016e6:	2301      	movs	r3, #1
 80016e8:	e020      	b.n	800172c <I2C_WaitOnMasterAddressFlagUntilTimeout+0xf6>
  while (__HAL_I2C_GET_FLAG(hi2c, Flag) == RESET)
 80016ea:	68bb      	ldr	r3, [r7, #8]
 80016ec:	0c1b      	lsrs	r3, r3, #16
 80016ee:	b2db      	uxtb	r3, r3
 80016f0:	2b01      	cmp	r3, #1
 80016f2:	d10c      	bne.n	800170e <I2C_WaitOnMasterAddressFlagUntilTimeout+0xd8>
 80016f4:	68fb      	ldr	r3, [r7, #12]
 80016f6:	681b      	ldr	r3, [r3, #0]
 80016f8:	695b      	ldr	r3, [r3, #20]
 80016fa:	43da      	mvns	r2, r3
 80016fc:	68bb      	ldr	r3, [r7, #8]
 80016fe:	4013      	ands	r3, r2
 8001700:	b29b      	uxth	r3, r3
 8001702:	2b00      	cmp	r3, #0
 8001704:	bf14      	ite	ne
 8001706:	2301      	movne	r3, #1
 8001708:	2300      	moveq	r3, #0
 800170a:	b2db      	uxtb	r3, r3
 800170c:	e00b      	b.n	8001726 <I2C_WaitOnMasterAddressFlagUntilTimeout+0xf0>
 800170e:	68fb      	ldr	r3, [r7, #12]
 8001710:	681b      	ldr	r3, [r3, #0]
 8001712:	699b      	ldr	r3, [r3, #24]
 8001714:	43da      	mvns	r2, r3
 8001716:	68bb      	ldr	r3, [r7, #8]
 8001718:	4013      	ands	r3, r2
 800171a:	b29b      	uxth	r3, r3
 800171c:	2b00      	cmp	r3, #0
 800171e:	bf14      	ite	ne
 8001720:	2301      	movne	r3, #1
 8001722:	2300      	moveq	r3, #0
 8001724:	b2db      	uxtb	r3, r3
 8001726:	2b00      	cmp	r3, #0
 8001728:	d18d      	bne.n	8001646 <I2C_WaitOnMasterAddressFlagUntilTimeout+0x10>
      }
    }
  }
  return HAL_OK;
 800172a:	2300      	movs	r3, #0
}
 800172c:	4618      	mov	r0, r3
 800172e:	3710      	adds	r7, #16
 8001730:	46bd      	mov	sp, r7
 8001732:	bd80      	pop	{r7, pc}

08001734 <I2C_WaitOnTXEFlagUntilTimeout>:
  * @param  Timeout Timeout duration
  * @param  Tickstart Tick start value
  * @retval HAL status
  */
static HAL_StatusTypeDef I2C_WaitOnTXEFlagUntilTimeout(I2C_HandleTypeDef *hi2c, uint32_t Timeout, uint32_t Tickstart)
{
 8001734:	b580      	push	{r7, lr}
 8001736:	b084      	sub	sp, #16
 8001738:	af00      	add	r7, sp, #0
 800173a:	60f8      	str	r0, [r7, #12]
 800173c:	60b9      	str	r1, [r7, #8]
 800173e:	607a      	str	r2, [r7, #4]
  while (__HAL_I2C_GET_FLAG(hi2c, I2C_FLAG_TXE) == RESET)
 8001740:	e02d      	b.n	800179e <I2C_WaitOnTXEFlagUntilTimeout+0x6a>
  {
    /* Check if a NACK is detected */
    if (I2C_IsAcknowledgeFailed(hi2c) != HAL_OK)
 8001742:	68f8      	ldr	r0, [r7, #12]
 8001744:	f000 f878 	bl	8001838 <I2C_IsAcknowledgeFailed>
 8001748:	4603      	mov	r3, r0
 800174a:	2b00      	cmp	r3, #0
 800174c:	d001      	beq.n	8001752 <I2C_WaitOnTXEFlagUntilTimeout+0x1e>
    {
      return HAL_ERROR;
 800174e:	2301      	movs	r3, #1
 8001750:	e02d      	b.n	80017ae <I2C_WaitOnTXEFlagUntilTimeout+0x7a>
    }

    /* Check for the Timeout */
    if (Timeout != HAL_MAX_DELAY)
 8001752:	68bb      	ldr	r3, [r7, #8]
 8001754:	f1b3 3fff 	cmp.w	r3, #4294967295
 8001758:	d021      	beq.n	800179e <I2C_WaitOnTXEFlagUntilTimeout+0x6a>
    {
      if (((HAL_GetTick() - Tickstart) > Timeout) || (Timeout == 0U))
 800175a:	f7ff f971 	bl	8000a40 <HAL_GetTick>
 800175e:	4602      	mov	r2, r0
 8001760:	687b      	ldr	r3, [r7, #4]
 8001762:	1ad3      	subs	r3, r2, r3
 8001764:	68ba      	ldr	r2, [r7, #8]
 8001766:	429a      	cmp	r2, r3
 8001768:	d302      	bcc.n	8001770 <I2C_WaitOnTXEFlagUntilTimeout+0x3c>
 800176a:	68bb      	ldr	r3, [r7, #8]
 800176c:	2b00      	cmp	r3, #0
 800176e:	d116      	bne.n	800179e <I2C_WaitOnTXEFlagUntilTimeout+0x6a>
      {
        hi2c->PreviousState       = I2C_STATE_NONE;
 8001770:	68fb      	ldr	r3, [r7, #12]
 8001772:	2200      	movs	r2, #0
 8001774:	631a      	str	r2, [r3, #48]	; 0x30
        hi2c->State               = HAL_I2C_STATE_READY;
 8001776:	68fb      	ldr	r3, [r7, #12]
 8001778:	2220      	movs	r2, #32
 800177a:	f883 203d 	strb.w	r2, [r3, #61]	; 0x3d
        hi2c->Mode                = HAL_I2C_MODE_NONE;
 800177e:	68fb      	ldr	r3, [r7, #12]
 8001780:	2200      	movs	r2, #0
 8001782:	f883 203e 	strb.w	r2, [r3, #62]	; 0x3e
        hi2c->ErrorCode           |= HAL_I2C_ERROR_TIMEOUT;
 8001786:	68fb      	ldr	r3, [r7, #12]
 8001788:	6c1b      	ldr	r3, [r3, #64]	; 0x40
 800178a:	f043 0220 	orr.w	r2, r3, #32
 800178e:	68fb      	ldr	r3, [r7, #12]
 8001790:	641a      	str	r2, [r3, #64]	; 0x40

        /* Process Unlocked */
        __HAL_UNLOCK(hi2c);
 8001792:	68fb      	ldr	r3, [r7, #12]
 8001794:	2200      	movs	r2, #0
 8001796:	f883 203c 	strb.w	r2, [r3, #60]	; 0x3c

        return HAL_ERROR;
 800179a:	2301      	movs	r3, #1
 800179c:	e007      	b.n	80017ae <I2C_WaitOnTXEFlagUntilTimeout+0x7a>
  while (__HAL_I2C_GET_FLAG(hi2c, I2C_FLAG_TXE) == RESET)
 800179e:	68fb      	ldr	r3, [r7, #12]
 80017a0:	681b      	ldr	r3, [r3, #0]
 80017a2:	695b      	ldr	r3, [r3, #20]
 80017a4:	f003 0380 	and.w	r3, r3, #128	; 0x80
 80017a8:	2b80      	cmp	r3, #128	; 0x80
 80017aa:	d1ca      	bne.n	8001742 <I2C_WaitOnTXEFlagUntilTimeout+0xe>
      }
    }
  }
  return HAL_OK;
 80017ac:	2300      	movs	r3, #0
}
 80017ae:	4618      	mov	r0, r3
 80017b0:	3710      	adds	r7, #16
 80017b2:	46bd      	mov	sp, r7
 80017b4:	bd80      	pop	{r7, pc}

080017b6 <I2C_WaitOnBTFFlagUntilTimeout>:
  * @param  Timeout Timeout duration
  * @param  Tickstart Tick start value
  * @retval HAL status
  */
static HAL_StatusTypeDef I2C_WaitOnBTFFlagUntilTimeout(I2C_HandleTypeDef *hi2c, uint32_t Timeout, uint32_t Tickstart)
{
 80017b6:	b580      	push	{r7, lr}
 80017b8:	b084      	sub	sp, #16
 80017ba:	af00      	add	r7, sp, #0
 80017bc:	60f8      	str	r0, [r7, #12]
 80017be:	60b9      	str	r1, [r7, #8]
 80017c0:	607a      	str	r2, [r7, #4]
  while (__HAL_I2C_GET_FLAG(hi2c, I2C_FLAG_BTF) == RESET)
 80017c2:	e02d      	b.n	8001820 <I2C_WaitOnBTFFlagUntilTimeout+0x6a>
  {
    /* Check if a NACK is detected */
    if (I2C_IsAcknowledgeFailed(hi2c) != HAL_OK)
 80017c4:	68f8      	ldr	r0, [r7, #12]
 80017c6:	f000 f837 	bl	8001838 <I2C_IsAcknowledgeFailed>
 80017ca:	4603      	mov	r3, r0
 80017cc:	2b00      	cmp	r3, #0
 80017ce:	d001      	beq.n	80017d4 <I2C_WaitOnBTFFlagUntilTimeout+0x1e>
    {
      return HAL_ERROR;
 80017d0:	2301      	movs	r3, #1
 80017d2:	e02d      	b.n	8001830 <I2C_WaitOnBTFFlagUntilTimeout+0x7a>
    }

    /* Check for the Timeout */
    if (Timeout != HAL_MAX_DELAY)
 80017d4:	68bb      	ldr	r3, [r7, #8]
 80017d6:	f1b3 3fff 	cmp.w	r3, #4294967295
 80017da:	d021      	beq.n	8001820 <I2C_WaitOnBTFFlagUntilTimeout+0x6a>
    {
      if (((HAL_GetTick() - Tickstart) > Timeout) || (Timeout == 0U))
 80017dc:	f7ff f930 	bl	8000a40 <HAL_GetTick>
 80017e0:	4602      	mov	r2, r0
 80017e2:	687b      	ldr	r3, [r7, #4]
 80017e4:	1ad3      	subs	r3, r2, r3
 80017e6:	68ba      	ldr	r2, [r7, #8]
 80017e8:	429a      	cmp	r2, r3
 80017ea:	d302      	bcc.n	80017f2 <I2C_WaitOnBTFFlagUntilTimeout+0x3c>
 80017ec:	68bb      	ldr	r3, [r7, #8]
 80017ee:	2b00      	cmp	r3, #0
 80017f0:	d116      	bne.n	8001820 <I2C_WaitOnBTFFlagUntilTimeout+0x6a>
      {
        hi2c->PreviousState       = I2C_STATE_NONE;
 80017f2:	68fb      	ldr	r3, [r7, #12]
 80017f4:	2200      	movs	r2, #0
 80017f6:	631a      	str	r2, [r3, #48]	; 0x30
        hi2c->State               = HAL_I2C_STATE_READY;
 80017f8:	68fb      	ldr	r3, [r7, #12]
 80017fa:	2220      	movs	r2, #32
 80017fc:	f883 203d 	strb.w	r2, [r3, #61]	; 0x3d
        hi2c->Mode                = HAL_I2C_MODE_NONE;
 8001800:	68fb      	ldr	r3, [r7, #12]
 8001802:	2200      	movs	r2, #0
 8001804:	f883 203e 	strb.w	r2, [r3, #62]	; 0x3e
        hi2c->ErrorCode           |= HAL_I2C_ERROR_TIMEOUT;
 8001808:	68fb      	ldr	r3, [r7, #12]
 800180a:	6c1b      	ldr	r3, [r3, #64]	; 0x40
 800180c:	f043 0220 	orr.w	r2, r3, #32
 8001810:	68fb      	ldr	r3, [r7, #12]
 8001812:	641a      	str	r2, [r3, #64]	; 0x40

        /* Process Unlocked */
        __HAL_UNLOCK(hi2c);
 8001814:	68fb      	ldr	r3, [r7, #12]
 8001816:	2200      	movs	r2, #0
 8001818:	f883 203c 	strb.w	r2, [r3, #60]	; 0x3c

        return HAL_ERROR;
 800181c:	2301      	movs	r3, #1
 800181e:	e007      	b.n	8001830 <I2C_WaitOnBTFFlagUntilTimeout+0x7a>
  while (__HAL_I2C_GET_FLAG(hi2c, I2C_FLAG_BTF) == RESET)
 8001820:	68fb      	ldr	r3, [r7, #12]
 8001822:	681b      	ldr	r3, [r3, #0]
 8001824:	695b      	ldr	r3, [r3, #20]
 8001826:	f003 0304 	and.w	r3, r3, #4
 800182a:	2b04      	cmp	r3, #4
 800182c:	d1ca      	bne.n	80017c4 <I2C_WaitOnBTFFlagUntilTimeout+0xe>
      }
    }
  }
  return HAL_OK;
 800182e:	2300      	movs	r3, #0
}
 8001830:	4618      	mov	r0, r3
 8001832:	3710      	adds	r7, #16
 8001834:	46bd      	mov	sp, r7
 8001836:	bd80      	pop	{r7, pc}

08001838 <I2C_IsAcknowledgeFailed>:
  * @param  hi2c Pointer to a I2C_HandleTypeDef structure that contains
  *                the configuration information for the specified I2C.
  * @retval HAL status
  */
static HAL_StatusTypeDef I2C_IsAcknowledgeFailed(I2C_HandleTypeDef *hi2c)
{
 8001838:	b480      	push	{r7}
 800183a:	b083      	sub	sp, #12
 800183c:	af00      	add	r7, sp, #0
 800183e:	6078      	str	r0, [r7, #4]
  if (__HAL_I2C_GET_FLAG(hi2c, I2C_FLAG_AF) == SET)
 8001840:	687b      	ldr	r3, [r7, #4]
 8001842:	681b      	ldr	r3, [r3, #0]
 8001844:	695b      	ldr	r3, [r3, #20]
 8001846:	f403 6380 	and.w	r3, r3, #1024	; 0x400
 800184a:	f5b3 6f80 	cmp.w	r3, #1024	; 0x400
 800184e:	d11b      	bne.n	8001888 <I2C_IsAcknowledgeFailed+0x50>
  {
    /* Clear NACKF Flag */
    __HAL_I2C_CLEAR_FLAG(hi2c, I2C_FLAG_AF);
 8001850:	687b      	ldr	r3, [r7, #4]
 8001852:	681b      	ldr	r3, [r3, #0]
 8001854:	f46f 6280 	mvn.w	r2, #1024	; 0x400
 8001858:	615a      	str	r2, [r3, #20]

    hi2c->PreviousState       = I2C_STATE_NONE;
 800185a:	687b      	ldr	r3, [r7, #4]
 800185c:	2200      	movs	r2, #0
 800185e:	631a      	str	r2, [r3, #48]	; 0x30
    hi2c->State               = HAL_I2C_STATE_READY;
 8001860:	687b      	ldr	r3, [r7, #4]
 8001862:	2220      	movs	r2, #32
 8001864:	f883 203d 	strb.w	r2, [r3, #61]	; 0x3d
    hi2c->Mode                = HAL_I2C_MODE_NONE;
 8001868:	687b      	ldr	r3, [r7, #4]
 800186a:	2200      	movs	r2, #0
 800186c:	f883 203e 	strb.w	r2, [r3, #62]	; 0x3e
    hi2c->ErrorCode           |= HAL_I2C_ERROR_AF;
 8001870:	687b      	ldr	r3, [r7, #4]
 8001872:	6c1b      	ldr	r3, [r3, #64]	; 0x40
 8001874:	f043 0204 	orr.w	r2, r3, #4
 8001878:	687b      	ldr	r3, [r7, #4]
 800187a:	641a      	str	r2, [r3, #64]	; 0x40

    /* Process Unlocked */
    __HAL_UNLOCK(hi2c);
 800187c:	687b      	ldr	r3, [r7, #4]
 800187e:	2200      	movs	r2, #0
 8001880:	f883 203c 	strb.w	r2, [r3, #60]	; 0x3c

    return HAL_ERROR;
 8001884:	2301      	movs	r3, #1
 8001886:	e000      	b.n	800188a <I2C_IsAcknowledgeFailed+0x52>
  }
  return HAL_OK;
 8001888:	2300      	movs	r3, #0
}
 800188a:	4618      	mov	r0, r3
 800188c:	370c      	adds	r7, #12
 800188e:	46bd      	mov	sp, r7
 8001890:	bc80      	pop	{r7}
 8001892:	4770      	bx	lr

08001894 <HAL_PWR_EnableBkUpAccess>:
  * @note   If the HSE divided by 128 is used as the RTC clock, the
  *         Backup Domain Access should be kept enabled.
  * @retval None
  */
void HAL_PWR_EnableBkUpAccess(void)
{
 8001894:	b480      	push	{r7}
 8001896:	af00      	add	r7, sp, #0
  /* Enable access to RTC and backup registers */
  *(__IO uint32_t *) CR_DBP_BB = (uint32_t)ENABLE;
 8001898:	4b03      	ldr	r3, [pc, #12]	; (80018a8 <HAL_PWR_EnableBkUpAccess+0x14>)
 800189a:	2201      	movs	r2, #1
 800189c:	601a      	str	r2, [r3, #0]
}
 800189e:	bf00      	nop
 80018a0:	46bd      	mov	sp, r7
 80018a2:	bc80      	pop	{r7}
 80018a4:	4770      	bx	lr
 80018a6:	bf00      	nop
 80018a8:	420e0020 	.word	0x420e0020

080018ac <HAL_RCC_OscConfig>:
  *         supported by this macro. User should request a transition to HSE Off
  *         first and then HSE On or HSE Bypass.
  * @retval HAL status
  */
HAL_StatusTypeDef HAL_RCC_OscConfig(RCC_OscInitTypeDef  *RCC_OscInitStruct)
{
 80018ac:	b580      	push	{r7, lr}
 80018ae:	b086      	sub	sp, #24
 80018b0:	af00      	add	r7, sp, #0
 80018b2:	6078      	str	r0, [r7, #4]
  uint32_t tickstart;
  uint32_t pll_config;

  /* Check Null pointer */
  if (RCC_OscInitStruct == NULL)
 80018b4:	687b      	ldr	r3, [r7, #4]
 80018b6:	2b00      	cmp	r3, #0
 80018b8:	d101      	bne.n	80018be <HAL_RCC_OscConfig+0x12>
  {
    return HAL_ERROR;
 80018ba:	2301      	movs	r3, #1
 80018bc:	e272      	b.n	8001da4 <HAL_RCC_OscConfig+0x4f8>

  /* Check the parameters */
  assert_param(IS_RCC_OSCILLATORTYPE(RCC_OscInitStruct->OscillatorType));

  /*------------------------------- HSE Configuration ------------------------*/
  if (((RCC_OscInitStruct->OscillatorType) & RCC_OSCILLATORTYPE_HSE) == RCC_OSCILLATORTYPE_HSE)
 80018be:	687b      	ldr	r3, [r7, #4]
 80018c0:	681b      	ldr	r3, [r3, #0]
 80018c2:	f003 0301 	and.w	r3, r3, #1
 80018c6:	2b00      	cmp	r3, #0
 80018c8:	f000 8087 	beq.w	80019da <HAL_RCC_OscConfig+0x12e>
  {
    /* Check the parameters */
    assert_param(IS_RCC_HSE(RCC_OscInitStruct->HSEState));

    /* When the HSE is used as system clock or clock source for PLL in these cases it is not allowed to be disabled */
    if ((__HAL_RCC_GET_SYSCLK_SOURCE() == RCC_SYSCLKSOURCE_STATUS_HSE)
 80018cc:	4b92      	ldr	r3, [pc, #584]	; (8001b18 <HAL_RCC_OscConfig+0x26c>)
 80018ce:	685b      	ldr	r3, [r3, #4]
 80018d0:	f003 030c 	and.w	r3, r3, #12
 80018d4:	2b04      	cmp	r3, #4
 80018d6:	d00c      	beq.n	80018f2 <HAL_RCC_OscConfig+0x46>
        || ((__HAL_RCC_GET_SYSCLK_SOURCE() == RCC_SYSCLKSOURCE_STATUS_PLLCLK) && (__HAL_RCC_GET_PLL_OSCSOURCE() == RCC_PLLSOURCE_HSE)))
 80018d8:	4b8f      	ldr	r3, [pc, #572]	; (8001b18 <HAL_RCC_OscConfig+0x26c>)
 80018da:	685b      	ldr	r3, [r3, #4]
 80018dc:	f003 030c 	and.w	r3, r3, #12
 80018e0:	2b08      	cmp	r3, #8
 80018e2:	d112      	bne.n	800190a <HAL_RCC_OscConfig+0x5e>
 80018e4:	4b8c      	ldr	r3, [pc, #560]	; (8001b18 <HAL_RCC_OscConfig+0x26c>)
 80018e6:	685b      	ldr	r3, [r3, #4]
 80018e8:	f403 3380 	and.w	r3, r3, #65536	; 0x10000
 80018ec:	f5b3 3f80 	cmp.w	r3, #65536	; 0x10000
 80018f0:	d10b      	bne.n	800190a <HAL_RCC_OscConfig+0x5e>
    {
      if ((__HAL_RCC_GET_FLAG(RCC_FLAG_HSERDY) != RESET) && (RCC_OscInitStruct->HSEState == RCC_HSE_OFF))
 80018f2:	4b89      	ldr	r3, [pc, #548]	; (8001b18 <HAL_RCC_OscConfig+0x26c>)
 80018f4:	681b      	ldr	r3, [r3, #0]
 80018f6:	f403 3300 	and.w	r3, r3, #131072	; 0x20000
 80018fa:	2b00      	cmp	r3, #0
 80018fc:	d06c      	beq.n	80019d8 <HAL_RCC_OscConfig+0x12c>
 80018fe:	687b      	ldr	r3, [r7, #4]
 8001900:	685b      	ldr	r3, [r3, #4]
 8001902:	2b00      	cmp	r3, #0
 8001904:	d168      	bne.n	80019d8 <HAL_RCC_OscConfig+0x12c>
      {
        return HAL_ERROR;
 8001906:	2301      	movs	r3, #1
 8001908:	e24c      	b.n	8001da4 <HAL_RCC_OscConfig+0x4f8>
      }
    }
    else
    {
      /* Set the new HSE configuration ---------------------------------------*/
      __HAL_RCC_HSE_CONFIG(RCC_OscInitStruct->HSEState);
 800190a:	687b      	ldr	r3, [r7, #4]
 800190c:	685b      	ldr	r3, [r3, #4]
 800190e:	f5b3 3f80 	cmp.w	r3, #65536	; 0x10000
 8001912:	d106      	bne.n	8001922 <HAL_RCC_OscConfig+0x76>
 8001914:	4b80      	ldr	r3, [pc, #512]	; (8001b18 <HAL_RCC_OscConfig+0x26c>)
 8001916:	681b      	ldr	r3, [r3, #0]
 8001918:	4a7f      	ldr	r2, [pc, #508]	; (8001b18 <HAL_RCC_OscConfig+0x26c>)
 800191a:	f443 3380 	orr.w	r3, r3, #65536	; 0x10000
 800191e:	6013      	str	r3, [r2, #0]
 8001920:	e02e      	b.n	8001980 <HAL_RCC_OscConfig+0xd4>
 8001922:	687b      	ldr	r3, [r7, #4]
 8001924:	685b      	ldr	r3, [r3, #4]
 8001926:	2b00      	cmp	r3, #0
 8001928:	d10c      	bne.n	8001944 <HAL_RCC_OscConfig+0x98>
 800192a:	4b7b      	ldr	r3, [pc, #492]	; (8001b18 <HAL_RCC_OscConfig+0x26c>)
 800192c:	681b      	ldr	r3, [r3, #0]
 800192e:	4a7a      	ldr	r2, [pc, #488]	; (8001b18 <HAL_RCC_OscConfig+0x26c>)
 8001930:	f423 3380 	bic.w	r3, r3, #65536	; 0x10000
 8001934:	6013      	str	r3, [r2, #0]
 8001936:	4b78      	ldr	r3, [pc, #480]	; (8001b18 <HAL_RCC_OscConfig+0x26c>)
 8001938:	681b      	ldr	r3, [r3, #0]
 800193a:	4a77      	ldr	r2, [pc, #476]	; (8001b18 <HAL_RCC_OscConfig+0x26c>)
 800193c:	f423 2380 	bic.w	r3, r3, #262144	; 0x40000
 8001940:	6013      	str	r3, [r2, #0]
 8001942:	e01d      	b.n	8001980 <HAL_RCC_OscConfig+0xd4>
 8001944:	687b      	ldr	r3, [r7, #4]
 8001946:	685b      	ldr	r3, [r3, #4]
 8001948:	f5b3 2fa0 	cmp.w	r3, #327680	; 0x50000
 800194c:	d10c      	bne.n	8001968 <HAL_RCC_OscConfig+0xbc>
 800194e:	4b72      	ldr	r3, [pc, #456]	; (8001b18 <HAL_RCC_OscConfig+0x26c>)
 8001950:	681b      	ldr	r3, [r3, #0]
 8001952:	4a71      	ldr	r2, [pc, #452]	; (8001b18 <HAL_RCC_OscConfig+0x26c>)
 8001954:	f443 2380 	orr.w	r3, r3, #262144	; 0x40000
 8001958:	6013      	str	r3, [r2, #0]
 800195a:	4b6f      	ldr	r3, [pc, #444]	; (8001b18 <HAL_RCC_OscConfig+0x26c>)
 800195c:	681b      	ldr	r3, [r3, #0]
 800195e:	4a6e      	ldr	r2, [pc, #440]	; (8001b18 <HAL_RCC_OscConfig+0x26c>)
 8001960:	f443 3380 	orr.w	r3, r3, #65536	; 0x10000
 8001964:	6013      	str	r3, [r2, #0]
 8001966:	e00b      	b.n	8001980 <HAL_RCC_OscConfig+0xd4>
 8001968:	4b6b      	ldr	r3, [pc, #428]	; (8001b18 <HAL_RCC_OscConfig+0x26c>)
 800196a:	681b      	ldr	r3, [r3, #0]
 800196c:	4a6a      	ldr	r2, [pc, #424]	; (8001b18 <HAL_RCC_OscConfig+0x26c>)
 800196e:	f423 3380 	bic.w	r3, r3, #65536	; 0x10000
 8001972:	6013      	str	r3, [r2, #0]
 8001974:	4b68      	ldr	r3, [pc, #416]	; (8001b18 <HAL_RCC_OscConfig+0x26c>)
 8001976:	681b      	ldr	r3, [r3, #0]
 8001978:	4a67      	ldr	r2, [pc, #412]	; (8001b18 <HAL_RCC_OscConfig+0x26c>)
 800197a:	f423 2380 	bic.w	r3, r3, #262144	; 0x40000
 800197e:	6013      	str	r3, [r2, #0]


      /* Check the HSE State */
      if (RCC_OscInitStruct->HSEState != RCC_HSE_OFF)
 8001980:	687b      	ldr	r3, [r7, #4]
 8001982:	685b      	ldr	r3, [r3, #4]
 8001984:	2b00      	cmp	r3, #0
 8001986:	d013      	beq.n	80019b0 <HAL_RCC_OscConfig+0x104>
      {
        /* Get Start Tick */
        tickstart = HAL_GetTick();
 8001988:	f7ff f85a 	bl	8000a40 <HAL_GetTick>
 800198c:	6138      	str	r0, [r7, #16]

        /* Wait till HSE is ready */
        while (__HAL_RCC_GET_FLAG(RCC_FLAG_HSERDY) == RESET)
 800198e:	e008      	b.n	80019a2 <HAL_RCC_OscConfig+0xf6>
        {
          if ((HAL_GetTick() - tickstart) > HSE_TIMEOUT_VALUE)
 8001990:	f7ff f856 	bl	8000a40 <HAL_GetTick>
 8001994:	4602      	mov	r2, r0
 8001996:	693b      	ldr	r3, [r7, #16]
 8001998:	1ad3      	subs	r3, r2, r3
 800199a:	2b64      	cmp	r3, #100	; 0x64
 800199c:	d901      	bls.n	80019a2 <HAL_RCC_OscConfig+0xf6>
          {
            return HAL_TIMEOUT;
 800199e:	2303      	movs	r3, #3
 80019a0:	e200      	b.n	8001da4 <HAL_RCC_OscConfig+0x4f8>
        while (__HAL_RCC_GET_FLAG(RCC_FLAG_HSERDY) == RESET)
 80019a2:	4b5d      	ldr	r3, [pc, #372]	; (8001b18 <HAL_RCC_OscConfig+0x26c>)
 80019a4:	681b      	ldr	r3, [r3, #0]
 80019a6:	f403 3300 	and.w	r3, r3, #131072	; 0x20000
 80019aa:	2b00      	cmp	r3, #0
 80019ac:	d0f0      	beq.n	8001990 <HAL_RCC_OscConfig+0xe4>
 80019ae:	e014      	b.n	80019da <HAL_RCC_OscConfig+0x12e>
        }
      }
      else
      {
        /* Get Start Tick */
        tickstart = HAL_GetTick();
 80019b0:	f7ff f846 	bl	8000a40 <HAL_GetTick>
 80019b4:	6138      	str	r0, [r7, #16]

        /* Wait till HSE is disabled */
        while (__HAL_RCC_GET_FLAG(RCC_FLAG_HSERDY) != RESET)
 80019b6:	e008      	b.n	80019ca <HAL_RCC_OscConfig+0x11e>
        {
          if ((HAL_GetTick() - tickstart) > HSE_TIMEOUT_VALUE)
 80019b8:	f7ff f842 	bl	8000a40 <HAL_GetTick>
 80019bc:	4602      	mov	r2, r0
 80019be:	693b      	ldr	r3, [r7, #16]
 80019c0:	1ad3      	subs	r3, r2, r3
 80019c2:	2b64      	cmp	r3, #100	; 0x64
 80019c4:	d901      	bls.n	80019ca <HAL_RCC_OscConfig+0x11e>
          {
            return HAL_TIMEOUT;
 80019c6:	2303      	movs	r3, #3
 80019c8:	e1ec      	b.n	8001da4 <HAL_RCC_OscConfig+0x4f8>
        while (__HAL_RCC_GET_FLAG(RCC_FLAG_HSERDY) != RESET)
 80019ca:	4b53      	ldr	r3, [pc, #332]	; (8001b18 <HAL_RCC_OscConfig+0x26c>)
 80019cc:	681b      	ldr	r3, [r3, #0]
 80019ce:	f403 3300 	and.w	r3, r3, #131072	; 0x20000
 80019d2:	2b00      	cmp	r3, #0
 80019d4:	d1f0      	bne.n	80019b8 <HAL_RCC_OscConfig+0x10c>
 80019d6:	e000      	b.n	80019da <HAL_RCC_OscConfig+0x12e>
      if ((__HAL_RCC_GET_FLAG(RCC_FLAG_HSERDY) != RESET) && (RCC_OscInitStruct->HSEState == RCC_HSE_OFF))
 80019d8:	bf00      	nop
        }
      }
    }
  }
  /*----------------------------- HSI Configuration --------------------------*/
  if (((RCC_OscInitStruct->OscillatorType) & RCC_OSCILLATORTYPE_HSI) == RCC_OSCILLATORTYPE_HSI)
 80019da:	687b      	ldr	r3, [r7, #4]
 80019dc:	681b      	ldr	r3, [r3, #0]
 80019de:	f003 0302 	and.w	r3, r3, #2
 80019e2:	2b00      	cmp	r3, #0
 80019e4:	d063      	beq.n	8001aae <HAL_RCC_OscConfig+0x202>
    /* Check the parameters */
    assert_param(IS_RCC_HSI(RCC_OscInitStruct->HSIState));
    assert_param(IS_RCC_CALIBRATION_VALUE(RCC_OscInitStruct->HSICalibrationValue));

    /* Check if HSI is used as system clock or as PLL source when PLL is selected as system clock */
    if ((__HAL_RCC_GET_SYSCLK_SOURCE() == RCC_SYSCLKSOURCE_STATUS_HSI)
 80019e6:	4b4c      	ldr	r3, [pc, #304]	; (8001b18 <HAL_RCC_OscConfig+0x26c>)
 80019e8:	685b      	ldr	r3, [r3, #4]
 80019ea:	f003 030c 	and.w	r3, r3, #12
 80019ee:	2b00      	cmp	r3, #0
 80019f0:	d00b      	beq.n	8001a0a <HAL_RCC_OscConfig+0x15e>
        || ((__HAL_RCC_GET_SYSCLK_SOURCE() == RCC_SYSCLKSOURCE_STATUS_PLLCLK) && (__HAL_RCC_GET_PLL_OSCSOURCE() == RCC_PLLSOURCE_HSI_DIV2)))
 80019f2:	4b49      	ldr	r3, [pc, #292]	; (8001b18 <HAL_RCC_OscConfig+0x26c>)
 80019f4:	685b      	ldr	r3, [r3, #4]
 80019f6:	f003 030c 	and.w	r3, r3, #12
 80019fa:	2b08      	cmp	r3, #8
 80019fc:	d11c      	bne.n	8001a38 <HAL_RCC_OscConfig+0x18c>
 80019fe:	4b46      	ldr	r3, [pc, #280]	; (8001b18 <HAL_RCC_OscConfig+0x26c>)
 8001a00:	685b      	ldr	r3, [r3, #4]
 8001a02:	f403 3380 	and.w	r3, r3, #65536	; 0x10000
 8001a06:	2b00      	cmp	r3, #0
 8001a08:	d116      	bne.n	8001a38 <HAL_RCC_OscConfig+0x18c>
    {
      /* When HSI is used as system clock it will not disabled */
      if ((__HAL_RCC_GET_FLAG(RCC_FLAG_HSIRDY) != RESET) && (RCC_OscInitStruct->HSIState != RCC_HSI_ON))
 8001a0a:	4b43      	ldr	r3, [pc, #268]	; (8001b18 <HAL_RCC_OscConfig+0x26c>)
 8001a0c:	681b      	ldr	r3, [r3, #0]
 8001a0e:	f003 0302 	and.w	r3, r3, #2
 8001a12:	2b00      	cmp	r3, #0
 8001a14:	d005      	beq.n	8001a22 <HAL_RCC_OscConfig+0x176>
 8001a16:	687b      	ldr	r3, [r7, #4]
 8001a18:	691b      	ldr	r3, [r3, #16]
 8001a1a:	2b01      	cmp	r3, #1
 8001a1c:	d001      	beq.n	8001a22 <HAL_RCC_OscConfig+0x176>
      {
        return HAL_ERROR;
 8001a1e:	2301      	movs	r3, #1
 8001a20:	e1c0      	b.n	8001da4 <HAL_RCC_OscConfig+0x4f8>
      }
      /* Otherwise, just the calibration is allowed */
      else
      {
        /* Adjusts the Internal High Speed oscillator (HSI) calibration value.*/
        __HAL_RCC_HSI_CALIBRATIONVALUE_ADJUST(RCC_OscInitStruct->HSICalibrationValue);
 8001a22:	4b3d      	ldr	r3, [pc, #244]	; (8001b18 <HAL_RCC_OscConfig+0x26c>)
 8001a24:	681b      	ldr	r3, [r3, #0]
 8001a26:	f023 02f8 	bic.w	r2, r3, #248	; 0xf8
 8001a2a:	687b      	ldr	r3, [r7, #4]
 8001a2c:	695b      	ldr	r3, [r3, #20]
 8001a2e:	00db      	lsls	r3, r3, #3
 8001a30:	4939      	ldr	r1, [pc, #228]	; (8001b18 <HAL_RCC_OscConfig+0x26c>)
 8001a32:	4313      	orrs	r3, r2
 8001a34:	600b      	str	r3, [r1, #0]
      if ((__HAL_RCC_GET_FLAG(RCC_FLAG_HSIRDY) != RESET) && (RCC_OscInitStruct->HSIState != RCC_HSI_ON))
 8001a36:	e03a      	b.n	8001aae <HAL_RCC_OscConfig+0x202>
      }
    }
    else
    {
      /* Check the HSI State */
      if (RCC_OscInitStruct->HSIState != RCC_HSI_OFF)
 8001a38:	687b      	ldr	r3, [r7, #4]
 8001a3a:	691b      	ldr	r3, [r3, #16]
 8001a3c:	2b00      	cmp	r3, #0
 8001a3e:	d020      	beq.n	8001a82 <HAL_RCC_OscConfig+0x1d6>
      {
        /* Enable the Internal High Speed oscillator (HSI). */
        __HAL_RCC_HSI_ENABLE();
 8001a40:	4b36      	ldr	r3, [pc, #216]	; (8001b1c <HAL_RCC_OscConfig+0x270>)
 8001a42:	2201      	movs	r2, #1
 8001a44:	601a      	str	r2, [r3, #0]

        /* Get Start Tick */
        tickstart = HAL_GetTick();
 8001a46:	f7fe fffb 	bl	8000a40 <HAL_GetTick>
 8001a4a:	6138      	str	r0, [r7, #16]

        /* Wait till HSI is ready */
        while (__HAL_RCC_GET_FLAG(RCC_FLAG_HSIRDY) == RESET)
 8001a4c:	e008      	b.n	8001a60 <HAL_RCC_OscConfig+0x1b4>
        {
          if ((HAL_GetTick() - tickstart) > HSI_TIMEOUT_VALUE)
 8001a4e:	f7fe fff7 	bl	8000a40 <HAL_GetTick>
 8001a52:	4602      	mov	r2, r0
 8001a54:	693b      	ldr	r3, [r7, #16]
 8001a56:	1ad3      	subs	r3, r2, r3
 8001a58:	2b02      	cmp	r3, #2
 8001a5a:	d901      	bls.n	8001a60 <HAL_RCC_OscConfig+0x1b4>
          {
            return HAL_TIMEOUT;
 8001a5c:	2303      	movs	r3, #3
 8001a5e:	e1a1      	b.n	8001da4 <HAL_RCC_OscConfig+0x4f8>
        while (__HAL_RCC_GET_FLAG(RCC_FLAG_HSIRDY) == RESET)
 8001a60:	4b2d      	ldr	r3, [pc, #180]	; (8001b18 <HAL_RCC_OscConfig+0x26c>)
 8001a62:	681b      	ldr	r3, [r3, #0]
 8001a64:	f003 0302 	and.w	r3, r3, #2
 8001a68:	2b00      	cmp	r3, #0
 8001a6a:	d0f0      	beq.n	8001a4e <HAL_RCC_OscConfig+0x1a2>
          }
        }

        /* Adjusts the Internal High Speed oscillator (HSI) calibration value.*/
        __HAL_RCC_HSI_CALIBRATIONVALUE_ADJUST(RCC_OscInitStruct->HSICalibrationValue);
 8001a6c:	4b2a      	ldr	r3, [pc, #168]	; (8001b18 <HAL_RCC_OscConfig+0x26c>)
 8001a6e:	681b      	ldr	r3, [r3, #0]
 8001a70:	f023 02f8 	bic.w	r2, r3, #248	; 0xf8
 8001a74:	687b      	ldr	r3, [r7, #4]
 8001a76:	695b      	ldr	r3, [r3, #20]
 8001a78:	00db      	lsls	r3, r3, #3
 8001a7a:	4927      	ldr	r1, [pc, #156]	; (8001b18 <HAL_RCC_OscConfig+0x26c>)
 8001a7c:	4313      	orrs	r3, r2
 8001a7e:	600b      	str	r3, [r1, #0]
 8001a80:	e015      	b.n	8001aae <HAL_RCC_OscConfig+0x202>
      }
      else
      {
        /* Disable the Internal High Speed oscillator (HSI). */
        __HAL_RCC_HSI_DISABLE();
 8001a82:	4b26      	ldr	r3, [pc, #152]	; (8001b1c <HAL_RCC_OscConfig+0x270>)
 8001a84:	2200      	movs	r2, #0
 8001a86:	601a      	str	r2, [r3, #0]

        /* Get Start Tick */
        tickstart = HAL_GetTick();
 8001a88:	f7fe ffda 	bl	8000a40 <HAL_GetTick>
 8001a8c:	6138      	str	r0, [r7, #16]

        /* Wait till HSI is disabled */
        while (__HAL_RCC_GET_FLAG(RCC_FLAG_HSIRDY) != RESET)
 8001a8e:	e008      	b.n	8001aa2 <HAL_RCC_OscConfig+0x1f6>
        {
          if ((HAL_GetTick() - tickstart) > HSI_TIMEOUT_VALUE)
 8001a90:	f7fe ffd6 	bl	8000a40 <HAL_GetTick>
 8001a94:	4602      	mov	r2, r0
 8001a96:	693b      	ldr	r3, [r7, #16]
 8001a98:	1ad3      	subs	r3, r2, r3
 8001a9a:	2b02      	cmp	r3, #2
 8001a9c:	d901      	bls.n	8001aa2 <HAL_RCC_OscConfig+0x1f6>
          {
            return HAL_TIMEOUT;
 8001a9e:	2303      	movs	r3, #3
 8001aa0:	e180      	b.n	8001da4 <HAL_RCC_OscConfig+0x4f8>
        while (__HAL_RCC_GET_FLAG(RCC_FLAG_HSIRDY) != RESET)
 8001aa2:	4b1d      	ldr	r3, [pc, #116]	; (8001b18 <HAL_RCC_OscConfig+0x26c>)
 8001aa4:	681b      	ldr	r3, [r3, #0]
 8001aa6:	f003 0302 	and.w	r3, r3, #2
 8001aaa:	2b00      	cmp	r3, #0
 8001aac:	d1f0      	bne.n	8001a90 <HAL_RCC_OscConfig+0x1e4>
        }
      }
    }
  }
  /*------------------------------ LSI Configuration -------------------------*/
  if (((RCC_OscInitStruct->OscillatorType) & RCC_OSCILLATORTYPE_LSI) == RCC_OSCILLATORTYPE_LSI)
 8001aae:	687b      	ldr	r3, [r7, #4]
 8001ab0:	681b      	ldr	r3, [r3, #0]
 8001ab2:	f003 0308 	and.w	r3, r3, #8
 8001ab6:	2b00      	cmp	r3, #0
 8001ab8:	d03a      	beq.n	8001b30 <HAL_RCC_OscConfig+0x284>
  {
    /* Check the parameters */
    assert_param(IS_RCC_LSI(RCC_OscInitStruct->LSIState));

    /* Check the LSI State */
    if (RCC_OscInitStruct->LSIState != RCC_LSI_OFF)
 8001aba:	687b      	ldr	r3, [r7, #4]
 8001abc:	699b      	ldr	r3, [r3, #24]
 8001abe:	2b00      	cmp	r3, #0
 8001ac0:	d019      	beq.n	8001af6 <HAL_RCC_OscConfig+0x24a>
    {
      /* Enable the Internal Low Speed oscillator (LSI). */
      __HAL_RCC_LSI_ENABLE();
 8001ac2:	4b17      	ldr	r3, [pc, #92]	; (8001b20 <HAL_RCC_OscConfig+0x274>)
 8001ac4:	2201      	movs	r2, #1
 8001ac6:	601a      	str	r2, [r3, #0]

      /* Get Start Tick */
      tickstart = HAL_GetTick();
 8001ac8:	f7fe ffba 	bl	8000a40 <HAL_GetTick>
 8001acc:	6138      	str	r0, [r7, #16]

      /* Wait till LSI is ready */
      while (__HAL_RCC_GET_FLAG(RCC_FLAG_LSIRDY) == RESET)
 8001ace:	e008      	b.n	8001ae2 <HAL_RCC_OscConfig+0x236>
      {
        if ((HAL_GetTick() - tickstart) > LSI_TIMEOUT_VALUE)
 8001ad0:	f7fe ffb6 	bl	8000a40 <HAL_GetTick>
 8001ad4:	4602      	mov	r2, r0
 8001ad6:	693b      	ldr	r3, [r7, #16]
 8001ad8:	1ad3      	subs	r3, r2, r3
 8001ada:	2b02      	cmp	r3, #2
 8001adc:	d901      	bls.n	8001ae2 <HAL_RCC_OscConfig+0x236>
        {
          return HAL_TIMEOUT;
 8001ade:	2303      	movs	r3, #3
 8001ae0:	e160      	b.n	8001da4 <HAL_RCC_OscConfig+0x4f8>
      while (__HAL_RCC_GET_FLAG(RCC_FLAG_LSIRDY) == RESET)
 8001ae2:	4b0d      	ldr	r3, [pc, #52]	; (8001b18 <HAL_RCC_OscConfig+0x26c>)
 8001ae4:	6a5b      	ldr	r3, [r3, #36]	; 0x24
 8001ae6:	f003 0302 	and.w	r3, r3, #2
 8001aea:	2b00      	cmp	r3, #0
 8001aec:	d0f0      	beq.n	8001ad0 <HAL_RCC_OscConfig+0x224>
        }
      }
      /*  To have a fully stabilized clock in the specified range, a software delay of 1ms
          should be added.*/
      RCC_Delay(1);
 8001aee:	2001      	movs	r0, #1
 8001af0:	f000 fad8 	bl	80020a4 <RCC_Delay>
 8001af4:	e01c      	b.n	8001b30 <HAL_RCC_OscConfig+0x284>
    }
    else
    {
      /* Disable the Internal Low Speed oscillator (LSI). */
      __HAL_RCC_LSI_DISABLE();
 8001af6:	4b0a      	ldr	r3, [pc, #40]	; (8001b20 <HAL_RCC_OscConfig+0x274>)
 8001af8:	2200      	movs	r2, #0
 8001afa:	601a      	str	r2, [r3, #0]

      /* Get Start Tick */
      tickstart = HAL_GetTick();
 8001afc:	f7fe ffa0 	bl	8000a40 <HAL_GetTick>
 8001b00:	6138      	str	r0, [r7, #16]

      /* Wait till LSI is disabled */
      while (__HAL_RCC_GET_FLAG(RCC_FLAG_LSIRDY) != RESET)
 8001b02:	e00f      	b.n	8001b24 <HAL_RCC_OscConfig+0x278>
      {
        if ((HAL_GetTick() - tickstart) > LSI_TIMEOUT_VALUE)
 8001b04:	f7fe ff9c 	bl	8000a40 <HAL_GetTick>
 8001b08:	4602      	mov	r2, r0
 8001b0a:	693b      	ldr	r3, [r7, #16]
 8001b0c:	1ad3      	subs	r3, r2, r3
 8001b0e:	2b02      	cmp	r3, #2
 8001b10:	d908      	bls.n	8001b24 <HAL_RCC_OscConfig+0x278>
        {
          return HAL_TIMEOUT;
 8001b12:	2303      	movs	r3, #3
 8001b14:	e146      	b.n	8001da4 <HAL_RCC_OscConfig+0x4f8>
 8001b16:	bf00      	nop
 8001b18:	40021000 	.word	0x40021000
 8001b1c:	42420000 	.word	0x42420000
 8001b20:	42420480 	.word	0x42420480
      while (__HAL_RCC_GET_FLAG(RCC_FLAG_LSIRDY) != RESET)
 8001b24:	4b92      	ldr	r3, [pc, #584]	; (8001d70 <HAL_RCC_OscConfig+0x4c4>)
 8001b26:	6a5b      	ldr	r3, [r3, #36]	; 0x24
 8001b28:	f003 0302 	and.w	r3, r3, #2
 8001b2c:	2b00      	cmp	r3, #0
 8001b2e:	d1e9      	bne.n	8001b04 <HAL_RCC_OscConfig+0x258>
        }
      }
    }
  }
  /*------------------------------ LSE Configuration -------------------------*/
  if (((RCC_OscInitStruct->OscillatorType) & RCC_OSCILLATORTYPE_LSE) == RCC_OSCILLATORTYPE_LSE)
 8001b30:	687b      	ldr	r3, [r7, #4]
 8001b32:	681b      	ldr	r3, [r3, #0]
 8001b34:	f003 0304 	and.w	r3, r3, #4
 8001b38:	2b00      	cmp	r3, #0
 8001b3a:	f000 80a6 	beq.w	8001c8a <HAL_RCC_OscConfig+0x3de>
  {
    FlagStatus       pwrclkchanged = RESET;
 8001b3e:	2300      	movs	r3, #0
 8001b40:	75fb      	strb	r3, [r7, #23]
    /* Check the parameters */
    assert_param(IS_RCC_LSE(RCC_OscInitStruct->LSEState));

    /* Update LSE configuration in Backup Domain control register    */
    /* Requires to enable write access to Backup Domain of necessary */
    if (__HAL_RCC_PWR_IS_CLK_DISABLED())
 8001b42:	4b8b      	ldr	r3, [pc, #556]	; (8001d70 <HAL_RCC_OscConfig+0x4c4>)
 8001b44:	69db      	ldr	r3, [r3, #28]
 8001b46:	f003 5380 	and.w	r3, r3, #268435456	; 0x10000000
 8001b4a:	2b00      	cmp	r3, #0
 8001b4c:	d10d      	bne.n	8001b6a <HAL_RCC_OscConfig+0x2be>
    {
      __HAL_RCC_PWR_CLK_ENABLE();
 8001b4e:	4b88      	ldr	r3, [pc, #544]	; (8001d70 <HAL_RCC_OscConfig+0x4c4>)
 8001b50:	69db      	ldr	r3, [r3, #28]
 8001b52:	4a87      	ldr	r2, [pc, #540]	; (8001d70 <HAL_RCC_OscConfig+0x4c4>)
 8001b54:	f043 5380 	orr.w	r3, r3, #268435456	; 0x10000000
 8001b58:	61d3      	str	r3, [r2, #28]
 8001b5a:	4b85      	ldr	r3, [pc, #532]	; (8001d70 <HAL_RCC_OscConfig+0x4c4>)
 8001b5c:	69db      	ldr	r3, [r3, #28]
 8001b5e:	f003 5380 	and.w	r3, r3, #268435456	; 0x10000000
 8001b62:	60bb      	str	r3, [r7, #8]
 8001b64:	68bb      	ldr	r3, [r7, #8]
      pwrclkchanged = SET;
 8001b66:	2301      	movs	r3, #1
 8001b68:	75fb      	strb	r3, [r7, #23]
    }

    if (HAL_IS_BIT_CLR(PWR->CR, PWR_CR_DBP))
 8001b6a:	4b82      	ldr	r3, [pc, #520]	; (8001d74 <HAL_RCC_OscConfig+0x4c8>)
 8001b6c:	681b      	ldr	r3, [r3, #0]
 8001b6e:	f403 7380 	and.w	r3, r3, #256	; 0x100
 8001b72:	2b00      	cmp	r3, #0
 8001b74:	d118      	bne.n	8001ba8 <HAL_RCC_OscConfig+0x2fc>
    {
      /* Enable write access to Backup domain */
      SET_BIT(PWR->CR, PWR_CR_DBP);
 8001b76:	4b7f      	ldr	r3, [pc, #508]	; (8001d74 <HAL_RCC_OscConfig+0x4c8>)
 8001b78:	681b      	ldr	r3, [r3, #0]
 8001b7a:	4a7e      	ldr	r2, [pc, #504]	; (8001d74 <HAL_RCC_OscConfig+0x4c8>)
 8001b7c:	f443 7380 	orr.w	r3, r3, #256	; 0x100
 8001b80:	6013      	str	r3, [r2, #0]

      /* Wait for Backup domain Write protection disable */
      tickstart = HAL_GetTick();
 8001b82:	f7fe ff5d 	bl	8000a40 <HAL_GetTick>
 8001b86:	6138      	str	r0, [r7, #16]

      while (HAL_IS_BIT_CLR(PWR->CR, PWR_CR_DBP))
 8001b88:	e008      	b.n	8001b9c <HAL_RCC_OscConfig+0x2f0>
      {
        if ((HAL_GetTick() - tickstart) > RCC_DBP_TIMEOUT_VALUE)
 8001b8a:	f7fe ff59 	bl	8000a40 <HAL_GetTick>
 8001b8e:	4602      	mov	r2, r0
 8001b90:	693b      	ldr	r3, [r7, #16]
 8001b92:	1ad3      	subs	r3, r2, r3
 8001b94:	2b64      	cmp	r3, #100	; 0x64
 8001b96:	d901      	bls.n	8001b9c <HAL_RCC_OscConfig+0x2f0>
        {
          return HAL_TIMEOUT;
 8001b98:	2303      	movs	r3, #3
 8001b9a:	e103      	b.n	8001da4 <HAL_RCC_OscConfig+0x4f8>
      while (HAL_IS_BIT_CLR(PWR->CR, PWR_CR_DBP))
 8001b9c:	4b75      	ldr	r3, [pc, #468]	; (8001d74 <HAL_RCC_OscConfig+0x4c8>)
 8001b9e:	681b      	ldr	r3, [r3, #0]
 8001ba0:	f403 7380 	and.w	r3, r3, #256	; 0x100
 8001ba4:	2b00      	cmp	r3, #0
 8001ba6:	d0f0      	beq.n	8001b8a <HAL_RCC_OscConfig+0x2de>
        }
      }
    }

    /* Set the new LSE configuration -----------------------------------------*/
    __HAL_RCC_LSE_CONFIG(RCC_OscInitStruct->LSEState);
 8001ba8:	687b      	ldr	r3, [r7, #4]
 8001baa:	68db      	ldr	r3, [r3, #12]
 8001bac:	2b01      	cmp	r3, #1
 8001bae:	d106      	bne.n	8001bbe <HAL_RCC_OscConfig+0x312>
 8001bb0:	4b6f      	ldr	r3, [pc, #444]	; (8001d70 <HAL_RCC_OscConfig+0x4c4>)
 8001bb2:	6a1b      	ldr	r3, [r3, #32]
 8001bb4:	4a6e      	ldr	r2, [pc, #440]	; (8001d70 <HAL_RCC_OscConfig+0x4c4>)
 8001bb6:	f043 0301 	orr.w	r3, r3, #1
 8001bba:	6213      	str	r3, [r2, #32]
 8001bbc:	e02d      	b.n	8001c1a <HAL_RCC_OscConfig+0x36e>
 8001bbe:	687b      	ldr	r3, [r7, #4]
 8001bc0:	68db      	ldr	r3, [r3, #12]
 8001bc2:	2b00      	cmp	r3, #0
 8001bc4:	d10c      	bne.n	8001be0 <HAL_RCC_OscConfig+0x334>
 8001bc6:	4b6a      	ldr	r3, [pc, #424]	; (8001d70 <HAL_RCC_OscConfig+0x4c4>)
 8001bc8:	6a1b      	ldr	r3, [r3, #32]
 8001bca:	4a69      	ldr	r2, [pc, #420]	; (8001d70 <HAL_RCC_OscConfig+0x4c4>)
 8001bcc:	f023 0301 	bic.w	r3, r3, #1
 8001bd0:	6213      	str	r3, [r2, #32]
 8001bd2:	4b67      	ldr	r3, [pc, #412]	; (8001d70 <HAL_RCC_OscConfig+0x4c4>)
 8001bd4:	6a1b      	ldr	r3, [r3, #32]
 8001bd6:	4a66      	ldr	r2, [pc, #408]	; (8001d70 <HAL_RCC_OscConfig+0x4c4>)
 8001bd8:	f023 0304 	bic.w	r3, r3, #4
 8001bdc:	6213      	str	r3, [r2, #32]
 8001bde:	e01c      	b.n	8001c1a <HAL_RCC_OscConfig+0x36e>
 8001be0:	687b      	ldr	r3, [r7, #4]
 8001be2:	68db      	ldr	r3, [r3, #12]
 8001be4:	2b05      	cmp	r3, #5
 8001be6:	d10c      	bne.n	8001c02 <HAL_RCC_OscConfig+0x356>
 8001be8:	4b61      	ldr	r3, [pc, #388]	; (8001d70 <HAL_RCC_OscConfig+0x4c4>)
 8001bea:	6a1b      	ldr	r3, [r3, #32]
 8001bec:	4a60      	ldr	r2, [pc, #384]	; (8001d70 <HAL_RCC_OscConfig+0x4c4>)
 8001bee:	f043 0304 	orr.w	r3, r3, #4
 8001bf2:	6213      	str	r3, [r2, #32]
 8001bf4:	4b5e      	ldr	r3, [pc, #376]	; (8001d70 <HAL_RCC_OscConfig+0x4c4>)
 8001bf6:	6a1b      	ldr	r3, [r3, #32]
 8001bf8:	4a5d      	ldr	r2, [pc, #372]	; (8001d70 <HAL_RCC_OscConfig+0x4c4>)
 8001bfa:	f043 0301 	orr.w	r3, r3, #1
 8001bfe:	6213      	str	r3, [r2, #32]
 8001c00:	e00b      	b.n	8001c1a <HAL_RCC_OscConfig+0x36e>
 8001c02:	4b5b      	ldr	r3, [pc, #364]	; (8001d70 <HAL_RCC_OscConfig+0x4c4>)
 8001c04:	6a1b      	ldr	r3, [r3, #32]
 8001c06:	4a5a      	ldr	r2, [pc, #360]	; (8001d70 <HAL_RCC_OscConfig+0x4c4>)
 8001c08:	f023 0301 	bic.w	r3, r3, #1
 8001c0c:	6213      	str	r3, [r2, #32]
 8001c0e:	4b58      	ldr	r3, [pc, #352]	; (8001d70 <HAL_RCC_OscConfig+0x4c4>)
 8001c10:	6a1b      	ldr	r3, [r3, #32]
 8001c12:	4a57      	ldr	r2, [pc, #348]	; (8001d70 <HAL_RCC_OscConfig+0x4c4>)
 8001c14:	f023 0304 	bic.w	r3, r3, #4
 8001c18:	6213      	str	r3, [r2, #32]
    /* Check the LSE State */
    if (RCC_OscInitStruct->LSEState != RCC_LSE_OFF)
 8001c1a:	687b      	ldr	r3, [r7, #4]
 8001c1c:	68db      	ldr	r3, [r3, #12]
 8001c1e:	2b00      	cmp	r3, #0
 8001c20:	d015      	beq.n	8001c4e <HAL_RCC_OscConfig+0x3a2>
    {
      /* Get Start Tick */
      tickstart = HAL_GetTick();
 8001c22:	f7fe ff0d 	bl	8000a40 <HAL_GetTick>
 8001c26:	6138      	str	r0, [r7, #16]

      /* Wait till LSE is ready */
      while (__HAL_RCC_GET_FLAG(RCC_FLAG_LSERDY) == RESET)
 8001c28:	e00a      	b.n	8001c40 <HAL_RCC_OscConfig+0x394>
      {
        if ((HAL_GetTick() - tickstart) > RCC_LSE_TIMEOUT_VALUE)
 8001c2a:	f7fe ff09 	bl	8000a40 <HAL_GetTick>
 8001c2e:	4602      	mov	r2, r0
 8001c30:	693b      	ldr	r3, [r7, #16]
 8001c32:	1ad3      	subs	r3, r2, r3
 8001c34:	f241 3288 	movw	r2, #5000	; 0x1388
 8001c38:	4293      	cmp	r3, r2
 8001c3a:	d901      	bls.n	8001c40 <HAL_RCC_OscConfig+0x394>
        {
          return HAL_TIMEOUT;
 8001c3c:	2303      	movs	r3, #3
 8001c3e:	e0b1      	b.n	8001da4 <HAL_RCC_OscConfig+0x4f8>
      while (__HAL_RCC_GET_FLAG(RCC_FLAG_LSERDY) == RESET)
 8001c40:	4b4b      	ldr	r3, [pc, #300]	; (8001d70 <HAL_RCC_OscConfig+0x4c4>)
 8001c42:	6a1b      	ldr	r3, [r3, #32]
 8001c44:	f003 0302 	and.w	r3, r3, #2
 8001c48:	2b00      	cmp	r3, #0
 8001c4a:	d0ee      	beq.n	8001c2a <HAL_RCC_OscConfig+0x37e>
 8001c4c:	e014      	b.n	8001c78 <HAL_RCC_OscConfig+0x3cc>
      }
    }
    else
    {
      /* Get Start Tick */
      tickstart = HAL_GetTick();
 8001c4e:	f7fe fef7 	bl	8000a40 <HAL_GetTick>
 8001c52:	6138      	str	r0, [r7, #16]

      /* Wait till LSE is disabled */
      while (__HAL_RCC_GET_FLAG(RCC_FLAG_LSERDY) != RESET)
 8001c54:	e00a      	b.n	8001c6c <HAL_RCC_OscConfig+0x3c0>
      {
        if ((HAL_GetTick() - tickstart) > RCC_LSE_TIMEOUT_VALUE)
 8001c56:	f7fe fef3 	bl	8000a40 <HAL_GetTick>
 8001c5a:	4602      	mov	r2, r0
 8001c5c:	693b      	ldr	r3, [r7, #16]
 8001c5e:	1ad3      	subs	r3, r2, r3
 8001c60:	f241 3288 	movw	r2, #5000	; 0x1388
 8001c64:	4293      	cmp	r3, r2
 8001c66:	d901      	bls.n	8001c6c <HAL_RCC_OscConfig+0x3c0>
        {
          return HAL_TIMEOUT;
 8001c68:	2303      	movs	r3, #3
 8001c6a:	e09b      	b.n	8001da4 <HAL_RCC_OscConfig+0x4f8>
      while (__HAL_RCC_GET_FLAG(RCC_FLAG_LSERDY) != RESET)
 8001c6c:	4b40      	ldr	r3, [pc, #256]	; (8001d70 <HAL_RCC_OscConfig+0x4c4>)
 8001c6e:	6a1b      	ldr	r3, [r3, #32]
 8001c70:	f003 0302 	and.w	r3, r3, #2
 8001c74:	2b00      	cmp	r3, #0
 8001c76:	d1ee      	bne.n	8001c56 <HAL_RCC_OscConfig+0x3aa>
        }
      }
    }

    /* Require to disable power clock if necessary */
    if (pwrclkchanged == SET)
 8001c78:	7dfb      	ldrb	r3, [r7, #23]
 8001c7a:	2b01      	cmp	r3, #1
 8001c7c:	d105      	bne.n	8001c8a <HAL_RCC_OscConfig+0x3de>
    {
      __HAL_RCC_PWR_CLK_DISABLE();
 8001c7e:	4b3c      	ldr	r3, [pc, #240]	; (8001d70 <HAL_RCC_OscConfig+0x4c4>)
 8001c80:	69db      	ldr	r3, [r3, #28]
 8001c82:	4a3b      	ldr	r2, [pc, #236]	; (8001d70 <HAL_RCC_OscConfig+0x4c4>)
 8001c84:	f023 5380 	bic.w	r3, r3, #268435456	; 0x10000000
 8001c88:	61d3      	str	r3, [r2, #28]

#endif /* RCC_CR_PLL2ON */
  /*-------------------------------- PLL Configuration -----------------------*/
  /* Check the parameters */
  assert_param(IS_RCC_PLL(RCC_OscInitStruct->PLL.PLLState));
  if ((RCC_OscInitStruct->PLL.PLLState) != RCC_PLL_NONE)
 8001c8a:	687b      	ldr	r3, [r7, #4]
 8001c8c:	69db      	ldr	r3, [r3, #28]
 8001c8e:	2b00      	cmp	r3, #0
 8001c90:	f000 8087 	beq.w	8001da2 <HAL_RCC_OscConfig+0x4f6>
  {
    /* Check if the PLL is used as system clock or not */
    if (__HAL_RCC_GET_SYSCLK_SOURCE() != RCC_SYSCLKSOURCE_STATUS_PLLCLK)
 8001c94:	4b36      	ldr	r3, [pc, #216]	; (8001d70 <HAL_RCC_OscConfig+0x4c4>)
 8001c96:	685b      	ldr	r3, [r3, #4]
 8001c98:	f003 030c 	and.w	r3, r3, #12
 8001c9c:	2b08      	cmp	r3, #8
 8001c9e:	d061      	beq.n	8001d64 <HAL_RCC_OscConfig+0x4b8>
    {
      if ((RCC_OscInitStruct->PLL.PLLState) == RCC_PLL_ON)
 8001ca0:	687b      	ldr	r3, [r7, #4]
 8001ca2:	69db      	ldr	r3, [r3, #28]
 8001ca4:	2b02      	cmp	r3, #2
 8001ca6:	d146      	bne.n	8001d36 <HAL_RCC_OscConfig+0x48a>
        /* Check the parameters */
        assert_param(IS_RCC_PLLSOURCE(RCC_OscInitStruct->PLL.PLLSource));
        assert_param(IS_RCC_PLL_MUL(RCC_OscInitStruct->PLL.PLLMUL));

        /* Disable the main PLL. */
        __HAL_RCC_PLL_DISABLE();
 8001ca8:	4b33      	ldr	r3, [pc, #204]	; (8001d78 <HAL_RCC_OscConfig+0x4cc>)
 8001caa:	2200      	movs	r2, #0
 8001cac:	601a      	str	r2, [r3, #0]

        /* Get Start Tick */
        tickstart = HAL_GetTick();
 8001cae:	f7fe fec7 	bl	8000a40 <HAL_GetTick>
 8001cb2:	6138      	str	r0, [r7, #16]

        /* Wait till PLL is disabled */
        while (__HAL_RCC_GET_FLAG(RCC_FLAG_PLLRDY)  != RESET)
 8001cb4:	e008      	b.n	8001cc8 <HAL_RCC_OscConfig+0x41c>
        {
          if ((HAL_GetTick() - tickstart) > PLL_TIMEOUT_VALUE)
 8001cb6:	f7fe fec3 	bl	8000a40 <HAL_GetTick>
 8001cba:	4602      	mov	r2, r0
 8001cbc:	693b      	ldr	r3, [r7, #16]
 8001cbe:	1ad3      	subs	r3, r2, r3
 8001cc0:	2b02      	cmp	r3, #2
 8001cc2:	d901      	bls.n	8001cc8 <HAL_RCC_OscConfig+0x41c>
          {
            return HAL_TIMEOUT;
 8001cc4:	2303      	movs	r3, #3
 8001cc6:	e06d      	b.n	8001da4 <HAL_RCC_OscConfig+0x4f8>
        while (__HAL_RCC_GET_FLAG(RCC_FLAG_PLLRDY)  != RESET)
 8001cc8:	4b29      	ldr	r3, [pc, #164]	; (8001d70 <HAL_RCC_OscConfig+0x4c4>)
 8001cca:	681b      	ldr	r3, [r3, #0]
 8001ccc:	f003 7300 	and.w	r3, r3, #33554432	; 0x2000000
 8001cd0:	2b00      	cmp	r3, #0
 8001cd2:	d1f0      	bne.n	8001cb6 <HAL_RCC_OscConfig+0x40a>
          }
        }

        /* Configure the HSE prediv factor --------------------------------*/
        /* It can be written only when the PLL is disabled. Not used in PLL source is different than HSE */
        if (RCC_OscInitStruct->PLL.PLLSource == RCC_PLLSOURCE_HSE)
 8001cd4:	687b      	ldr	r3, [r7, #4]
 8001cd6:	6a1b      	ldr	r3, [r3, #32]
 8001cd8:	f5b3 3f80 	cmp.w	r3, #65536	; 0x10000
 8001cdc:	d108      	bne.n	8001cf0 <HAL_RCC_OscConfig+0x444>
          /* Set PREDIV1 source */
          SET_BIT(RCC->CFGR2, RCC_OscInitStruct->Prediv1Source);
#endif /* RCC_CFGR2_PREDIV1SRC */

          /* Set PREDIV1 Value */
          __HAL_RCC_HSE_PREDIV_CONFIG(RCC_OscInitStruct->HSEPredivValue);
 8001cde:	4b24      	ldr	r3, [pc, #144]	; (8001d70 <HAL_RCC_OscConfig+0x4c4>)
 8001ce0:	685b      	ldr	r3, [r3, #4]
 8001ce2:	f423 3200 	bic.w	r2, r3, #131072	; 0x20000
 8001ce6:	687b      	ldr	r3, [r7, #4]
 8001ce8:	689b      	ldr	r3, [r3, #8]
 8001cea:	4921      	ldr	r1, [pc, #132]	; (8001d70 <HAL_RCC_OscConfig+0x4c4>)
 8001cec:	4313      	orrs	r3, r2
 8001cee:	604b      	str	r3, [r1, #4]
        }

        /* Configure the main PLL clock source and multiplication factors. */
        __HAL_RCC_PLL_CONFIG(RCC_OscInitStruct->PLL.PLLSource,
 8001cf0:	4b1f      	ldr	r3, [pc, #124]	; (8001d70 <HAL_RCC_OscConfig+0x4c4>)
 8001cf2:	685b      	ldr	r3, [r3, #4]
 8001cf4:	f423 1274 	bic.w	r2, r3, #3997696	; 0x3d0000
 8001cf8:	687b      	ldr	r3, [r7, #4]
 8001cfa:	6a19      	ldr	r1, [r3, #32]
 8001cfc:	687b      	ldr	r3, [r7, #4]
 8001cfe:	6a5b      	ldr	r3, [r3, #36]	; 0x24
 8001d00:	430b      	orrs	r3, r1
 8001d02:	491b      	ldr	r1, [pc, #108]	; (8001d70 <HAL_RCC_OscConfig+0x4c4>)
 8001d04:	4313      	orrs	r3, r2
 8001d06:	604b      	str	r3, [r1, #4]
                             RCC_OscInitStruct->PLL.PLLMUL);
        /* Enable the main PLL. */
        __HAL_RCC_PLL_ENABLE();
 8001d08:	4b1b      	ldr	r3, [pc, #108]	; (8001d78 <HAL_RCC_OscConfig+0x4cc>)
 8001d0a:	2201      	movs	r2, #1
 8001d0c:	601a      	str	r2, [r3, #0]

        /* Get Start Tick */
        tickstart = HAL_GetTick();
 8001d0e:	f7fe fe97 	bl	8000a40 <HAL_GetTick>
 8001d12:	6138      	str	r0, [r7, #16]

        /* Wait till PLL is ready */
        while (__HAL_RCC_GET_FLAG(RCC_FLAG_PLLRDY)  == RESET)
 8001d14:	e008      	b.n	8001d28 <HAL_RCC_OscConfig+0x47c>
        {
          if ((HAL_GetTick() - tickstart) > PLL_TIMEOUT_VALUE)
 8001d16:	f7fe fe93 	bl	8000a40 <HAL_GetTick>
 8001d1a:	4602      	mov	r2, r0
 8001d1c:	693b      	ldr	r3, [r7, #16]
 8001d1e:	1ad3      	subs	r3, r2, r3
 8001d20:	2b02      	cmp	r3, #2
 8001d22:	d901      	bls.n	8001d28 <HAL_RCC_OscConfig+0x47c>
          {
            return HAL_TIMEOUT;
 8001d24:	2303      	movs	r3, #3
 8001d26:	e03d      	b.n	8001da4 <HAL_RCC_OscConfig+0x4f8>
        while (__HAL_RCC_GET_FLAG(RCC_FLAG_PLLRDY)  == RESET)
 8001d28:	4b11      	ldr	r3, [pc, #68]	; (8001d70 <HAL_RCC_OscConfig+0x4c4>)
 8001d2a:	681b      	ldr	r3, [r3, #0]
 8001d2c:	f003 7300 	and.w	r3, r3, #33554432	; 0x2000000
 8001d30:	2b00      	cmp	r3, #0
 8001d32:	d0f0      	beq.n	8001d16 <HAL_RCC_OscConfig+0x46a>
 8001d34:	e035      	b.n	8001da2 <HAL_RCC_OscConfig+0x4f6>
        }
      }
      else
      {
        /* Disable the main PLL. */
        __HAL_RCC_PLL_DISABLE();
 8001d36:	4b10      	ldr	r3, [pc, #64]	; (8001d78 <HAL_RCC_OscConfig+0x4cc>)
 8001d38:	2200      	movs	r2, #0
 8001d3a:	601a      	str	r2, [r3, #0]

        /* Get Start Tick */
        tickstart = HAL_GetTick();
 8001d3c:	f7fe fe80 	bl	8000a40 <HAL_GetTick>
 8001d40:	6138      	str	r0, [r7, #16]

        /* Wait till PLL is disabled */
        while (__HAL_RCC_GET_FLAG(RCC_FLAG_PLLRDY)  != RESET)
 8001d42:	e008      	b.n	8001d56 <HAL_RCC_OscConfig+0x4aa>
        {
          if ((HAL_GetTick() - tickstart) > PLL_TIMEOUT_VALUE)
 8001d44:	f7fe fe7c 	bl	8000a40 <HAL_GetTick>
 8001d48:	4602      	mov	r2, r0
 8001d4a:	693b      	ldr	r3, [r7, #16]
 8001d4c:	1ad3      	subs	r3, r2, r3
 8001d4e:	2b02      	cmp	r3, #2
 8001d50:	d901      	bls.n	8001d56 <HAL_RCC_OscConfig+0x4aa>
          {
            return HAL_TIMEOUT;
 8001d52:	2303      	movs	r3, #3
 8001d54:	e026      	b.n	8001da4 <HAL_RCC_OscConfig+0x4f8>
        while (__HAL_RCC_GET_FLAG(RCC_FLAG_PLLRDY)  != RESET)
 8001d56:	4b06      	ldr	r3, [pc, #24]	; (8001d70 <HAL_RCC_OscConfig+0x4c4>)
 8001d58:	681b      	ldr	r3, [r3, #0]
 8001d5a:	f003 7300 	and.w	r3, r3, #33554432	; 0x2000000
 8001d5e:	2b00      	cmp	r3, #0
 8001d60:	d1f0      	bne.n	8001d44 <HAL_RCC_OscConfig+0x498>
 8001d62:	e01e      	b.n	8001da2 <HAL_RCC_OscConfig+0x4f6>
      }
    }
    else
    {
      /* Check if there is a request to disable the PLL used as System clock source */
      if ((RCC_OscInitStruct->PLL.PLLState) == RCC_PLL_OFF)
 8001d64:	687b      	ldr	r3, [r7, #4]
 8001d66:	69db      	ldr	r3, [r3, #28]
 8001d68:	2b01      	cmp	r3, #1
 8001d6a:	d107      	bne.n	8001d7c <HAL_RCC_OscConfig+0x4d0>
      {
        return HAL_ERROR;
 8001d6c:	2301      	movs	r3, #1
 8001d6e:	e019      	b.n	8001da4 <HAL_RCC_OscConfig+0x4f8>
 8001d70:	40021000 	.word	0x40021000
 8001d74:	40007000 	.word	0x40007000
 8001d78:	42420060 	.word	0x42420060
      }
      else
      {
        /* Do not return HAL_ERROR if request repeats the current configuration */
        pll_config = RCC->CFGR;
 8001d7c:	4b0b      	ldr	r3, [pc, #44]	; (8001dac <HAL_RCC_OscConfig+0x500>)
 8001d7e:	685b      	ldr	r3, [r3, #4]
 8001d80:	60fb      	str	r3, [r7, #12]
        if ((READ_BIT(pll_config, RCC_CFGR_PLLSRC) != RCC_OscInitStruct->PLL.PLLSource) ||
 8001d82:	68fb      	ldr	r3, [r7, #12]
 8001d84:	f403 3280 	and.w	r2, r3, #65536	; 0x10000
 8001d88:	687b      	ldr	r3, [r7, #4]
 8001d8a:	6a1b      	ldr	r3, [r3, #32]
 8001d8c:	429a      	cmp	r2, r3
 8001d8e:	d106      	bne.n	8001d9e <HAL_RCC_OscConfig+0x4f2>
            (READ_BIT(pll_config, RCC_CFGR_PLLMULL) != RCC_OscInitStruct->PLL.PLLMUL))
 8001d90:	68fb      	ldr	r3, [r7, #12]
 8001d92:	f403 1270 	and.w	r2, r3, #3932160	; 0x3c0000
 8001d96:	687b      	ldr	r3, [r7, #4]
 8001d98:	6a5b      	ldr	r3, [r3, #36]	; 0x24
        if ((READ_BIT(pll_config, RCC_CFGR_PLLSRC) != RCC_OscInitStruct->PLL.PLLSource) ||
 8001d9a:	429a      	cmp	r2, r3
 8001d9c:	d001      	beq.n	8001da2 <HAL_RCC_OscConfig+0x4f6>
        {
          return HAL_ERROR;
 8001d9e:	2301      	movs	r3, #1
 8001da0:	e000      	b.n	8001da4 <HAL_RCC_OscConfig+0x4f8>
        }
      }
    }
  }

  return HAL_OK;
 8001da2:	2300      	movs	r3, #0
}
 8001da4:	4618      	mov	r0, r3
 8001da6:	3718      	adds	r7, #24
 8001da8:	46bd      	mov	sp, r7
 8001daa:	bd80      	pop	{r7, pc}
 8001dac:	40021000 	.word	0x40021000

08001db0 <HAL_RCC_ClockConfig>:
  *         You can use @ref HAL_RCC_GetClockConfig() function to know which clock is
  *         currently used as system clock source.
  * @retval HAL status
  */
HAL_StatusTypeDef HAL_RCC_ClockConfig(RCC_ClkInitTypeDef  *RCC_ClkInitStruct, uint32_t FLatency)
{
 8001db0:	b580      	push	{r7, lr}
 8001db2:	b084      	sub	sp, #16
 8001db4:	af00      	add	r7, sp, #0
 8001db6:	6078      	str	r0, [r7, #4]
 8001db8:	6039      	str	r1, [r7, #0]
  uint32_t tickstart;

  /* Check Null pointer */
  if (RCC_ClkInitStruct == NULL)
 8001dba:	687b      	ldr	r3, [r7, #4]
 8001dbc:	2b00      	cmp	r3, #0
 8001dbe:	d101      	bne.n	8001dc4 <HAL_RCC_ClockConfig+0x14>
  {
    return HAL_ERROR;
 8001dc0:	2301      	movs	r3, #1
 8001dc2:	e0d0      	b.n	8001f66 <HAL_RCC_ClockConfig+0x1b6>
  must be correctly programmed according to the frequency of the CPU clock
    (HCLK) of the device. */

#if defined(FLASH_ACR_LATENCY)
  /* Increasing the number of wait states because of higher CPU frequency */
  if (FLatency > __HAL_FLASH_GET_LATENCY())
 8001dc4:	4b6a      	ldr	r3, [pc, #424]	; (8001f70 <HAL_RCC_ClockConfig+0x1c0>)
 8001dc6:	681b      	ldr	r3, [r3, #0]
 8001dc8:	f003 0307 	and.w	r3, r3, #7
 8001dcc:	683a      	ldr	r2, [r7, #0]
 8001dce:	429a      	cmp	r2, r3
 8001dd0:	d910      	bls.n	8001df4 <HAL_RCC_ClockConfig+0x44>
  {
    /* Program the new number of wait states to the LATENCY bits in the FLASH_ACR register */
    __HAL_FLASH_SET_LATENCY(FLatency);
 8001dd2:	4b67      	ldr	r3, [pc, #412]	; (8001f70 <HAL_RCC_ClockConfig+0x1c0>)
 8001dd4:	681b      	ldr	r3, [r3, #0]
 8001dd6:	f023 0207 	bic.w	r2, r3, #7
 8001dda:	4965      	ldr	r1, [pc, #404]	; (8001f70 <HAL_RCC_ClockConfig+0x1c0>)
 8001ddc:	683b      	ldr	r3, [r7, #0]
 8001dde:	4313      	orrs	r3, r2
 8001de0:	600b      	str	r3, [r1, #0]

    /* Check that the new number of wait states is taken into account to access the Flash
    memory by reading the FLASH_ACR register */
    if (__HAL_FLASH_GET_LATENCY() != FLatency)
 8001de2:	4b63      	ldr	r3, [pc, #396]	; (8001f70 <HAL_RCC_ClockConfig+0x1c0>)
 8001de4:	681b      	ldr	r3, [r3, #0]
 8001de6:	f003 0307 	and.w	r3, r3, #7
 8001dea:	683a      	ldr	r2, [r7, #0]
 8001dec:	429a      	cmp	r2, r3
 8001dee:	d001      	beq.n	8001df4 <HAL_RCC_ClockConfig+0x44>
  {
    return HAL_ERROR;
 8001df0:	2301      	movs	r3, #1
 8001df2:	e0b8      	b.n	8001f66 <HAL_RCC_ClockConfig+0x1b6>
  }
}

#endif /* FLASH_ACR_LATENCY */
/*-------------------------- HCLK Configuration --------------------------*/
if (((RCC_ClkInitStruct->ClockType) & RCC_CLOCKTYPE_HCLK) == RCC_CLOCKTYPE_HCLK)
 8001df4:	687b      	ldr	r3, [r7, #4]
 8001df6:	681b      	ldr	r3, [r3, #0]
 8001df8:	f003 0302 	and.w	r3, r3, #2
 8001dfc:	2b00      	cmp	r3, #0
 8001dfe:	d020      	beq.n	8001e42 <HAL_RCC_ClockConfig+0x92>
  {
    /* Set the highest APBx dividers in order to ensure that we do not go through
    a non-spec phase whatever we decrease or increase HCLK. */
    if (((RCC_ClkInitStruct->ClockType) & RCC_CLOCKTYPE_PCLK1) == RCC_CLOCKTYPE_PCLK1)
 8001e00:	687b      	ldr	r3, [r7, #4]
 8001e02:	681b      	ldr	r3, [r3, #0]
 8001e04:	f003 0304 	and.w	r3, r3, #4
 8001e08:	2b00      	cmp	r3, #0
 8001e0a:	d005      	beq.n	8001e18 <HAL_RCC_ClockConfig+0x68>
    {
      MODIFY_REG(RCC->CFGR, RCC_CFGR_PPRE1, RCC_HCLK_DIV16);
 8001e0c:	4b59      	ldr	r3, [pc, #356]	; (8001f74 <HAL_RCC_ClockConfig+0x1c4>)
 8001e0e:	685b      	ldr	r3, [r3, #4]
 8001e10:	4a58      	ldr	r2, [pc, #352]	; (8001f74 <HAL_RCC_ClockConfig+0x1c4>)
 8001e12:	f443 63e0 	orr.w	r3, r3, #1792	; 0x700
 8001e16:	6053      	str	r3, [r2, #4]
    }

    if (((RCC_ClkInitStruct->ClockType) & RCC_CLOCKTYPE_PCLK2) == RCC_CLOCKTYPE_PCLK2)
 8001e18:	687b      	ldr	r3, [r7, #4]
 8001e1a:	681b      	ldr	r3, [r3, #0]
 8001e1c:	f003 0308 	and.w	r3, r3, #8
 8001e20:	2b00      	cmp	r3, #0
 8001e22:	d005      	beq.n	8001e30 <HAL_RCC_ClockConfig+0x80>
    {
      MODIFY_REG(RCC->CFGR, RCC_CFGR_PPRE2, (RCC_HCLK_DIV16 << 3));
 8001e24:	4b53      	ldr	r3, [pc, #332]	; (8001f74 <HAL_RCC_ClockConfig+0x1c4>)
 8001e26:	685b      	ldr	r3, [r3, #4]
 8001e28:	4a52      	ldr	r2, [pc, #328]	; (8001f74 <HAL_RCC_ClockConfig+0x1c4>)
 8001e2a:	f443 5360 	orr.w	r3, r3, #14336	; 0x3800
 8001e2e:	6053      	str	r3, [r2, #4]
    }

    /* Set the new HCLK clock divider */
    assert_param(IS_RCC_HCLK(RCC_ClkInitStruct->AHBCLKDivider));
    MODIFY_REG(RCC->CFGR, RCC_CFGR_HPRE, RCC_ClkInitStruct->AHBCLKDivider);
 8001e30:	4b50      	ldr	r3, [pc, #320]	; (8001f74 <HAL_RCC_ClockConfig+0x1c4>)
 8001e32:	685b      	ldr	r3, [r3, #4]
 8001e34:	f023 02f0 	bic.w	r2, r3, #240	; 0xf0
 8001e38:	687b      	ldr	r3, [r7, #4]
 8001e3a:	689b      	ldr	r3, [r3, #8]
 8001e3c:	494d      	ldr	r1, [pc, #308]	; (8001f74 <HAL_RCC_ClockConfig+0x1c4>)
 8001e3e:	4313      	orrs	r3, r2
 8001e40:	604b      	str	r3, [r1, #4]
  }

  /*------------------------- SYSCLK Configuration ---------------------------*/
  if (((RCC_ClkInitStruct->ClockType) & RCC_CLOCKTYPE_SYSCLK) == RCC_CLOCKTYPE_SYSCLK)
 8001e42:	687b      	ldr	r3, [r7, #4]
 8001e44:	681b      	ldr	r3, [r3, #0]
 8001e46:	f003 0301 	and.w	r3, r3, #1
 8001e4a:	2b00      	cmp	r3, #0
 8001e4c:	d040      	beq.n	8001ed0 <HAL_RCC_ClockConfig+0x120>
  {
    assert_param(IS_RCC_SYSCLKSOURCE(RCC_ClkInitStruct->SYSCLKSource));

    /* HSE is selected as System Clock Source */
    if (RCC_ClkInitStruct->SYSCLKSource == RCC_SYSCLKSOURCE_HSE)
 8001e4e:	687b      	ldr	r3, [r7, #4]
 8001e50:	685b      	ldr	r3, [r3, #4]
 8001e52:	2b01      	cmp	r3, #1
 8001e54:	d107      	bne.n	8001e66 <HAL_RCC_ClockConfig+0xb6>
    {
      /* Check the HSE ready flag */
      if (__HAL_RCC_GET_FLAG(RCC_FLAG_HSERDY) == RESET)
 8001e56:	4b47      	ldr	r3, [pc, #284]	; (8001f74 <HAL_RCC_ClockConfig+0x1c4>)
 8001e58:	681b      	ldr	r3, [r3, #0]
 8001e5a:	f403 3300 	and.w	r3, r3, #131072	; 0x20000
 8001e5e:	2b00      	cmp	r3, #0
 8001e60:	d115      	bne.n	8001e8e <HAL_RCC_ClockConfig+0xde>
      {
        return HAL_ERROR;
 8001e62:	2301      	movs	r3, #1
 8001e64:	e07f      	b.n	8001f66 <HAL_RCC_ClockConfig+0x1b6>
      }
    }
    /* PLL is selected as System Clock Source */
    else if (RCC_ClkInitStruct->SYSCLKSource == RCC_SYSCLKSOURCE_PLLCLK)
 8001e66:	687b      	ldr	r3, [r7, #4]
 8001e68:	685b      	ldr	r3, [r3, #4]
 8001e6a:	2b02      	cmp	r3, #2
 8001e6c:	d107      	bne.n	8001e7e <HAL_RCC_ClockConfig+0xce>
    {
      /* Check the PLL ready flag */
      if (__HAL_RCC_GET_FLAG(RCC_FLAG_PLLRDY) == RESET)
 8001e6e:	4b41      	ldr	r3, [pc, #260]	; (8001f74 <HAL_RCC_ClockConfig+0x1c4>)
 8001e70:	681b      	ldr	r3, [r3, #0]
 8001e72:	f003 7300 	and.w	r3, r3, #33554432	; 0x2000000
 8001e76:	2b00      	cmp	r3, #0
 8001e78:	d109      	bne.n	8001e8e <HAL_RCC_ClockConfig+0xde>
      {
        return HAL_ERROR;
 8001e7a:	2301      	movs	r3, #1
 8001e7c:	e073      	b.n	8001f66 <HAL_RCC_ClockConfig+0x1b6>
    }
    /* HSI is selected as System Clock Source */
    else
    {
      /* Check the HSI ready flag */
      if (__HAL_RCC_GET_FLAG(RCC_FLAG_HSIRDY) == RESET)
 8001e7e:	4b3d      	ldr	r3, [pc, #244]	; (8001f74 <HAL_RCC_ClockConfig+0x1c4>)
 8001e80:	681b      	ldr	r3, [r3, #0]
 8001e82:	f003 0302 	and.w	r3, r3, #2
 8001e86:	2b00      	cmp	r3, #0
 8001e88:	d101      	bne.n	8001e8e <HAL_RCC_ClockConfig+0xde>
      {
        return HAL_ERROR;
 8001e8a:	2301      	movs	r3, #1
 8001e8c:	e06b      	b.n	8001f66 <HAL_RCC_ClockConfig+0x1b6>
      }
    }
    __HAL_RCC_SYSCLK_CONFIG(RCC_ClkInitStruct->SYSCLKSource);
 8001e8e:	4b39      	ldr	r3, [pc, #228]	; (8001f74 <HAL_RCC_ClockConfig+0x1c4>)
 8001e90:	685b      	ldr	r3, [r3, #4]
 8001e92:	f023 0203 	bic.w	r2, r3, #3
 8001e96:	687b      	ldr	r3, [r7, #4]
 8001e98:	685b      	ldr	r3, [r3, #4]
 8001e9a:	4936      	ldr	r1, [pc, #216]	; (8001f74 <HAL_RCC_ClockConfig+0x1c4>)
 8001e9c:	4313      	orrs	r3, r2
 8001e9e:	604b      	str	r3, [r1, #4]

    /* Get Start Tick */
    tickstart = HAL_GetTick();
 8001ea0:	f7fe fdce 	bl	8000a40 <HAL_GetTick>
 8001ea4:	60f8      	str	r0, [r7, #12]

    while (__HAL_RCC_GET_SYSCLK_SOURCE() != (RCC_ClkInitStruct->SYSCLKSource << RCC_CFGR_SWS_Pos))
 8001ea6:	e00a      	b.n	8001ebe <HAL_RCC_ClockConfig+0x10e>
    {
      if ((HAL_GetTick() - tickstart) > CLOCKSWITCH_TIMEOUT_VALUE)
 8001ea8:	f7fe fdca 	bl	8000a40 <HAL_GetTick>
 8001eac:	4602      	mov	r2, r0
 8001eae:	68fb      	ldr	r3, [r7, #12]
 8001eb0:	1ad3      	subs	r3, r2, r3
 8001eb2:	f241 3288 	movw	r2, #5000	; 0x1388
 8001eb6:	4293      	cmp	r3, r2
 8001eb8:	d901      	bls.n	8001ebe <HAL_RCC_ClockConfig+0x10e>
      {
        return HAL_TIMEOUT;
 8001eba:	2303      	movs	r3, #3
 8001ebc:	e053      	b.n	8001f66 <HAL_RCC_ClockConfig+0x1b6>
    while (__HAL_RCC_GET_SYSCLK_SOURCE() != (RCC_ClkInitStruct->SYSCLKSource << RCC_CFGR_SWS_Pos))
 8001ebe:	4b2d      	ldr	r3, [pc, #180]	; (8001f74 <HAL_RCC_ClockConfig+0x1c4>)
 8001ec0:	685b      	ldr	r3, [r3, #4]
 8001ec2:	f003 020c 	and.w	r2, r3, #12
 8001ec6:	687b      	ldr	r3, [r7, #4]
 8001ec8:	685b      	ldr	r3, [r3, #4]
 8001eca:	009b      	lsls	r3, r3, #2
 8001ecc:	429a      	cmp	r2, r3
 8001ece:	d1eb      	bne.n	8001ea8 <HAL_RCC_ClockConfig+0xf8>
    }
  }

#if defined(FLASH_ACR_LATENCY)
  /* Decreasing the number of wait states because of lower CPU frequency */
  if (FLatency < __HAL_FLASH_GET_LATENCY())
 8001ed0:	4b27      	ldr	r3, [pc, #156]	; (8001f70 <HAL_RCC_ClockConfig+0x1c0>)
 8001ed2:	681b      	ldr	r3, [r3, #0]
 8001ed4:	f003 0307 	and.w	r3, r3, #7
 8001ed8:	683a      	ldr	r2, [r7, #0]
 8001eda:	429a      	cmp	r2, r3
 8001edc:	d210      	bcs.n	8001f00 <HAL_RCC_ClockConfig+0x150>
  {
    /* Program the new number of wait states to the LATENCY bits in the FLASH_ACR register */
    __HAL_FLASH_SET_LATENCY(FLatency);
 8001ede:	4b24      	ldr	r3, [pc, #144]	; (8001f70 <HAL_RCC_ClockConfig+0x1c0>)
 8001ee0:	681b      	ldr	r3, [r3, #0]
 8001ee2:	f023 0207 	bic.w	r2, r3, #7
 8001ee6:	4922      	ldr	r1, [pc, #136]	; (8001f70 <HAL_RCC_ClockConfig+0x1c0>)
 8001ee8:	683b      	ldr	r3, [r7, #0]
 8001eea:	4313      	orrs	r3, r2
 8001eec:	600b      	str	r3, [r1, #0]

    /* Check that the new number of wait states is taken into account to access the Flash
    memory by reading the FLASH_ACR register */
    if (__HAL_FLASH_GET_LATENCY() != FLatency)
 8001eee:	4b20      	ldr	r3, [pc, #128]	; (8001f70 <HAL_RCC_ClockConfig+0x1c0>)
 8001ef0:	681b      	ldr	r3, [r3, #0]
 8001ef2:	f003 0307 	and.w	r3, r3, #7
 8001ef6:	683a      	ldr	r2, [r7, #0]
 8001ef8:	429a      	cmp	r2, r3
 8001efa:	d001      	beq.n	8001f00 <HAL_RCC_ClockConfig+0x150>
  {
    return HAL_ERROR;
 8001efc:	2301      	movs	r3, #1
 8001efe:	e032      	b.n	8001f66 <HAL_RCC_ClockConfig+0x1b6>
  }
}
#endif /* FLASH_ACR_LATENCY */

/*-------------------------- PCLK1 Configuration ---------------------------*/
if (((RCC_ClkInitStruct->ClockType) & RCC_CLOCKTYPE_PCLK1) == RCC_CLOCKTYPE_PCLK1)
 8001f00:	687b      	ldr	r3, [r7, #4]
 8001f02:	681b      	ldr	r3, [r3, #0]
 8001f04:	f003 0304 	and.w	r3, r3, #4
 8001f08:	2b00      	cmp	r3, #0
 8001f0a:	d008      	beq.n	8001f1e <HAL_RCC_ClockConfig+0x16e>
  {
    assert_param(IS_RCC_PCLK(RCC_ClkInitStruct->APB1CLKDivider));
    MODIFY_REG(RCC->CFGR, RCC_CFGR_PPRE1, RCC_ClkInitStruct->APB1CLKDivider);
 8001f0c:	4b19      	ldr	r3, [pc, #100]	; (8001f74 <HAL_RCC_ClockConfig+0x1c4>)
 8001f0e:	685b      	ldr	r3, [r3, #4]
 8001f10:	f423 62e0 	bic.w	r2, r3, #1792	; 0x700
 8001f14:	687b      	ldr	r3, [r7, #4]
 8001f16:	68db      	ldr	r3, [r3, #12]
 8001f18:	4916      	ldr	r1, [pc, #88]	; (8001f74 <HAL_RCC_ClockConfig+0x1c4>)
 8001f1a:	4313      	orrs	r3, r2
 8001f1c:	604b      	str	r3, [r1, #4]
  }

  /*-------------------------- PCLK2 Configuration ---------------------------*/
  if (((RCC_ClkInitStruct->ClockType) & RCC_CLOCKTYPE_PCLK2) == RCC_CLOCKTYPE_PCLK2)
 8001f1e:	687b      	ldr	r3, [r7, #4]
 8001f20:	681b      	ldr	r3, [r3, #0]
 8001f22:	f003 0308 	and.w	r3, r3, #8
 8001f26:	2b00      	cmp	r3, #0
 8001f28:	d009      	beq.n	8001f3e <HAL_RCC_ClockConfig+0x18e>
  {
    assert_param(IS_RCC_PCLK(RCC_ClkInitStruct->APB2CLKDivider));
    MODIFY_REG(RCC->CFGR, RCC_CFGR_PPRE2, ((RCC_ClkInitStruct->APB2CLKDivider) << 3));
 8001f2a:	4b12      	ldr	r3, [pc, #72]	; (8001f74 <HAL_RCC_ClockConfig+0x1c4>)
 8001f2c:	685b      	ldr	r3, [r3, #4]
 8001f2e:	f423 5260 	bic.w	r2, r3, #14336	; 0x3800
 8001f32:	687b      	ldr	r3, [r7, #4]
 8001f34:	691b      	ldr	r3, [r3, #16]
 8001f36:	00db      	lsls	r3, r3, #3
 8001f38:	490e      	ldr	r1, [pc, #56]	; (8001f74 <HAL_RCC_ClockConfig+0x1c4>)
 8001f3a:	4313      	orrs	r3, r2
 8001f3c:	604b      	str	r3, [r1, #4]
  }

  /* Update the SystemCoreClock global variable */
  SystemCoreClock = HAL_RCC_GetSysClockFreq() >> AHBPrescTable[(RCC->CFGR & RCC_CFGR_HPRE) >> RCC_CFGR_HPRE_Pos];
 8001f3e:	f000 f821 	bl	8001f84 <HAL_RCC_GetSysClockFreq>
 8001f42:	4602      	mov	r2, r0
 8001f44:	4b0b      	ldr	r3, [pc, #44]	; (8001f74 <HAL_RCC_ClockConfig+0x1c4>)
 8001f46:	685b      	ldr	r3, [r3, #4]
 8001f48:	091b      	lsrs	r3, r3, #4
 8001f4a:	f003 030f 	and.w	r3, r3, #15
 8001f4e:	490a      	ldr	r1, [pc, #40]	; (8001f78 <HAL_RCC_ClockConfig+0x1c8>)
 8001f50:	5ccb      	ldrb	r3, [r1, r3]
 8001f52:	fa22 f303 	lsr.w	r3, r2, r3
 8001f56:	4a09      	ldr	r2, [pc, #36]	; (8001f7c <HAL_RCC_ClockConfig+0x1cc>)
 8001f58:	6013      	str	r3, [r2, #0]

  /* Configure the source of time base considering new system clocks settings*/
  HAL_InitTick(uwTickPrio);
 8001f5a:	4b09      	ldr	r3, [pc, #36]	; (8001f80 <HAL_RCC_ClockConfig+0x1d0>)
 8001f5c:	681b      	ldr	r3, [r3, #0]
 8001f5e:	4618      	mov	r0, r3
 8001f60:	f7fe fd2c 	bl	80009bc <HAL_InitTick>

  return HAL_OK;
 8001f64:	2300      	movs	r3, #0
}
 8001f66:	4618      	mov	r0, r3
 8001f68:	3710      	adds	r7, #16
 8001f6a:	46bd      	mov	sp, r7
 8001f6c:	bd80      	pop	{r7, pc}
 8001f6e:	bf00      	nop
 8001f70:	40022000 	.word	0x40022000
 8001f74:	40021000 	.word	0x40021000
 8001f78:	080035e4 	.word	0x080035e4
 8001f7c:	20000000 	.word	0x20000000
 8001f80:	20000004 	.word	0x20000004

08001f84 <HAL_RCC_GetSysClockFreq>:
  *         right SYSCLK value. Otherwise, any configuration based on this function will be incorrect.
  *
  * @retval SYSCLK frequency
  */
uint32_t HAL_RCC_GetSysClockFreq(void)
{
 8001f84:	b490      	push	{r4, r7}
 8001f86:	b08a      	sub	sp, #40	; 0x28
